:020000040800F2
:1000000000000120CD620208290901082B0901081E
:100010002D0901082F09010831090108000000001D
:10002000000000000000000000000000330901088B
:1000300035090108000000003709010839090108E5
:100040001D6302081D6302081D6302081D63020888
:100050001D6302081D6302081D6302081D63020878
:100060001D6302081D6302081D6302083D090108A3
:100070001D6302081D6302081D6302081D63020858
:100080001D6302081D6302081D6302081D63020848
:100090001D6302081D6302081D6302081D63020838
:1000A0001D6302081D6302081D6302081D63020828
:1000B0001D6302081D6302081D6302081D63020818
:1000C0001D6302081D6302081D6302081D63020808
:1000D0001D6302081D6302081D6302081D630208F8
:1000E0001D6302081D6302081D6302081D630208E8
:1000F000410B00201D6302081D6302081D630208F6
:100100001D63020800000000000000001D630208DB
:100110001D6302081D630208A1370008A50B00201B
:10012000550901086D0901081D6302081D630208D5
:10013000850901081D63020800000000000000009E
:100140001D6302081D6302081D6302080000000011
:10015000000000000000000000000000000000009F
:100160001D6302081D6302081D6302081D63020867
:100170001D6302081D6302081D6302081D63020857
:100180001D6302081D63020800000000000000005B
:040190001D630208E1
:1001940010B5054C237833B9044B13B10448AFF3BD
:1001A40000800123237010BD502C002000000000AB
:1001B400589C020808B5034B1BB103490348AFF32D
:1001C400008008BD00000000542C0020589C020848
:1001D400034613F8012B002AFBD1181A0138704783
:1001E4000F4A002313700F4A13700F4B0F4A1B78EA
:1001F40063B10F4B1B88B3F5167F07D20D4901235A
:100204000B700D490B7064231380704713880BB176
:10021400013BF9E7074A1370074A1370704700BFA0
:10022400138200209B780020287800204082002040
:1002340026830020798200207A820020B14BB248C4
:10024400B2492DE9F04F00241C70B14B1C70B14B26
:100254001E78B14B321B18BF01221A700388AF4AB3
:10026400002B00F0D18115889D420BBF0A880C80B9
:100274000132138008BF0A80012B03D1A84A1370EE
:10028400022309E0022B0CD1A64B14221A8036B1AA
:100294000B88632B01D903230380BDE8F08F0E8004
:1002A400FBE7032B40F050819D4DDFF878C22B789B
:1002B40003EB83029200142AACF800201CD0282AF5
:1002C4001ED094083C3402F1F00E0A2B07D8DFF854
:1002D4007082B8F80080A04516D200240C8006B9BC
:1002E4000E800C88092C12D88F4A002313608F4A81
:1002F4001380002ED1D1C3E74FF0C80E2824E4E7C1
:100304004FF4967E3C24E0E7F045E6D8E7E7B4F501
:100314007A7F80F0F380C82ADFF80C82844AD8F808
:1003240000401288DFF81CA2DFF800E22244814C6E
:10033400C8F80020B4F800B0DAF80040A344BEF8CE
:100344000040CAF800B004F10104A4B28CBF4FF01D
:1003540064094FF496794C45AEF80040C9D302EBDA
:100364005402B2FBF4F9744A0BEB540BBBFBF4F4E8
:10037400CAF8004032F81340B4F57A7F2ABF4FF030
:10038400C80A4FF0050AB4FBFAFA04EB0A0BD94584
:100394001BD94C44640822F8134002880023032A22
:1003A400C8F80030AEF800300B8040F09D802A7809
:1003B40002EB8202322A614A05D96423ACF8003088
:1003C400042303800123137093E7A4EB0A0AD145A5
:1003D400DFD31FFA89F4012B22F8134008D102233A
:1003E4002B70538894880A339C42D6DC9380D4E7DC
:1003F400022B0ED15388A34202D966230380CCE793
:1004040003232B709388D4880A339C42C5DCD380A1
:10041400C3E703F1FF3A32F81AB0A3F1020A5C45CC
:1004240032F81AA001D26433E8E7ABEB0A0A1FFAE8
:1004340089F91FFA8AF7A9EB0B09CAF38D0AD1458A
:1004440001DAC833DAE7B9EB470F02DD03F5967337
:10045400D4E703F101090C2B5FFA89F90ED809F1ED
:10046400FF3332F8194032F8133085F8009003EB6B
:1004740057039C4291DC22F819308EE7A3F1050A58
:1004840085F8009032F81AA0A4EB0A04A4B24FF045
:10049400050A02EB4902B4FBFAF4CB464FF0000A1A
:1004A400BBF1310F0DD9BAF1000F08D0B9F1320FF9
:1004B400C3F1310388BF0023994485F800900A23CF
:1004C4009CE732F802ACA2441FFA8AFABAF57A6FB2
:1004D40028BF4FF47A6A0BF1010B22F802AB5FFAE2
:1004E4008BFB4FF0010ADBE70A2A03D13223ACF875
:1004F4000030FEE6074AACF8003064E700230B80C6
:10050400F7E600BF13820020588500204E850020A6
:100514009B780020287800207982002054850020D0
:100524005085002052850020488500204285002007
:10053400CA850020148300205C8500204D8500209E
:100544002683002044850020042B12D10B882F4AD7
:10055400B3F5FA7F06D21388142B8CBF053B142302
:1005640013809AE62A4B1B7803EB83039B001380CA
:1005740091E60A2B41D1254C2388322B02D9322310
:1005840023808AE60A2B08D90A88142A7FF685AEC6
:10059400013B238000230B807FE61E491E4A0B6823
:1005A40012681E4D13442A880B60013292B2632AEA
:1005B4002A807FF672AEB3FBF2F3194D0B606988A3
:1005C4008B4214D29AB28E1AB6B2B3420FD9AE8805
:1005D400C1EB4203721A92B2914288BFC6EB410644
:1005E4009BB288BFB2B293422B8038BF2A800023CB
:1005F400038023800B4A13704FE6632B7FF64DAEC6
:10060400024A00231380F5E71380C4E752850020D3
:100614005085002048850020E48500204285002084
:100624005C850020287800202DE9F047A94CAA4ACF
:100634002388AA48002B00F0D781A94D01212970F5
:10064400A84D2970118899420DBF0288138000219A
:10065400013214BF01800280012B04D1A24A13701D
:100664000223238024E0022B0CD1A04B32221A80D7
:100674009F4B1B78002B00F058810388632B17D9FC
:100684000323EEE7032B40F00681974E974F337810
:1006940003EB830292003A800288092A0AD8954A19
:1006A40000231360944A1380914B1B78002BD7D0FE
:1006B400BDE8F087B2F57A7F80F0EA808F4ADFF8F0
:1006C40034E21188DEF80020DFF84892DFF828C20F
:1006D40011448B4ABCF800801588D9F80020CEF864
:1006E40000101544874AC9F80050128808F101081F
:1006F400C82A88BF4FF0640A1FFA88F298BF4FF4E3
:10070400967A5245ACF80020CED301EB520105EBAA
:100714005205B1FBF2F1B5FBF2F2C9F800207A4AB6
:1007240032F81350B5F57A7F2ABF4FF0C8084FF05E
:100734000508B5FBF8F805EB080949451AD90D4435
:100744006D0822F8135022880023032ACEF80030C3
:10075400ACF80030038040F09280327802EB8202E1
:10076400322A6A4A04D919233B80042323800123B3
:10077400137099E7A5EB08084145E0D38DB2012B2E
:1007840022F8135008D102233370538891880A3316
:100794009942D8DC9380D6E7022B0ED15388AB4222
:1007A40002D966232380CEE7032333709388D1884C
:1007B4000A339942C7DCD380C5E703F1FF3832F826
:1007C40018A0A3F10208554532F8188001D2643309
:1007D400E8E7AAEB080889B21FFA88F9A1EB0A0135
:1007E400C8F38D08414501DAC833DBE7B1EB490FA3
:1007F40002DD03F59673D5E7591C092BC9B20BD852
:100804004B1E32F8115032F8133031700A339D42C6
:1008140099DC22F8113096E7A3F10508317032F81B
:100824001880A5EB0805ADB24FF0050802EB4102B4
:10083400B5FBF8F589464FF00008B9F1310F0BD933
:10084400B8F1000F06D03229C3F1310388BF002369
:100854000B4433700A23A5E732F8028CA8441FFA2C
:1008640088F8B8F57A6F28BF4FF47A6809F101095E
:1008740022F8028B5FFA89F94FF00108DDE70A2AB2
:1008840002D132233B800FE70A223A80204A6FE7E5
:100894000023038008E7042B12D10388134AB3F51D
:1008A400FA7F06D21388192B8CBF053B19231380BA
:1008B400FEE60D4B1B7803EB83039B001380DFE6FE
:1008C4000A2B61D109490A88322A25D932230B809F
:1008D400EEE600BF56850020548500204E8500209A
:1008E400728200205079002050850020348200203C
:1008F400798200204885002042850020CA85002096
:1009040014830020528500205C8500204D85002042
:1009140028780020448500200A2A08D90388142B4B
:100924007FF6C6AE013A0A8000230380C0E60B803E
:100934002E4A2F4912680B682E48134402880B6014
:10094400013292B2632A02807FF6B2AEB3FBF2F3B5
:1009540029480B6041888B4214D29AB28D1AADB2E9
:10096400AB420FD98588C1EB42036A1A92B2914215
:1009740088BFC5EB41059BB288BFAAB293420380EE
:1009840038BF028014236CE6142B0CD11B4B0A22B3
:100994001A800388B3F5FA7F7FF68AAE184B5A2281
:1009A4001A7015235DE6152B0CD1144B0A221A80FC
:1009B400028840F6C4139A427FF67AAE114A0023A5
:1009C40013804EE6632B7FF673AE0C4B0A221A801B
:1009D4000388B3F5FA7F7FF66BAE4FF47A73038026
:1009E400094B00221A7063E613809EE7E485002019
:1009F40048850020428500205C8500203482002048
:100A0400D1690020528500202878002007B54FF0D6
:100A1400FF338DF8070001220DF10701024827F08A
:100A2400CBFF03B05DF804FB8C2F0020314B324A1E
:100A34001B68B3F57A7F70B5304C0BD313782178EB
:100A44000133DBB2137004290AD8DFE801F0030A8A
:100A5400193144002A4900230B70012121701370BD
:100A640070BD27480021092B0170264B4FF480608C
:100A740001D89862F4E79861022323701170EFE7BC
:100A84001F480021012B017004D11E4B4FF400724A
:100A94009A62E5E7022B07D11B4B01221A70BDE8CD
:100AA4007040E220FFF7B2BF132BD9D90323E4E748
:100AB400134A164D002616702A784AB1144915486F
:100AC4004FF4806229F0B8F82E7004232370C7E72E
:100AD400642BC5D9F9E70A4B197811B901221A70A8
:100AE400BEE7F929BCD903212170002111701970C6
:100AF400B6E700BFE0840020EB690020EC69002029
:100B0400EA69002000100048E7690020E569002038
:100B1400F0690020F06D0020054A4FF48063936271
:100B2400C2F818384FF0904301229A62704700BF10
:100B3400000800482DE9F74F864B5A78864B412A26
:100B440030D100221A70854ADFF89CC2844F854E4A
:100B5400854D864C8648C82111801A7801232AB312
:100B64008CF800303B7033702B7023700370814B12
:100B7400814A824E40F6E4411180814A1360814BE0
:100B84003278002421461F464FF47A6CB3F802E011
:100B940033F8025B05F1640086454DDAA9B9788023
:100BA4000121F3E7422ACED10122CBE776498CF822
:100BB40000200270754A0B704B708B703B70337061
:100BC4002B7023701370724BD2E733F8040CC0EB14
:100BD400450080B2B0F57A6F40D3A3F800C001316C
:100BE4003129D3D16B4B197004B132706A4B6B4904
:100BF40064221A806A4BB1F800C0B1F80480022262
:100C04001A70684B1A78684B1C78684B1E78684BCE
:100C14001878684B0021B3F800E0B3F80490019110
:100C24008A460F468B460091012A1CD101283ED9E1
:100C340093460020002324E005F5C878C645CEDDA0
:100C44000029ACD033F8040CC0EB450080B2B0F5F9
:100C54007A6F03D34FF47A601880C0E701321880AA
:100C6400D2B20124BBE7022A4FF001031AD1012CAE
:100C740088BF002406F1FF3584BF01932346022D6B
:100C840017D8F44521BF4FF4E17E4FF0010A4FF02D
:100C9400960C0023C8450FD34FF4E17901214FF09E
:100CA4009608C1E7032AECD000931A46C2E713461C
:100CB400E7E701273E46BDE7002BB5D029B13D4B00
:100CC400A3F80490354BA3F80480BAF1000F05D0C3
:100CD400384BA3F800E0314BA3F800C00FB1334BFD
:100CE4001E70019B0BB1304B1C70BBF1000F01D087
:100CF4002F4B1870009B0BB12A4B1A702E4A0123FC
:100D040013702E4A13702E4A632111702D4A142138
:100D140011702D4A4CF2503111802C4A2C49137019
:100D24000A881A440A802B4A12780C2A09D12A4AC2
:100D34001278222A05D1294A117811B91370284A48
:100D44001370284B1B7813B1244B01221A7003B083
:100D5400BDE8F08F26850020638600207273002092
:100D6400707300206E7300206C7300206B7300207E
:100D740071730020709C0208548400204C8500206C
:100D84003C8500205C850020A98100205E82002033
:100D9400809C020850850020F6850020EE49002042
:100DA400D585002075820020738200207282002085
:100DB40074820020E849002043430020424300207D
:100DC400F4810020E1690020E26900200A72002019
:100DD400DE690020C4820020C3820020C682002075
:100DE400D0820020C58200206F73002030B50F4CE4
:100DF4000B7825880078AB420CD348B90133DBB2B9
:100E04000B702488B3EB440F03DB1070087000E010
:100E14000D7030BD0028F9D00133DBB20B7021888E
:100E24009942F6D801231370F3E700BF0478002039
:100E34001E4B0A2213B51A801D4B1E4C1B691E4AF9
:100E44001E4983F40043C3F3C0330DF107008DF84A
:100E54000730FFF7CBFF2369194A1A4983F48073DB
:100E6400C3F300230DF107008DF80730FFF7BEFF31
:100E7400154B164A1B69164983F04003C3F38013CC
:100E84000DF107008DF80730FFF7B0FF2369114A11
:100E9400114983F02003C3F340130DF107008DF8CB
:100EA4000730FFF7A3FF02B010BD00BF0478002095
:100EB400000C004800100048BF780020BE780020D5
:100EC400BD780020BC78002000080048BB780020D2
:100ED400BA780020B9780020B87800202DE9F74FBF
:100EE4009E4C9F4D22689F49002A40F0C8809E4B2B
:100EF400012018709D4E088836689D4FDFF814A3B2
:100F0400DFF81493DFF81483DFF814C3DFF814E375
:100F1400C0F347031E44B6FBF0F63E80954E964F51
:100F240036683F681E44B6FBF0F6AAF80060934E9C
:100F340036681E44B6FBF0F6A9F80060904E366899
:100F44001E44B6FBF0F6A8F800608E4E1F44B7FBB3
:100F5400F0F737808C4F8D4E3F681F44B7FBF0F796
:100F640037808B4F8B4E3F681F44B7FBF0F7ACF8CC
:100F74000070894F3F681F44B7FBF0F73780874FF5
:100F8400874E3F683B44B3FBF0F33380854B864F79
:100F94001B68B3FBF0F34FF0000CA1F800C08348CA
:100FA400834903800B78F88803440B7081497B885C
:100FB40008680344BEF800000B60013080B2B0F54D
:100FC4007A7F80F04C81AEF800007B497B4A0B6845
:100FD400F88818441388086001339BB2B3F57A7F0C
:100FE40013801FD3B0FBF3F000271780744A0F60FF
:100FF400744FB2F8B8103980734FB2F8C2203A80F7
:101004006E23009380B21E2310F060FC6F4B188097
:1010140023683BB164286E4A40F29C816D4B188072
:101024000A2313702B78DFF800C26B4933B16B4B82
:101034001B781BB10023CCF800300B805A4B1A8963
:10104400DCF800301A440B88CCF8002001339BB242
:10105400B3F57A7F0B80C0F0FA81B2FBF3F2584B00
:10106400B3F8BA1040F6E44359435D4BB1FBF2F1D7
:1010740018785C4B002800F07381198093E12B7879
:10108400002B7FF437AF584E30780A28574811D9CF
:101094003370574B01271F704FF47A7303800B880A
:1010A400002B40F0C380534A13880133138003B0EC
:1010B400BDE8F08F504F97F800C0BCF1100F03D972
:1010C4003B704B4B0227E6E74C4F97F800C0BCF14E
:1010D400100F03D93B70464B0327DCE7484F97F8C2
:1010E40000C0BCF1100F03D93B70414B0427D2E779
:1010F400444F97F800C0BCF1100F03D93B703C4B30
:101104000527C8E7404F97F800C0BCF10A0F03D980
:101114003B70374B0627BEE73C4F97F800C0BCF145
:101124000A0F03D93B70324B0727B4E7384B1F78BB
:101134000A2F04D900271F702D4B0827ABE72D4B2E
:101144001F8827B100271F80294B0927A3E703889D
:101154000BB1013BA2E726480370A0E7D48400202A
:10116400798200209A84002097840020248400201F
:1011740022840020E0830020288300209483002020
:10118400A8490020268300203483002030830020D7
:1011940018830020F8820020FC82002008830020AD
:1011A40004830020D085002088840020CA85002084
:1011B40062860020748400206884002064840020F7
:1011C40000F7FF1F5E8400205C84002062840020FE
:1011D400608400208E820020568400202673002024
:1011E40050840020548400208684002094840020AD
:1011F4009684002098840020858400203A8400206E
:1012040039840020F8830020F783002042830020E3
:1012140041830020DE83002090830020C049002009
:101224001483002070840020588400206B480378C5
:10123400002B3FF45FAE00230370694833700380D2
:10124400684803706848037068480370684803700E
:101254006848037068480370684803704AE6AEF84B
:1012640000C0C1F800C0002A3FF4AFAEB3FBF0F3F6
:1012740098B263286249634A09D805230B70624B0C
:1012840083F800C01378002B3FF49FAE12E00B7874
:101294000BB1013B0B7040F61C43984208D905235F
:1012A4001370594B32221A70584B00221A708CE674
:1012B400137813B1013B137087E6C828DFF848B1EF
:1012C40004D8E7238BF80030504ADBE740F2DE22F3
:1012D40090420FD819220092C92140F2DF2210F067
:1012E400F5FA193840B246288BF800002EDD474B3A
:1012F4000A22DBE7B0F5CF6F08D21922009240F240
:10130400DF214FF4CF6210F0E1FAEBE740F69113DE
:10131400984207D83223009340F6921219234FF4CF
:10132400CF61F0E740F64733984207D84B23009348
:1013340040F64832322340F69211E4E764230093E6
:1013440040F608424B2340F64831DCE73B283FF7A0
:101354003CAEB9E71378002B3FF464AE013B60E682
:101364001A882B4F002A37D08A422CBFA2EB010ED9
:10137400A1EB020EBEF10A0F3B7829D90BB1013B58
:101384003B700132234B0A442349C2F34F021A80B3
:101394000B6843B91E4B1B780F2B04D11F4B1A80CB
:1013A4001F4B1B680B601E4B1A6823689A4249D373
:1013B400184A1388B3F5616F3AD91A490A2008709C
:1013C40019490B8040F6E4411180184A138039E032
:1013D400132BD6D80133D3E738704EE69784002018
:1013E40098840020858400203A84002039840020D9
:1013F400F8830020F78300204283002041830020EB
:101404006E8400206D8400206F8400206C84002092
:10141400CE84002054840020D0840020CC8400207A
:10142400E084002050840020528400208E8200201A
:1014340040F6B7318B42C0D9002800F03B819E4B67
:10144400013818709D4A0023CCF8003013809C4B5F
:101454009C495A899C480B681A4403880A600133E2
:101464009BB2B3F57A7F80F07F81038097489849D7
:1014740002680B88974F13443A880360013292B292
:10148400B2F5086F00F296813A80934B934A1B7829
:10149400002B00F0CA8117880137BFB2C72F17800D
:1014A4001FD98F48B1F802C00368F92F6344036061
:1014B40017D93227B3FBF7F78A4B1B887B431B0BE7
:1014C4007A277B436427B3FBF7F3874F03F59673BF
:1014D4005B083B8000230360C8231380834B0122F5
:1014E4001A70834A08891368824918440B8810606B
:1014F40001339BB2B3F57A7F80F09F810B807E48E5
:101504007E4B02687E491B8813440A7803600132CB
:10151400D2B216060A701ED54033B3FBF2F3714AF9
:1015240012885343774A1B0B13800027764A0F70A7
:101534005B0004330A21B3FBF1F39BB213802268EE
:10154400076042B1A3F5F073282B704A40F2EF8193
:101554006F4B117019806F486F4903780A68BAF8A5
:1015640000700133DBB23A44F92B0A60037006D9E8
:10157400B2FBF3F2694B1A80002303700B606849D5
:10158400684A0878431CDBB2102B28BF002322F8DA
:10159400107000200B70034632F8021B013388429E
:1015A400DBB238BF0846102BF6D140F213135E4A63
:1015B4005E490093128809885D4FB42310F086F9C0
:1015C4005C4B5D4918803B880A6801339BB2024436
:1015D400B3F5007F0A603B8006D3B2FBF3F2574BAE
:1015E4001A8000233B800B60554F3978002940F066
:1015F400C181B0F58A7F534BC0F0A481524A19804F
:101604001368B3F5FA6F80F09981013313604F4F7B
:101614004F483A68B9F80030134402783B6001320D
:10162400D1B2304A017015882B4A0E06127840F167
:1016340062824033B3FBF1F36B43E8211B0B4B4352
:101644004FF49661B3FBF1F342494FF0000C9BB2A7
:10165400C7F800C080F800C00B8042B93E493F483B
:101664000A703F490A70017809B101390170216893
:10167400002900F040823A4F37483978B3F5E17FCA
:1016840040F22A8204298BBF344B01316421397022
:1016940088BF19700378002B40F07E843B78002BC0
:1016A40040F029822D490B78002B00F02482013B65
:1016B4000B7020E22B4A89E65084002056840020D7
:1016C400888400204C8400204A8400203484002034
:1016D4003C84002030840020184A00202C4900203B
:1016E40030490020548400202A4900202849002041
:1016F4001484002010840020F0830020FA8300204A
:10170400EE830020F4830020EC830020EA83002091
:101714008E820020B4830020B8830020B28300208E
:10172400BC830020BE830020A4830020A683002065
:10173400AA830020B0830020AC830020A88300206B
:101744009E830020A0830020307800208C8300201A
:1017540088830020868300208483002082830020E5
:1017640083830020528400204FF4FA73B2FBF3F217
:10177400934B1B885343934AC3F30F33138022685C
:10178400002707800F60002A3FF470AE40F6AC5289
:1017940093428D4A04D98D490B800A23137065E660
:1017A40040F6B7318B42F6D91378002B3FF45EAE86
:1017B400013BF3E74FF400623A804033844ADB098B
:1017C4001380844A0027076010889BB200F114023A
:1017D4009342814A10DD8148177003780A2B02D99D
:1017E400013B037051E67E4F3A78002A3FF44DAE38
:1017F400013A3A700A33F4E7143883420FDA77482F
:1018040017700378352B01D80133EAE7744F3A781F
:10181400062A3FF63AAE01323A700A3BE1E7137802
:10182400092B9CBF013313702FE66E48138003808D
:101834006D4A6E481370036053E6002717602268F0
:101844000F80002A3FF45BAEB0FBF3F080B2632854
:101854006749684A08D805230B70674B1F701378D3
:10186400002B3FF44CAE12E00B780BB1013B0B7034
:1018740040F6B833984208D9052313705E4B3222E0
:101884001A705E4B00221A7039E6137813B1013BCB
:10189400137034E6C828584F03D8E7233B70574ADF
:1018A400DDE740F2DE22904211D819220092C921CC
:1018B40040F2DF2210F00AF8193840B25528387087
:1018C40031DD4E4B0A221A70404B188017E6B0F5F2
:1018D400CF6F08D21922009240F2DF214FF4CF6279
:1018E4000FF0F4FFE9E740F69113984207D832234A
:1018F400009340F6921219234FF4CF61F0E740F6BB
:101904004733984207D84B23009340F6483232239A
:1019140040F69211E4E76423009340F608424B2317
:1019240040F64831DCE736283FF7E9ADB7E71378EE
:10193400002B3FF410AE013B13700CE6304B012238
:101944001A8064E6952808D82E4A19801368B3F5DE
:10195400FA6FFFF45AAE2C4BF1E71A88B2F5967F72
:1019640001D20132ECE7294B1960264B196001239F
:101974003B704CE62449DFF888E00B88BEF8002071
:1019840013439BB2002B7FF442AE214B214A1B78B8
:10199400127813437FF43BAE1F4F3A88002A3FD09E
:1019A400B32802D801233B8031E6B2F5967F2BBFE2
:1019B4001A4B01321B883A8028BF0B8027E600BFF0
:1019C4005484002048840020468400208E82002015
:1019D4002E840020CA770020C8770020CD7700200D
:1019E400CC7700202A4900202849002030490020D3
:1019F4000E8400200D8400200F8400200C8400201D
:101A0400347800202C7800203678002030780020AC
:101A140029780020C57700203A7800203878002003
:101A2400DFF8B0C02849DCF80030B0F58A7F1CD359
:101A34002A78AAB1893B03EB500342F21072934215
:101A4400CCF8003001D9AEF800000B68002B3FF44D
:101A5400DEADB433984234BF1B1A00230B60D6E5C5
:101A64006FF4897A53440344E7E753B10344B3F56D
:101A74008A7F23BF6FF4897E7344CCF80030CCF89E
:101A84000020B3280B68E0D895282A7814D812B916
:101A94000E4A128872B10A3342F2107293420B60FA
:101AA4007FF6B5AD01220A4B3A8000283FF448AFD7
:101AB4001880ACE56433EFE71AB12D33A3EB900340
:101AC400EAE7B4331B1AE7E72C780020C478002037
:101AD400387800203078002009B101393970C72BDB
:101AE40001783FF6D7AD63298BBFAD4B013164213B
:101AF400017088BF1970AB48AB4B0168AB4F1B89B1
:101B040024680B44397803600131C9B20E06397078
:101B140026D54033B3FBF1F3A5496B431B0B0B8074
:101B240040F25F214FF0000C4B43C0F800C0A3F516
:101B3400E113A04887F800C02F21A3F596530A2784
:101B440093FBF1F3043393FBF7F319B201803CB137
:101B540011F5C86F984880F22682984907700B8067
:101B6400914B97489989974F03680B4439780360E0
:101B74000131C9B20E06397018D54033B3FBF1F305
:101B840091496B431B0B0B8040F25F214B43A3F540
:101B9400E1132F21A3F5965393FBF1F38B494FF0F7
:101BA400000CC0F800C087F800C00B807E4B88484A
:101BB400D989884F03680B44397803600131C9B26D
:101BC4001F29397024D94FF0000C1033B3FBF1F303
:101BD4008149C0F800C06B431B0B4FF47A700B8033
:101BE40000FB03F11623B1FBF3F17A235943B1FB54
:101BF400F0F17A4887F800C00A230431B1FBF3F10D
:101C04008BB20380002C40F0D981754B7549196063
:101C1400B8F80010744B754869434FEA213EC1F38C
:101C24000F311980002A00F00282714A00230380D8
:101C34001360704B1B8823B1994240F23582CB1A52
:101C44005B006D4A13806D4BDFF81CC21F781CF8D3
:101C540007E0002C40F02C82694B1C70694B1C80FF
:101C6400694B1C70BEF1020F40F04683674B1B7832
:101C7400022B40F05783664B1A8842F21073B3FB71
:101C8400F2F3002B00F03683092B9AB203DC02EB4B
:101C94008202520092B2632AFBD95E4B5E481988D5
:101CA4005E4E03680B4431880360013189B291426E
:101CB40031800FD303EB5203B3FBF1F358490B808C
:101CC40000219BB20160318005330A21B3FBF1F39B
:101CD40054490B805448554B0168554E1B880B449E
:101CE40031880360013189B2914231800FD303EB13
:101CF4005203504AB3FBF1F3138000229BB20260FB
:101D0400328005330A22B3FBF2F34B4A13804B4B68
:101D14001A784B4B002A00F0088302221A701978B3
:101D2400484A002940F0D780474BDFF84081D888E3
:101D3400464ED8F8003003443078C8F800300130FB
:101D4400C0B20728307040F2FC820433B3FBF0F3D6
:101D54003F4831706B431E0B06803E48C8F80010A4
:101D640083423D48C0F0E78201230370DFF800E1BD
:101D74003A4BDEF800003A4E1B8803443078CEF824
:101D840000300130C0B20728307040F28180043343
:101D9400B3FBF0F333486B43C3F30F33038069E0C1
:101DA400828300207C830020FA8300207A83002031
:101DB4008083002078830020768300208E82002098
:101DC4006483002060830020688300205E830020F9
:101DD40058830020568300205C8300205483002015
:101DE40050830020A0860100BE490020BC49002089
:101DF400B8490020B4490020B2490020788200206C
:101E0400EC820020EA820020E88200207282002016
:101E140026820020308300200C78002008780020DF
:101E24001C780020248300201478002004830020E0
:101E3400107800201E78002012830020554C0020CA
:101E440068780020537800203C8400201984002006
:101E5400208400200050CE001884002088840020B4
:101E64007C8400207A840020758200201C84002059
:101E74008084002040F6E4404FF000088342CEF80E
:101E84000080A64886F8008040F2748364230370BF
:101E94000CB3307801281ED1A14B93F800E0A14B7C
:101EA40093F83860A04B1B785EEA030340F0F48398
:101EB400DFF80883DFF80893002E00F0618388F8C8
:101EC400003089F800309948002303709848037063
:101ED400984B00201870137897489E1E73427341E4
:101EE400037009BBDFF8DCE2944BDEF800005B8989
:101EF40003449348CEF8003006880136B6B2072E64
:101F0400068040F2CC848F4ACEF800100433B3FB31
:101F1400F6F36B430180190B11808B4A93428B4A71
:101F2400C0F0B6846423137089498A4B0A688A48CE
:101F34001B88134402780B600132D2B2642A027007
:101F440007D93233B3FBF2F3844A138000230370BE
:101F54000B60834B83491B880A886FF4F070034439
:101F64009BB2262B00F2DB867F4B1B88A3F28D539A
:101F74009BB29E2B00F2D3867C4B1B8803F23F63FB
:101F84009BB2C62B00F2CB86B2F5967F80F0C28658
:101F940001320A80FFF78BB8013BDBB20370002BE0
:101FA4003FF47CABA7E511F5AF6F3FF7D6AD0378EF
:101FB400002B3FF4D5AD013B0370D1E540F28B50CB
:101FC400834211D86A480368A3F28C5313FA81F34D
:101FD4004CF24F318B4203603FF61AAE65490A2337
:101FE4000B7065490B8013E640F22C6083420AD9DA
:101FF4005F480368A3F22C6313FA81F15F4B01601D
:102004009942EBD804E65B490B7813B1013B0B70A2
:10201400FEE557495A480B68834202D90A3B0B60D4
:10202400F6E5584883423FF6F0AD0A33F7E7564BDE
:102034001B781BB14FF461730380FAE5B0F800C05C
:10204400524F0CF1010C1FFA8CFCBCF57A7FA0F8FE
:1020540000C001D23A60ECE5BCF5FA6F3B6803D2EC
:1020640013FA8EF33B60E4E5DFF85CC13A604FF4A9
:102074007A7E03F5FA73B3FBFEF39BB2ACF800303F
:10208400A3F2DC53B3F5967FA0F800E0404804D9EE
:102094000A230370ACF80020CBE50378002B3FF44F
:1020A400C8AD013B0370C4E5BFF4CDAD5B1AC7E511
:1020B40038480378002B00F08D80374B1A78374B63
:1020C4001B781A430BD13648364900880B882728D9
:1020D4007CD840F6C312934211D801330B80324BA3
:1020E4001A6841F287339A427FF6BCAD2A4B1A78BC
:1020F4002E4B002A00F09D8064221A70B2E5BEF1D6
:10210400010F03D12A4B1B78022BE8D0294B1B78F3
:10211400002BE4D1284B01221A70E0E778840020D8
:1021240079820020344E00207A820020AA78002090
:10213400AB780020A87800205D490020FA830020B5
:102144006C830020748300200050CE006A8300203A
:10215400C4850020CA850020C8850020C0850020D1
:10216400EC830020E4820020548300207883002044
:10217400508300204C8300208E820020F04902000E
:10218400AA86010095860100C7490020B8490020AD
:1021940088490020E782002028780020C5770020A5
:1021A4003E830020EA820020E0840020EF820020A9
:1021B4004A860020D8820020D68200203F78002062
:1021C4006778002070830020B44900200A2B29D9A5
:1021D4000A3B83E7934B944E1B883278772B0DD8B8
:1021E400632A02D80132327005E0904B1B7813B990
:1021F4008F4B01221A708F4B00228DE7B42B07D925
:10220400632AEFD98C4A022111708C4A1380F2E7B9
:1022140012B1013A327062E786490B78632B03D816
:1022240001330B70824B77E701230A70327003701D
:1022340055E7187810B10138187013E5804B814ABE
:102244001988DFF854821368194498F80030116033
:102254000133DBB21F2B88F800307FF603AD10602A
:102264001031794AB1FBF3F1784B88F800008EB253
:10227400782E1E8013780AD9312B01D8013316E049
:10228400734B01221A706D4B1E80724BD4E7272EBC
:1022940004D8312BF2D96E4B0222F3E7502E04D925
:1022A400312BEBD96A4B0322ECE713B1013B1370DA
:1022B400D8E4694A1378092BE0D9684A13881BB912
:1022C4001680644B012218E76548007889B248B14A
:1022D400481C984201DA013B02E001338B42F0DAF8
:1022E4001380EEE7C81C9842F5DBD81C8842E8DA74
:1022F4000133F5E70122CAE4BEF1030F12D1594BB1
:10230400594A1B78D25C042A0CD1584A32F813304B
:1023140042F21072B2FBF3F2B2F5FA7F7FF6BDAC73
:102324005208F9E74FF40072B7E41A78002A3FF430
:10233400F6AC013AF2E40378002B3FF417AD013B0D
:1023440013E5002C3FF412AD01287FF40FAD484B88
:10235400484E93F800A03678474BDFF834B11B7829
:102364005AEA060642D1002B42D1444BDFF81491BD
:10237400B3F8008099F80060414B1B784EB3B8F174
:102384004B0F05D91D2B08D801333D48037004E0D9
:102394000BB1013BF9E789F800103A4B3A4E187833
:1023A400364B70BB3070394E1B883070384E96F8FF
:1023B40000E0BEF1000F40F0CB80BAF1000F00F056
:1023C400D68040F6FC00834240F2C680012333707D
:1023D400C2E0A8F14C08B8F1350F04D81D2BD3D9AD
:1023E40089F80000D9E7002BD7D0D2E7002BD4D04E
:1023F4002648002303708BF80030264B0020187009
:10240400B4E400203070214E8BF8000030781B8833
:10241400DFF88880002843D1E52B61D888F80000D4
:1024240044E000BF26830020EC820020D8820020F4
:10243400D6820020E8820020D78200208E820020ED
:10244400F8820020F482002010830020F082002013
:1024540011830020ED820020EE820020E282002021
:10246400C5770020F58100206F820020B68100200E
:10247400798200207A820020344E002020840020BB
:102484005B7800205C780020584C002056780020AF
:102494005578002054780020F282002059780020DA
:1024A400B3F5E76FA74815D905230370A64B98F831
:1024B40000901878DFF8D482484545D198F8003068
:1024C4000133DBB2FA2B88F8003016D9F02388F8F0
:1024D400003092E703780BB1013BE6E73370E5E7A0
:1024E400B3F5137F03D8012388F80030DEE7B3F592
:1024F400E76F34BF02238023F6E74FF05008B3FBA5
:10250400F8F908FB1933DBB2052B7FF476AF00280A
:102514003FF473AF802802D1012333706DE7BEF11D
:10252400020F03D002230CF8073066E7012805D117
:10253400864B1870864B642018705EE702287FF47F
:102544005CAF844B0120F4E783F800900023BEE7DE
:10255400B3F57A7F00D230701378002B7FF44DAF3F
:102564003378002B3FF402AC7B4B012047E7B3F5F3
:102574002F6F29E70378002B3FF48AAC013B86E4F4
:10258400764B99F800A098F800601B88BAF1000F08
:1025940018D0734E782B307811D91D2801D801300A
:1025A4003070704B92F8009018786F4B002877D1F8
:1025B400B9F1020F74D018706C4B187074E020B32A
:1025C4000138EDE796B1FB3B694E9BB240F29C7932
:1025D4004B45308804D81D28E3D801303080E0E72B
:1025E40008B10138FAE788F80000DAE7DFF870A1EB
:1025F400A3F1790BBBF1260F9AF8006008D81D2EC1
:1026040003D801368AF80060CBE789F80000C8E7F0
:1026140016B1013E8AF80060A3F1FB06B6B240F29F
:102624009C794E45BDD8DFF84891B9F80060B6F5FD
:10263400967F03D20136A9F80060B2E7B3F5DE7FD6
:1026440018D340F2912083421CD9B3F55C7F1BD987
:1026540040F26A40834219D940F27150834217D93B
:1026640040F28B60834215D940F2A570834294BF37
:10267400072008203F4E30703F48012388F800307F
:1026840003808EE70220F5E70320F3E70420F1E757
:102694000520EFE70620EDE7002E7FF414AC80E779
:1026A40000261E70354B1E702C4B354E1B8896F839
:1026B40000A0002800F0C680DFF8B080314E98F802
:1026C40000E0BEF1000F25D040F6351E7345DFF85B
:1026D400C0E017D905238EF800302B4B96F800B0D4
:1026E4001E78DFF8B0E05E4540F0A8809EF8003028
:1026F4000133DBB2FA2B8EF8003054D9F0238EF874
:10270400003065E09EF800300BB1013BE3E788F848
:102714000030E2E7B3F5897F02D286F800E0DCE717
:10272400B3F5127F02D201233370D6E7B3F5757F78
:1027340001D20223F8E740F2EA5E73452CD8042361
:10274400F2E700BF5A78002058780020F471002086
:10275400AC860020F3710020547800207A84002095
:102764006678002067780020574C0020AA78002063
:10277400407800203E7800203C780020AB78002090
:102784003F78002064780020637800205778002088
:10279400657800206278002040F6341E734594BFAB
:1027A40008238023C0E74FF0500EB3FBFEFB0EFB63
:1027B4001B33DBB2052B0BD156B1802E01D1012383
:1027C4004DE01CF80730032B11D003230CF807301D
:1027D40040EA09005AEA00007FF47AABA04B1B7868
:1027E400002B3FF478AB9F4B0120FFF773BB013EF6
:1027F400072EEDD801A353F826F000BF21280008C6
:102804002F280008D527000839280008D5270008F4
:10281400D5270008D52700083D280008924B01263B
:102824001E70924B64261E70D2E7914B01261E70D7
:10283400904BF7E7904BF2E7904BF7E783F800B043
:1028440000235CE7DFF8188298F80060BAF1000F03
:1028540013D03EB140F69706B342B9D8002388F8A6
:102864000030B5E7BEF1000F04D040F6FC06B342D9
:10287400AED9A4E740F6C416F9E71EB1B3F57A7FE2
:10288400ECD3A5E7BEF1000FEFD1B3F52F6FEFE75F
:102894001378002B3FF448AB013BFFF744BB002CFB
:1028A4003FF442AB012E7FF43FAB754B754C187867
:1028B4002478754B044393F8703040F0B180734C26
:1028C4005BB1734B217019701170724B00221A7036
:1028D400644B00221A70FFF727BB6F4BDFF8E8E167
:1028E40094F800801D889EF80030B8F1000F30D0B5
:1028F400782D117009D91D2B02D801338EF80030C0
:10290400634900230B70137046E00BB1013BF5E7FC
:102914002170624C167823785EBBA5F1A60189B2BA
:1029240040F28D75A94278D8632B26D95C4B1B885D
:10293400272B31D95B4B196840F6AB5399422BD9FD
:10294400534C23781BBB0121217057490B70574905
:102954001BE0A5F17901262907D81D2B03D80133E3
:102964008EF80030D5E72670CAE7002BD1D0013BA2
:10297400F6E7A52D04D91D2B0ED8013323700BE0E7
:102984000BB1013BFAE7424913700B7004E00A2BC8
:102994002DD102231370267092F80080B8F1000F35
:1029A40002D0434B00211970384B1C783A4B1B88DA
:1029B400002C00F0DC803F483F4D0178002938D0DE
:1029C40040F635118B423D492DD905230B703C4B04
:1029D4002E781D783B49B54240F0C6800B78013310
:1029E400DBB2FA2B0B7078D9F0230B7082E0142B36
:1029F40001D10123CEE7642BCED12C490B780133CE
:102A0400DBB2642BC1D900230B7027490B78092B47
:102A1400C2D8012525702B44B7E7002BBCD0B0E702
:102A2400002BB9D051E70B780BB1013BCEE7037013
:102A3400CDE7B3F5897F01D22970C8E7B3F5127FDA
:102A440002D201232B70C2E7B3F5757F01D20223B2
:102A5400F8E740F2EA518B4238D80423F2E700BF8A
:102A6400AB780020A8780020F4710020AC86002008
:102A7400F2710020A6860020F3710020F17100207D
:102A8400798200207A820020344E002059490020A7
:102A940049490020644900207483002052780020B2
:102AA40026830020E08400203A4900203949002090
:102AB400564C0020584900205F78002060780020A0
:102AC4005E7800205D7800206178002040F63411A3
:102AD4008B4294BF08238023B4E75021B3FBF1F663
:102AE40001FB1633DBB2052B04D11DB1802D0DD1B2
:102AF40001230370137823437FF4EAAE8B4B1B78D6
:102B0400002B3FF411AA8A4B0122E3E61CF807309C
:102B1400032B03D003230CF80730EBE76B1E072BC2
:102B2400E8D801A151F823F04D2B00085B2B0008D5
:102B3400F92A0008652B0008F92A0008F92A000878
:102B4400F92A0008692B00087A4B012119707A4B85
:102B540064211970CEE7794B01211970784BF7E79E
:102B6400784BF2E7784BF7E71E7000233DE7DFF878
:102B7400BCE19EF80060B8F1000F00F0B680734924
:102B8400734D002E4ED040F6FB06B34252D88EF859
:102B94000040704E96F800E0BEF1000F4FD1DFF810
:102BA400C881DFF8C891D8F80060DFF8C4A13344C5
:102BB40099F80060C8F800300136F6B2092E89F899
:102BC400006008D90533C8F800E0B3FBF6F389F8D0
:102BD40000E0AAF80030BAF800605F4BB3FBF6F3EC
:102BE40040F22E26B3425D4E2FD8002333800023BB
:102BF400FB26734341F26216B3FBF6F31CF807603D
:102C0400B1F800C0564F022E08BFC3F1FA039EB2BA
:102C1400BCF1000F30D10A232B703E804FF47A733D
:102C24000B8067E770B140F6FC06B342B1D90123CB
:102C34008EF80030B8F1010F01D102231370002384
:102C44002B70EDE740F6C416EFE7A3F22E2341F212
:102C5400F81843451FFA83FE04D8962B03D8A6F828
:102C640000E0C4E74346963BA6F800E041F2621652
:102C7400B342BDD1FA23C1E7002838880CBF4FF016
:102C8400030E4FF0050E00EB0E08984503D20A23FD
:102C94002B703E802EE79E448645F8D32B780BB1EB
:102CA400013BF5E7ACEB000C06EB0C039BB240F2E6
:102CB4001A45AB4205D940F2ED330B80431C3B80EF
:102CC40018E740F20645AB4201D9013BA8E740F2C0
:102CD400B535AB4204D840F2E3330B80431EEEE734
:102CE400B3F5757F38BF01339AE736B1B3F57A7F10
:102CF400BFF400AF8EF80040FCE640B140F6FC01A2
:102D04008B427FF6F7AE01238EF80030F2E6B3F57E
:102D14002F6FF6E7134B01221A70FEF7C8B912B1F0
:102D2400013AFFF736B90F4BF6E700BF64490020BC
:102D3400A8780020F4710020AC860020F2710020F5
:102D4400A6860020F3710020F17100204C78002049
:102D54004E780020AB78002060900F00427800206D
:102D640050780020E6820020487800204678002031
:102D74004478002010B49A4B1B780C3B542B00F27F
:102D8400B781DFE813F055005D00B501B501B50169
:102D9400B501B501B501620067006C0071007600F1
:102DA4007B00800085008F00B300B800BD00C20026
:102DB400C700CC00D100D6008A00B501B501EF00F0
:102DC400B501F700B501B501B501B501B501B5010E
:102DD400B501B501FE00B501B501B501B501B501F7
:102DE400B501B501B501B50106010E01B501B50185
:102DF400B501B501B501B501B501B50115011D0157
:102E040024016F017601B501B501B501B501DB00FF
:102E1400E300AE01B501B501B501B501B501B501D8
:102E2400B501A7017D0184018B0192019901A001E3
:102E34006C480523692200215DF8044B16F0DABEC4
:102E44000023694801221946F6E7012367486422F2
:102E54001946F1E76648012364220021ECE765483E
:102E6400012396221421E7E7634801236422002109
:102E7400E2E762480123C8220021DDE7604801231C
:102E840050221421D8E75F48012364220021D3E7AC
:102E94005D480123FA220521CEE75C480A23642217
:102EA4001421C9E75A4B1B88B3F5FA7F18D80DD102
:102EB400584B1B78002B14BF0A236423544842F256
:102EC400107205215DF8044B16F008BF322B09D8A7
:102ED4000AD1504B1B78002B14BF01230A23EDE7C2
:102EE4006423EBE70A23E9E70123E7E74A480123E0
:102EF4004B221921A0E749480123502214219BE7C2
:102F0400012347481A46002196E746480123322206
:102F1400052191E7444801235F2250218CE70123D6
:102F240042481A46002187E741480123FA22052135
:102F340082E700233F48012219467DE73E4B3F4C80
:102F4400187801231E221946204475E73A4B3C4C5D
:102F540018780A2201236FF0090120445DF8044B1C
:102F640016F0FEBE344B374C18780A2201236FF05A
:102F74000901F2E7304B344C187801231E2219461C
:102F8400E2E72D4B314C18780A2201236FF0090136
:102F9400E3E7294B2E4C18780A2201236FF009012C
:102FA400DBE7254B2B4C18780A2201230021CBE7C1
:102FB400214B294C18780A2201236FF00901CCE730
:102FC4001D4B264C1878002301221946BCE71A4BE6
:102FD40023481C7832220123052100EB440071E7C9
:102FE400D1770020598200205882002033820020AB
:102FF4003282002031820020308200202F82002083
:103004002E8200202D8200202C8200202A82002083
:1030140026820020F67100202482002023820020D2
:103024002282002021820020208200201F82002092
:103034001E8200201D820020F58100209C59002062
:10304400AC810020CB81002099590020C881002048
:10305400C58100209F590020C28100206E8100207C
:10306400B6810020244B254C18785A2201230A21CA
:103074006AE7214B224C18785A2201230A2163E77C
:103084001D4B204C18786422012300215CE71A4B65
:103094001D4C187896220123142155E7164B1B4C1E
:1030A40018786422012300214EE7134B184C18783A
:1030B400C8220123002147E70F4B164C18785022F1
:1030C4000123142140E70C4B134C1878642201238C
:1030D400002139E7084B114C1878FA220123052105
:1030E40032E7054B0E4C187864220A2314212BE78F
:1030F4005DF8044B704700BFF5810020B2810020C9
:10310400AF810020A6810020A3810020A08100209F
:103114009D8100209A81002097810020C580002095
:10312400948100202DE9F84F924B1B781F2B15D06A
:10313400914B1B78643B012B10D9904C2378D52BF1
:103144000CD08F4A11788F4A1278114306D1C82BBC
:1031540061D005D8022B07D90B2B05D0BDE8F88F19
:103164002E33DBB2022BF9D82178022903D1864B06
:103174001B78002BF2D1DFF8A0A2DFF8A0929AF816
:10318400003099F80020DFF89882DFF830B27F4EE3
:1031940013434FF000077E4A7E4B88F800700AD034
:1031A4009BF80050307855EA000C1FBF15708BF85F
:1031B400007018703770107893F800E050EA0E052C
:1031C400754D0DD0754FDFF85CC238700B294FF088
:1031D400000010708CF800E018703FD1FFF7CAFDB2
:1031E4009BF8003032786E4F53EA020100F071818F
:1031F4006A482478DFF82CC203700B2C4FF00003CC
:103204008BF800308CF80020337040F08C80037011
:103214008CF800305DE1634B634A1B7812781343EA
:10322400624A12781343624A12781343614A12784D
:103234001343614A12781343604A12781343544A81
:1032440012781343514A12781343524A12781343A3
:103254001FBF5B4B1A782270197085E7594A13789F
:103264000A2B01D0052B01D100231370564B1B7878
:103274003BB1564801234FF47A62002116F02EFD2B
:10328400AEE7534B1B78012B08D113705149524AB6
:1032940009881288514816F0ADFCA1E7022B07D12A
:1032A40013704F494F4A098812884F480123E5E7B4
:1032B400032B95D14D4908784D49095C012909D161
:1032C400062313704B4F4C4A0B464C49127809782D
:1032D4003844E0E7022915D11370494B1B78012BC0
:1032E40007D140F6AC532B8000233B708CF80030A0
:1032F40076E7444A444912880988444F012307EB7E
:103304004000BBE7033901293FF66AAF0423137079
:103314003B4B1B78012BE4D03A4A3B49128809887D
:103324003B4F0123EBE7274A1378591E032901D9A0
:10333400062B01D100231370234B197839B123488C
:1033440001234FF47A62002116F0C8FCC1E0D42CAA
:1033540000F0BF801378002B40F0A2801C4B1B7838
:10336400012B61D12B4B1B78002B70D10A231370D6
:103374006DE000BFC0780020C4800020DA77002010
:10338400CF820020C5770020D8770020F27100207A
:10339400F3710020F4710020F8710020F571002011
:1033A40020780020BF780020BD780020BB78002062
:1033B400B978002001720020FD710020F171002015
:1033C400D97700205F82002040850020F885002006
:1033D400758200204E8200204C8200205D820020F5
:1033E400288100202481002034820020F5810020DF
:1033F4006F820020D9810020D7810020D88100204D
:10340400A94A00208081002082810020EC810020D4
:10341400E681002074820020187F0020177F00209E
:10342400F0710020F6710020032B10D1544B187852
:10343400544B1B5C012B27D105211170524C534A6C
:1034440053491288098804EB400016F047FC012315
:1034540088F800304F4A40F6B83313803B8099F81F
:1034640000209AF80030134340F086804A4B1978C4
:1034740040F6AC5240F6C413002908BF13462B8013
:10348400464B01221A7069E6022B01D132236EE702
:10349400032B01D13C236AE7042BD8D1462366E7EA
:1034A4000A2B24D13E4B1B786422C3F5DC705043B5
:1034B400B0FBF3F06328D8BF82B20523394816F075
:1034C40099FB384A05211378B3FBF1F303EB83032B
:1034D400137098F80030002BBCD13B880BB1013B32
:1034E4003B80314A1378002B40D12B8036E6052BE4
:1034F4000AD1234B254A1C78254923481288098878
:10350400012300EB44001FE7322B13D1274B1B7818
:10351400012B04D140F6AC532B80002377E6184BE3
:10352400234C1878142201236FF01301204416F061
:1035340017FCCEE73C2B0BD11C4B1B78012BE9D09D
:103544000F4B1C4C1878142201236FF01301EDE784
:10355400462BBED1154B1B78012BDBD0084B164CE8
:103564001878142201236FF01301DFE72B880BB1C5
:10357400013BBAE71370F1E54FF4FA537FE700BF5C
:10358400F58100206F820020E0810020DC81002092
:10359400DE81002022780020798200205D4A00200C
:1035A4005D8200205C8200205F820020A94A002006
:1035B400D4810020D1810020CE81002008B5FDF700
:1035C40037FC16F031FA16F049F91E4B1E4A1B78E7
:1035D400127813431D4A127813431D4A1278134379
:1035E4001C4A127813431C4A127813431B4A12785C
:1035F40013431B4A127813431A4A127813431A4A84
:10360400127813431EBF194B4CF250321A80184BD8
:10361400184A1B7812781343174A12781343174A2F
:10362400127813431EBF114B4CF250321A80FFF72D
:1036340079FD134B1B781BB10C4B4CF250321A80A2
:1036440008BD00BFBF780020BD780020BB780020F3
:10365400B978002001720020FD710020FF71002064
:10366400FB710020FE710020FA710020E269002045
:10367400F1710020F2710020F3710020F471002038
:103684007A82002010B5FFF799FF354B1B781BBBDE
:103694003448354B02693549C2F3C0021A700C69CB
:1036A400240644BF02321A700269500642BF1A78D7
:1036B40004321A700A692E49920442BF1A780832F9
:1036C4001A702C4A1878137883423DD10A88B2F5CF
:1036D400FA7F11D201320A80274B28491B882848D7
:1036E400002B35D0DA0B0A704FF47A720280254A27
:1036F400C3F30B03138010BD2349DA4302F0010224
:103704000A7013F00201214A03F0040310D0117867
:10371400A9B901211170002BDED01D4A11780029AE
:10372400DAD01C4B1B788B42D6D101331370D3E70C
:103734001170194A03F0FF0123B10123F6E70129AF
:10374400F7D1E8E71170C7E7002310700B80C3E7D7
:1037540002881AB1013A02800B70CCE70A70CAE7FA
:1037640079820020001000487F8200200008004871
:103774007C8200207E8200208E5900208759002000
:103784008A5900208859002006780020CF82002022
:10379400CE820020CC820020D8820020274A38B56F
:1037A400136923F0010313610DF0F6F80DF0B2FA7A
:1037B4001DF0B4FD0EF042F8FDF790FBFFF762FF39
:1037C4001F4B1B780BB11BF0D3FE0CF0D5FC1D4D29
:1037D4001D4C18F061FF15F04DFF17F0A1FE0EF01F
:1037E400FDF81A4B2A68196819481144228829607F
:1037F400013292B2B2F57A7F22800AD3B1FBF2F1A0
:10380400144A118000221449228004882A600C8002
:1038140002801A68018891423CBF1A680280074AF4
:10382400526A1A601A68002ABEBF1A6802F57A72D0
:103834001A601A6892B21A6038BD00BF00100040C6
:1038440063860020B0840020B4840020D884002043
:10385400AE840020AC840020AA84002093489449BC
:1038640003880A88F0B5002B40F00B81914C924DEF
:1038740026682360914C2E60914D26682360914CFC
:103884002E60914D26682360904C2E60904D2668E2
:103894002360904C2E60904D266823608F4C2E60E0
:1038A4008F4D266823608F4C2E608F4D26682360D1
:1038B4008E4C2E608E4D266823608E4C2E608E4D6D
:1038C400266823608D4C2E608D4D26682E60236003
:1038D400028001230B808B4B1A6811070BD508213A
:1038E40059604FF0A0418B6843F004038B60864914
:1038F4000B7801330B70930740F1C680814B032290
:103904005A60824B1A88824B5A804FF0A0429368C7
:1039140043F0040393607F4A11680F070AD57E4879
:1039240008235360836843F0040383607B4803786F
:10393400013303708E0740F1AC8079495D488C886F
:10394400C98803235360774B1C80036823440360B6
:103954006F4B198070498B6843F004038B601168C6
:103964000D030BD570484FF400235360836843F074
:10397400040383606D480378013303708C0340F1C2
:103984008F804FF440335360694B4C4869499C889D
:103994000C800168214401604A486749DC880C8036
:1039A4000168214401605A4958898880474863491D
:1039B4001B8A0B8001681944016061490C886149C4
:1039C4004FF40070002C69D0A34288610BD95E4982
:1039D4005E488B6B9BB2322B8CBF323BA3EBD30381
:1039E4009BB203808B6350498B6843F004038B6064
:1039F400116808060AD5564880235360836843F04B
:103A04000403836053480378013303708B0640F149
:103A14002581514C5149B4F800C0A5880988302348
:103A240053604F4B0CEB05061A8876105643B1EBE6
:103A3400163F4FEA163340F2A18040F2DC5673433E
:103A4400B3FBF1F3234F3E681E443E60454F0A2604
:103A54000433B3FBF6F39EB23E80204F386810FA6D
:103A640083F33B60404B67881B78E488002B40F06D
:103A740091803E4B1B78002B40F0A0803B195B10DB
:103A8400A0E0531C9BB225E7394A13780133137025
:103A940041E738490B7801330B7060E78862A2E78D
:103AA40035490B7801330B70A2E700BF9A840020DC
:103AB4009C8400202884002024840020E4830020A7
:103AC400E08300209883002094830020AC490020E8
:103AD400A849002038830020348300202C83002050
:103AE400288300201C8300201883002000830020EA
:103AF400FC8200200C83002008830020CC85002059
:103B0400D0850020000002408584002088840020A5
:103B1400484C002000040240000100503984002079
:103B24003C8400202C84002000040050F7830020F3
:103B3400FA830020E88300209C830020B049002001
:103B44008249002000040048004001407C490020D4
:103B5400000500504183002044830020DC820020C3
:103B6400548400203E83002008820020028200202A
:103B7400868400203A840020F88300204FF47A766B
:103B84005B1A7343384E3688761AB3FBF6F303F2A6
:103B9400DC5357E7AC45604638BF28465043B1EB89
:103BA400103F4FEA10333DD940F2DC504343B3FB9E
:103BB400F1F30A21B3FBF1F32C490B80A7423B46F6
:103BC40028BF23462A485A43036803EB1233036091
:103BD400284B1B78110B73B1274B1B888B422DD8B4
:103BE400C91A4FF4AF625143244A1288D31AB1FB65
:103BF400F3F101F164032249224A13800A681A444A
:103C04000A6005330A22B3FBF2F31F4A13801F4AEA
:103C1400116811FA83F313601D4A936843F0040397
:103C24009360F0BD5B1A4FF47A7043430E480088EA
:103C3400411AB3FBF1F303F2DC53BAE7B6F5167F8E
:103C44000AD8144A12888A4206D2891A6420414347
:103C54009B1AB1FBF3F3CEE70023CCE70E4A1378AB
:103C640001331370D8E700BFDA8200203C830020C0
:103C74000083002028780020E0820020DE820020DB
:103C84000C83002020830020228300201C8300203A
:103C940000050050E2820020428300202DE9F74F06
:103CA400844B1A78844BB2B91A80844B84491A70B5
:103CB400844B0A701A80844B1A60844B1A60844BBC
:103CC4001A60844B1A70844B1A80844B01221A7038
:103CD40003B0BDE8F08F82480778002F37D07F4AC1
:103CE400794C012111707F4A11887F4A3B2912883F
:103CF40021D87E4D2D881D807D4D2D88B5EB121F5A
:103D04001DD36F4D01262E707A4D2E882568AE4244
:103D1400DED2794D2D888D426C4915D20D68052D62
:103D2400D6D952081A80654A002313700370684A72
:103D340023600B6006E0B1F5167F1A80DCD90023FE
:103D4400624A23601360C3E700230B60C0E76B4D36
:103D54005A4C297822785A4E63294DD95F4801215B
:103D6400092A01703170584806D80A222270574A2D
:103D740007601760564A1760614A62491288624CAC
:103D8400052A38BF05220A805749098821805F4CDB
:103D940002EB420626800468561FA64201D9198008
:103DA40096E794420BD819800A23B1FBF3F14D4BEB
:103DB4003B311B8889B28B428AD8066088E702EBC4
:103DC4005202002194421980414A404B02D21960A8
:103DD40011607DE7434C2488272C0BD81B68042BE7
:103DE40000D901601368B3F5FA6FFFF471AF0023D3
:103DF4002B706DE71960F5E74FF0020C86F800C0F0
:103E04000A2A01F2B583DFE812F00B00D20097050D
:103E1400B30BB30BB30BB30BB30BB30BB30BA80BB9
:103E24002E4A012515702F4A16883B2E1CD8274A86
:103E34001268142A05D92C4A12881A80224A0021B1
:103E440011601A88012A3FF443AF314909780029E7
:103E54007FF43EAF2F4909888A42A0D32E490988AE
:103E64008A427FF635AF9AE7B6F5167F1988184A65
:103E740009D911681429E4D9057013480021016097
:103E840012480160DCE700201060244A0F4F1288BA
:103E940038608A420C4843D2142988BF05391D4A28
:103EA40088BF198012881988914238BF1A8000226D
:103EB4000260C6E728780020B05900204A86002016
:103EC400F94800203E7F00204486002040860020E0
:103ED4003C8600203A810020388100201A490020C5
:103EE400788100203E8300207681002074810020A8
:103EF40022830020C2800020BE800020BA800020DF
:103F0400C0800020B8800020B4800020B68000204B
:103F14003D800020FA7F0020FC7F00204E8000209E
:103F24009B4F02683F88B7423CD20A2A89D9994AF2
:103F34001278012A32D82570974A1088974A148833
:103F4400974A1480974C00222280974C2270974CF9
:103F5400218097490C8897490C8097490A609749B2
:103F64000A6097490A7097490A6097490A60974915
:103F74000A7097490A70974942F210740C80964966
:103F84000A6096490A6096490A6096490A60964A08
:103F94001080964A1188964A118052E7022A08BF77
:103FA4002270C9E7002A3FF44CAF013A80E7914AF6
:103FB400914D1088914E2A689149B0F5167F58D9D1
:103FC400B2F57A7F34D90A2222703278002A3AD0A4
:103FD4008C4A8D4F1588B7F800E00135ADB21580D5
:103FE4006D4AB2F800C0894A128864240CFB02F2BC
:103FF400B2FBF4F2864C24881FFA82F80934854A0D
:10400400AC42A2F800804FEA5C02C0F2248103248F
:1040140096320C7090420C7840F27B81022C00F2B4
:10402400358101340C700EEB000252103A805DE0D1
:10403400142ACAD9002232706D4A1488764A158827
:10404400A54200D214801A88312A05D8594A148806
:10405400574A1288944211D24F4A1488A4083C3417
:10406400A0420A7880F0F280022A09D801320A704C
:1040740032E00A2A84BF0A3A2A60A6E73C24EFE722
:10408400494CDFF830C1012222705E4C327022802C
:10409400414A624E1588424A1580614A00241470D0
:1040A400594A347810805A4A1288002A5ED1ACF8F2
:1040B40000205C4D3B4F2A8000223F4D0A7044494A
:1040C4002A603D880A70434A013542F210713D80EE
:1040D40011800CB1621E327053490A88092A9CBFB0
:1040E40001320A8051490A8801320A80B0F5167FEC
:1040F4003FF6A7AE2C4ADFF8BCC092F800E0BCF84B
:1041040000704B4DBEF1000F00F09B81404A4949BD
:104114001288BA4240F209817A1CACF80020414A64
:1041240012881A8001220A70434C297822680029D7
:1041340000F00084414909880A444148226001880A
:10414400013189B2C72901807FF67BAE2D4D2D88C0
:10415400012D03D0B1F5FA6FFFF473AEB2FBF1F2A7
:1041640038490A800022028022606AE60B4F3F88A9
:104174000437AF4202DA002C08BF0022ACF800205A
:10418400314A12886A436425B2FBF5F292B290E791
:10419400B2800020367C002022830020FA7F002099
:1041A4008C8000209A800020A68000208A80002035
:1041B4004280002098800020948000207C80002091
:1041C40075800020708000206C80002074800020A6
:1041D400848000203C8100206480002060800020D6
:1041E4005880002054800020508000204A80002005
:1041F4004C8000203E83002044860020A7800020BD
:104204008E800020A4800020788000204080002040
:10421400488000203E800020368100203A81002022
:104224002C80002044800020A08000209E8000205C
:10423400928000203D800020A88000203280002051
:10424400AC800020AE80002046800020002A3FF48D
:1042540043AF013A0BE70EF13C04844203DA032432
:104264000C703C32D6E6AB4C2478012C01D196324A
:10427400D0E6DFF8E892B9F80090B9F1130F03D94A
:10428400022C1CBF03240C705032C3E6A24C002243
:10429400132D327022702AD8A04A1288A04CA14E45
:1042A400228001243480A04E348000240C7099496B
:1042B4009E4E0C709E493460A1F800C09D4C9E49EE
:1042C4002488C72D98BFA1F800C00D8804F11306F7
:1042D400AE42A4BF14340C80984C2080002A7FF492
:1042E400A2AE8E4A12886AB1A3F800809BE6944A73
:1042F4001278002AD2D0894A1288002ACED0013AF4
:1043040092B2CBE70A880A21B2FBF1F1521A1A8061
:1043140089E60CB1013C0C708A4AC72DA2F800C092
:104324009CBF854AA2F800C07DE604BF0132ACF808
:10433400002000220A707F4A1788834AB2F800E0FE
:10434400824A12780AB9AEEB070E814ADFF8DCC163
:104354001488804ADFF8348211884FF4FA72B2FB71
:10436400F1F67D49DCF80020097818F80110A6451B
:1043740028BFA64632440129CCF800200AD0774948
:104384000988132906D8092932440EEB9E0E3FD919
:10439400CCF80020DCF80020B2F57A6F4FF0640C02
:1043A400B2FBFCF83FD26E4908F1010A31F81860FB
:1043B40031F81A104FF44B790EFB06F6B6FBF9F6FA
:1043C4003E44B6B20EFB01F1B1FBF9F139448E4221
:1043D4001E8007D2891B0CFB18224A43B2FBFCF255
:1043E40016441E805F4A1288C82A7FF69DAE5E4935
:1043F4000988C83A01EB4106B2FBF6F706FB17221F
:104404008A42444A3ABF1C800121022111708BE682
:10441400042932440EEB9E0EBAD83244CCF8002064
:104424000EEB9E0EB6E7A8F128020EFB02F27744CB
:1044340002EB42024FF47A71B2FBF1F23A441A8071
:10444400D0E74A4A1488354A1288BA4240F2AF800B
:10445400A0423AD93D4ADFF838A112789AF8009080
:10446400002A00F09B80DFF8C8804149B8F800209A
:1044740009888A4288BFA2EB010EB9F1640F84BF98
:1044840064218AF800109AF80010DFF808A1C1F13D
:1044940064010EFB01FE3749B1F80090BAF8001030
:1044A400CE452CBF714449444FF47A79B1FBF9FEEF
:1044B40009FB1E117245AAF8001028D9A2EB0E02BE
:1044C40092B2092A23D9A8F800207A1CACF800205B
:1044D400294A12881A80294A01211170DFF8B8C0CC
:1044E400274A9CF8001017880A2940F20882A04243
:1044F40005D924490A883A4452080A801A80224974
:104504001A880988B9423CBF01321A800CE60A2293
:10451400D9E700BF84800020A680002042800020CC
:1045240098800020A08000209E800020948000209D
:10453400368100208C8000208A8000208680002024
:104544003A810020888000204E800020367C0020A4
:10455400FC7F002032810020F58100209A80002019
:10456400EAE20208A4800020C280002032800020F9
:104574004C8000208E7C00203E8000203D80002066
:10458400FA7F00202A8000202283002061820020FC
:1045940030810020348100202C800020B24A16682B
:1045A4004FF4FA71B1FBF9F1314411608DE7AF4A70
:1045B400B2F800A0AE4A128814214A439245AD498C
:1045C40080F27281AC4ADFF8D4B21278002A3ED06D
:1045D400AA4A177827B182F800E0A94A12881A80FB
:1045E400DFF8A4C21A88BBF800709CF800E0DFF87A
:1045F400B0820988BA428CBFD71B0027BEF1640F72
:1046040084BF4FF0640E8CF800E09CF800C0CCF13D
:10461400640C07FB0CFC9B4FB7F800E0B8F8007083
:10462400F4452CBF674477444FF47A7EB7FBFEFC15
:10463400624586BFA2EB0C0292B200220EFB1C77ED
:104644008A42A8F8007038BF0A461A8046E7A0429A
:10465400DFF814C20AD98C4A17784FF4FA72B2FB05
:10466400F7F7DCF800203A44CCF80020874ADCF85D
:104674000070B2F800E0B1F800C0BBF80020844933
:10468400E64541F2873B8CBFAEEB0C094FF00009C5
:104694005F454FF064080988B7FBF8F85CD849080F
:1046A4004FF00E0CBAF1130F01F196010CFB01F15E
:1046B4004FF00A0B98BF4FEA041CB1FBFBF188BF13
:1046C4000CFB04FCBCFBFBFC8C4538BF8C466045F2
:1046D40029783DD9022902D80131297006E06249BE
:1046E40041F2883CC1F800C04FF03208DFF8B4C191
:1046F4003CF8181008F1010840F25A3A3CF818C086
:1047040009FB01F1B1FBFAF1AEEB010189B209FB3E
:104714000CFCBCFBFAFCAEEB0C08414519800ED92D
:10472400ACEB0E0C4FF0640E8C44B7FBFEF80EFBA2
:1047340018770CFB07F7B7FBFEF7C91B198019881C
:1047440091423FF6CBAE484A41F288311160C5E64A
:104754000029CBD00139C0E74A4F3F88A8F132087D
:104764004FF0640E08FB07F7B7FBFEF70CEB070EE0
:1047740096453ABFD21B92B26246B8F1370F1A80FF
:104784006DD949080E27BAF1130F01F1960107FB01
:1047940001F188BF0C274FF00A0E98BF2701B1FB27
:1047A400FEF188BF6743B7FBFEF7B94238BF39460D
:1047B400884222D93749DFF8E0E009880527B1FBB0
:1047C400F7F1BEF80070614467B191420FD207EB74
:1047D40047070F44BF081F801A88AEF800200A223A
:1047E4002A707BE6914202D289081980F4E7944545
:1047F4003CBF02F1FF321A80EEE7A04213D92549EB
:1048040005270988B1FBF7F161448A4206D902EB16
:10481400C2020A440A21B2FBF1F216E79445BFF43E
:104824005DAE013A11E72978C9B11A4F4FF0050E70
:104834003F88B7FBFEF701396744BA42C9B2297011
:1048440088BFD21BC1F10A0198BF00224A430A2142
:10485400B2FBF1F21049098801320A44F5E60E4927
:1048640000220A80BCE700BF94800020A0800020C2
:10487400887C0020FA7F0020367C00203D800020C8
:10488400368100208E7C0020308100208A80002028
:10489400228300204A800020908000204C80002049
:1048A40034810020EAE20208A64ADFF820C3022786
:1048B4001770A54FBCF800C03A88024492B2624512
:1048C40086BFA2EB0C0292B27246B1F800C03A80E5
:1048D40042F274718A4208D91988614584BF01F192
:1048E400FF311980143A3A80F8E542F2AB618A420A
:1048F4003FF6F4AD1988013119801432F3E704EB63
:104904005404A0421A8813DD904C2488322C7FF67C
:10491400F6AD022903D801318CF80010EFE58C497B
:104924003A4452080A801A800F228CF80020E6E5E7
:104934000022FAE7024400E4864A874910880A689C
:10494400B0F5167F37D9B2F57A7F01D90A222270E1
:10495400824ADFF87CC21188814A1578002D40F024
:1049640041817A4FDFF86CE23A88B0F5167F49D876
:104974007C4CDFF8F48124886CB3944228D9052454
:1049840088F800404FF47A760025BEF800400C44C5
:104994006410B6F5FA7FAEF800409CF8004002D3EC
:1049A400A84280F0CB80704D2D78A5422DD90134DA
:1049B4008CF8004094E00A2A84BF0A3A0A606B49E2
:1049C4000A8801320A806A490A6802440A60BFE719
:1049D40009349442D3DABEF800400A348C4207DA30
:1049E4008D0805243C3588F800404FF47A76CCE7EE
:1049F4004FF47A760324464388F800403C25B6FBFE
:104A0400F1F6C2E742F21076BFE7554D01242C704F
:104A1400584D2C70584D2C80584D2C80584C25885E
:104A240005B92180574DDFF8B081DFF8B0E1DFF838
:104A3400B09100242C80544D2C60544D2C70544D56
:104A440029804A4D2C804A4D2C60524C2588B8F858
:104A54000040A5B1042C02D84F4E36787EB1B9F887
:104A6400006004368E420ADA4C4EBEF800A0368846
:104A74004FF0640B0BFB06F6B245D8BF0025484E39
:104A84003580484D2D8864264D43B5FBF6F5B9F8BD
:104A94000060ADB2B54238BF3546434E013435806F
:104AA4003D4DA8F8004000242C70274D8CF80040A0
:104AB40042F210762E80234E35780DB1013D3570CB
:104AC4003A4DAEF800402C60394D2C80394DC5E983
:104AD4000044C5E90244384DC5E90044C5E902442F
:104AE400364D2C8844F61F66B4429CBF01342C809A
:104AF4000132B0F5167F3A803FF6A3A9184A12781E
:104B0400002A00F0DC81264A1188224A1288914248
:104B1400C0F0FE8111494FF47A7209884243B2FB16
:104B2400F1F227490C682244264C0A6021680131BD
:104B34002160B2FBF1F224490A60E9E1002CCFD0F4
:104B4400013C35E73A8100203C8100209E80002012
:104B54002A8000203E8300204486002022830020F7
:104B6400A780002042800020687C0020787C002000
:104B7400747C0020A6800020A4800020A280002055
:104B84008C800020667C00207C80002075800020C2
:104B9400647C00204880002084800020887C0020E1
:104BA400988000204680002044800020607C002003
:104BB4005C7C0020487C0020387C0020A080002001
:104BC4006480002060800020688000202E80002007
:104BD4008E800020508000209A80002038810020A0
:104BE400FA7F0020864ADFF8688215880135ACB266
:104BF40014800194834C228801322280824A1288D4
:104C040064244A43B2FBF4F21FFA82FB7F4AB8F8E9
:104C14000040A2F800B07E4A1688002E00F0B4804E
:104C2400019AB24280F081804A083C32794F4FF0B9
:104C3400000E87F800E0DFF814A20C446410A8F812
:104C44000040BAF80040B44240F2BC80724F4FF4C6
:104C54007A744443B4FBF1FE3C6874443C606F4F87
:104C64003C8801343C806E4C2478002C00F0AA80EF
:104C74006C4C27780FB9142727706B4C27780FB921
:104C840014272770694FFC68A1420ED9BC68FC60E8
:104C94007C68BC603C68C7E90014654FBC68FC6074
:104CA4007C68BC603C68C7E90004604FD7E90254E3
:104CB4002C447D683F682C443C445A4F3F78A408F8
:104CC40067434FF06409B7FBF9F7E71B632F79D902
:104CD400584C94F80080B8F1000F40F04D84B9426C
:104CE40080F04F84524FD7E902542C447D683F68CA
:104CF4002C443C444C4F3F78A4086743B7FBF9F776
:104D04002744B84240F23D84424A82F800804A4C2B
:104D1400404E22783678964240F29C8001322270CE
:104D2400B0F5167F3FF68DA8EDE6019D321DAA422F
:104D340002DB4A08963279E73E4A1278012A05D105
:104D44008A08344F64324FF00F0E72E7022A05D1FD
:104D54008A08304F50324FF0050E6AE704F1140709
:104D64008F42A8BF2B4F4FEA5102A9BF4FF0000E4C
:104D74009632503287F800E0304F3F8807EB5707F0
:104D8400BA42C8BFBAB256E72A4ADFF888E01278B6
:104D9400012A05D18A0864320F278EF800704AE789
:104DA400022A03D18A0850320527F6E704F11409D0
:104DB40089454FEA5102BABF0527963250328EF820
:104DC4000070D9E79042A2D81A4A12788AB9019A97
:104DD400133696420DDA1A4A12888A4209D9194AB8
:104DE400194C1288218002F13B058D42A4BF3C324C
:104DF400228011490A78002A92D0013A0A708FE77A
:104E0400A4800020A2800020408000203E8000205A
:104E140048800020687C0020607C00205C7C0020AE
:104E24005A7C0020597C0020587C0020487C0020BB
:104E3400387C0020848000208E8000203280002076
:104E4400FC7F00208C8000208A8000209880002035
:104E5400647C0020A14C00222270A14C2270A14A43
:104E6400A14C118001222280A04C2280A04C2280DF
:104E7400019AA04C132A2AD89F4A12880132228010
:104E84009E4A9F4D12882E8802F11307B742A4BF91
:104E940014322A809B4A10809B4A177800268CF88B
:104EA400006047B31670994C994A248812882244AA
:104EB40092B22A801A80B0F5167F3EF6C2AF8D4AB0
:104EC40014888D4A1288944280F0838020E0914AAD
:104ED400127822B1884A12880AB1013A92B28E4DF0
:104EE400AAF8002000222A608C4D2A608C4D2A707A
:104EF4008C4D2A80C4E72288002ADCD17E4A12889D
:104F0400002A5BD0B0F5167FA3F800B03EF699AF47
:104F1400734A7F4E1778002F00F050817549824CF8
:104F24000A882488A24265D201320A807F4A128804
:104F34001A807F4A012111707E4A7F49DFF83CC202
:104F44001288BCF800500C881F88142151438D42EC
:104F54000CDD7A49B1F800E0794909888E4580F082
:104F6400118102EB82029200ACF80020724A198887
:104F74001288744C914288BF1A80198832889142F1
:104F8400714938BF1A8009882268002900F0DE823E
:104F94006E490988014402EB51026D482260018880
:104FA400013189B2B1F57A7F0180FEF44AAF694DCF
:104FB4002D88012D7EF445AFFFF7D0B82A880A2446
:104FC400B0F5167FB2FBF4F4A2EB04021A803EF6AD
:104FD40038AF4FF47A724243B2FBF1F25E490C6887
:104FE40022445E4C0A60216801312160B2FBF1F277
:104FF4005B49A1E55B4D5C4F2D78D7F800C0002DCF
:1050040060D1A24204BF01320A80494A00211170D2
:105014003E4A1588554A1288042A3CD805EB5505A2
:10502400534ADFF85C8112884FF4FA74B4FBF2F44B
:1050340064443C60314F4FF0640CB4FBFCF202F169
:10504400010938F812103F8838F8198069434FF481
:105054007A7EB1FBFEF1394489B205FB08F5B5FB54
:10506400FEF53D44A942198007D26D1A0CFB124289
:105074006A43B2FBFCF21144198042F2AB629442DF
:105084001F88284D0CD9374A01211170364A002156
:1050940011602F8050E7092A98BF05EB9505BFE7FB
:1050A4002A883449BA420BD1334C0A78B4F800C088
:1050B4006424B4FBFCF4A242E5DA01320A70E8E7A6
:1050C4000022FBE72C4A1288624464213A60B2FB56
:1050D400F1F2144909880A441A802DE7A7800020B8
:1050E400A680002050800020A08000209E80002008
:1050F4009C80002098800020428000208C8000202A
:105104008A80002086800020848000204E80002039
:10511400FA7F00203A810020708000206C800020FB
:1051240074800020667C0020488000204480002099
:105134003D800020867C0020FC7F0020228300200C
:10514400847C0020A8800020808000203280002001
:10515400AC800020A48000205880002054800020CF
:105164005C800020758000207C8000209A800020D4
:1051740032810020768000208C7C0020A2800020D8
:10518400EAE20208A742BFF4F1AEAD490988A5F1ED
:10519400C802B2FBF1F501FB1522B2EB510FA9498C
:1051A4000AD202EB82023A4492B2A24228BF2246B9
:1051B4001A8001220A70D9E60222FBE7A24AB2F859
:1051C40000B0A24A128814214A43934580F27481A4
:1051D4009F4AA04C1188A04A25881288DFF8BCC2D7
:1051E400DFF8A482DFF8A4E20A449542B8BF228023
:1051F4009A4A258812880A449542BCF80050C8BFD0
:105204002280092D56D8964A11784FF4FA72B2FBCF
:10521400F1F294490A8094490022C8F80020AEF8BB
:1052240000200A7091498F4A914CB2F800E00A6854
:10523400DFF86C82DFF86C9272440A602168714472
:1052440021608C4CB8F800E02488A64580F0938057
:10525400894A12881A800EF1010E0122A8F800E092
:1052640089F80020834A854912880988844C1332BE
:105274008A4280F26981834A1188754A12884908F2
:10528400643102EB52029142B8BF91B28842228843
:1052940040F255810A3292B219882280914288BF25
:1052A4008A1A31888CBF92B200228A4238BF0A46D9
:1052B4001A805BE6D8F8002000EB0209BEF8002053
:1052C400C8F80090013292B2142AAEF80020A9D195
:1052D400DFF894A1DFF8D0E19AF800A0BEF80080CE
:1052E4002488BAF1000F13D1B8F5167F10D2B9FB98
:1052F400F2F2A646644C00212160644C2180594995
:1053040072450C8830D9632C8CD801340C8089E721
:10531400DFF89891B8F5167FD9F80020B2FBF8F2BF
:105324003FBF4FF41678AEF8008008FB02F8C9F8C6
:105334000080BEF800804FF0640EA8F5167898FB44
:10534400FEF8DFF86CE1BEF800E00EFB08F84FF061
:105354000A0EB8FBFEF8A0458E46CBD2A4EB080497
:10536400A14238BFA646C5E7BFF45CAF012C7FF667
:1053740059AF013CCAE705F10105ACF8005004BF80
:10538400651CA8F80050002589F80050404DDFF84E
:105394002481B5F800E042F20F75AA4294BF4FF0A1
:1053A400640C4FF0630C304D94BFB2FBFCFC01273E
:1053B4002F7038F81C504FF47A770EFB05F5B5FBC7
:1053C400F7F5344F0CF1010C3F8838F81CC0AF429C
:1053D40086BF7D1BADB200250EFB0CFC4FF47A7E1C
:1053E400BCFBFEFC67458CBFA7EB0C070027BD4246
:1053F4001D800FD94FF0640CEF1BB2FBFCFE0CFBBD
:105404001E227A43B2FBFCF295428BBFAD1A0022F6
:105414001D801A801A884FF47A75B1FBF5F18A421F
:1054240088BF521A04F113048CBF92B20022A34520
:105434001A807FF717AF134A1188174A118011E7B2
:10544400C280002084800020A0800020887C00206E
:1054540032800020827C00207C7C00207A7C00202A
:105464003081002082800020748000207080002021
:105474006C800020428000203E8000209E8000201E
:1054840080800020228300206C7C0020707C00201F
:105494004C8000208A8000208C8000209C8000208A
:1054A400988000203D800020787C0020747C0020BF
:1054B4008E7C0020EAE20208344A354D0221117044
:1054C40034490A884CF24F34A2429CBF01320A800C
:1054D4002A8831491C880988024492B28A4286BFCC
:1054E400521A92B2002242F274718A422A8017D967
:1054F400A2F51D5114273439B1FBF7F18C4288BF52
:10550400641A37888CBFA4B20024A7421C803CBF15
:1055140004F1FF341C80142404FB11212980A1E62A
:1055240042F2AB67BA423FF69DAE1427891AB1FB2B
:10553400F7F10C4407FB01221C802A8092E6022A20
:1055440038BF0222023AA6E60022A5E613490978EA
:1055540000297FF41DAD02441FE531B164222A7095
:105564000F4A12881A80FEF76CBC01220270F7E71A
:1055740000222270FEF765BC90427FF63AACFFF73A
:10558400C6BB90427FF623ACFFF7C1BB3A81002033
:105594003C810020388100202E800020848000205F
:1055A400748100202DE9F74F714B724C1B7893B92D
:1055B400714A238001211170704A1370704A13706C
:1055C400704A1380704A1360704A1360704A136003
:1055D40003B0BDE8F08F6F4D2B78002B52D0664B93
:1055E400694E01221A706C4B1A886C4B3B2A18883E
:1055F4006B4B22D86B49098819806B490988B1EB38
:10560400101F29D35D490120087068490888316852
:10561400884225D26649098891425C4A2FD2126891
:10562400052A1DD9634900220A7063492A700A8039
:1056340062490A8052490A7012E01988814212D1E3
:105644005949098889083B318A4202D85549098851
:105654001980B2F5167FD0D94C49002232600A6015
:105664001B882380B4E74F4F3F888F4205D14E49B2
:10567400098849083C318A42EBD91880E9E70021BE
:105684001160EDE7DFF858E13D4D9EF800C0297840
:10569400BCF1640F54D93848012202703748632999
:1056A4000270394906D864222A70384A0B601360A4
:1056B400374A1360424B434A1B884348434E052BE9
:1056C40038BF05231380344B12881D88404B1B8838
:1056D400AB428CBF3F4B404B1B88038002EB520014
:1056E40080B230800E68571FB7424FEA520CB8D8C8
:1056F40096420AD823800A22B3FBF2F33B339BB2CF
:105704009D423FF665AF0F6062E7002386421F4A61
:105714001F48238002D21360036059E7272D0DD858
:105724001368042B01D9C1F800C00368B3F5FA6FFC
:10573400FFF44EAF00238EF8003049E71360F4E71E
:10574400174A1E4E254F0F2900F27B83DFE811F024
:105754004A00790379037903790379037903790397
:1057640079037903040119011B024E02D502E402F4
:1057740028780020B05900201A490020F948002058
:105784004A8600203E7F0020448600204086002078
:105794003C860020788100203E8300207681002012
:1057A400288000207481002022830020C2800020F1
:1057B400BE8000203C8000203880002036800020FD
:1057C400C0800020B8800020B4800020B680002073
:1057D400567F00202E810020E47F0020FE7F0020E1
:1057E400BA800020994B198813880B445B101380EE
:1057F400974B1888974B1B880B44B0EB530F28DA50
:105804000B232B70944B1980944B198094490023DB
:105814000B6094490B60944941F2883008609349C5
:105824004FF47A70086092490B6092490B80924958
:105834000B6092490B8092490B6092490B8092490C
:10584400C1E90233C1E900339049C1E90233C1E936
:1058540000338F4B18888F4BB3F8008080B9BCF1AC
:10586400000F0DD1B8F1C80F0AD98B4B1B78042B4C
:1058740006D93B8803F114014145A4BF053B3B8095
:105884002978B6F800900C2983BF3B8801339BB27A
:105894000023B9F1320F3B8006D9132B04D94345B9
:1058A40024BF03F1FF333B80A1F10B03042B21D868
:1058B400DFF8BC91794BB3F800A0D9F80030534419
:1058C400C9F80030DFF8AC91B9F800300133A9F819
:1058D4000030DFF8A4915E4BB3F800A0D9F8003093
:1058E4005344C9F80030DFF89491B9F8003001331B
:1058F400A9F800303B884345C0F02184684A5C49DC
:10590400684F0B232B701388674D01331380674A4C
:105914000B68136000220A6056490E882E80564D8B
:105924000A802968396055492A60614D0F882F80A3
:10593400BCF1640F0A8040F0868265238EF8003043
:105944005C4A002313705C4A0A2111805B4A13806D
:105954005B4A138000F01EBC3C4B3F491B880B8004
:105964003E4913800B8000233B804C4B1B883B2B10
:1059740004D9374B1B88142B7FF66BAF0B232B708A
:1059840067E7504B5048DFF85C8102211970314BB6
:1059940001781B88643B0B449BB2B3F5B97F27D8CD
:1059A400A8F80030494BB8F800801878484B1B68B9
:1059B400984228D80C232B70464BA2F80080002173
:1059C4001960454B1B785F2108FB03F34B436421AB
:1059D400B3FBF1F341490B60318800293FF439AF3F
:1059E40013882088984280F0C8800023338030E7F1
:1059F40032294FF4B97388BF01F1FF31A8F80030A0
:105A040088BF0170CEE7DFF8E0A03549B1FBF0F1C3
:105A1400594301F5FA714FF47A795145B1FBF9F321
:105A240098BF09FB1311DFF8C49099F800A003F1A3
:105A3400010088BF0021BAF1070F00F29980DFE866
:105A44000AF0578285888B8E919400BFC27F002014
:105A540022830020E47F0020C07F0020BE7F00203E
:105A6400B87F0020B47F0020CC7F0020C87F0020B6
:105A740024800020208000201C800020188000202A
:105A84000480002000800020887F0020687F0020A0
:105A940074780020E67F0020627F00203E8300208F
:105AA4003E7F00200C800020108000201480002005
:105AB400088000203C8000203480002038800020B2
:105AC40036800020F9480020D67F00205D7F00202A
