:020000040800F2
:1000000000000120011F0008411E0008491E0008D1
:10001000511E0008591E0008611E00080000000063
:10002000000000000000000000000000691E000841
:10003000771E000800000000851E0008931E0008BF
:10004000511F0008511F0008511F0008511F0008D0
:10005000511F0008511F0008511F0008511F0008C0
:10006000511F0008511F0008511F0008511F0008B0
:10007000511F0008511F0008511F0008511F0008A0
:10008000511F0008511F0008511F0008511F000890
:10009000511F0008511F0008511F0008511F000880
:1000A000511F0008511F0008511F0008511F000870
:1000B000511F0008511F0008511F0008511F000860
:1000C000511F0008511F0008511F0008511F000850
:1000D000511F0008511F0008511F0008511F000840
:1000E000511F0008511F0008511F0008511F000830
:1000F000511F0008511F0008511F0008511F000820
:10010000511F00080000000000000000511F0008FF
:10011000511F0008511F0008511F0008511F0008FF
:10012000A11E0008B51E0008511F0008511F00083D
:10013000C91E0008511F0008000000000000000058
:10014000511F0008511F0008511F00080000000047
:10015000000000000000000000000000000000009F
:10016000511F0008511F0008511F0008511F0008AF
:10017000511F0008511F0008511F0008511F00089F
:10018000511F0008511F000800000000000000007F
:04019000511F0008F3
:1001940010B5054C237833B9044B13B10448AFF3BD
:1001A40000800123237010BDD40000200000000053
:1001B400A071000808B5034B1BB103490348AFF312
:1001C400008008BD00000000D8000020A0710008D5
:1001D40080B400AF304B1B88B32B04D92E4B1B8843
:1001E400B3F5827F0BD92D4B5B88B3F57A7F10D89A
:1001F4002A4B5B8801339AB2284B5A8009E0274B7B
:100204005B88002B05D0254B5B88013B9AB2234BBE
:100214005A80234B1B88632B03D9214B1B88B42B97
:100224000BD91E4B9B88B3F57A7F10D81B4B9B8848
:1002340001339AB2194B9A8009E0184B9B88002B22
:1002440005D0164B9B88013B9AB2144B9A80154BF0
:100254001B882C2B03D9134B1B883C2B0BD90F4B1E
:100264001B89B3F57A7F11D80C4B1B8901339AB2E1
:100274000A4B1A810AE0094B1B89002B06D0074B55
:100284001B89013B9AB2054B1A81FFE700BFBD46AB
:100294005DF8047B704700BF68010020F000002077
:1002A4006A0100206C01002080B582B000AF01F02B
:1002B400A9FE38603B68B3F5FA7F34D3FFF788FFB3
:1002C4000123FB7114E0FB79194A32F81330B3F5BA
:1002D400FA7F0AD9174AFB791370FB79072B0BD8DD
:1002E400154B4FF47A721A8006E0FB790133FB71E7
:1002F400FB791E2BE7D900E000BF0F4B1B88002BB6
:1003040009D00D4B1B88013B9AB20B4B1A800B4B47
:1003140000221A7008E0094B1B78002B04D1074B0C
:1003240001221A7000E000BF0837BD4680BD00BF3F
:10033400F0000020790100202C0100207801002029
:1003440080B582B000AF7860624B00229A60614B46
:100354000022DA605F4B08221A615F4B1B78002B86
:1003640016D15E4B1B78022B06D85C4B1B780133ED
:10037400DAB25A4B1A7002E0584B01221A70574BEA
:100384001A78554B1A70554B1A78554B1A7005E06C
:10039400534B00221A70504B00221A70504B1B789A
:1003A40003F201131A464B4B1A604D4B1B78022B78
:1003B40064D0022B7FDC002B02D0012B32D07AE0F8
:1003C400444B08221A61474B17221A70464B1B886C
:1003D4001B0A9BB2DAB2434B5A70434B1B88DAB206
:1003E400404B9A70414BB3F900301B121BB2DAB286
:1003F4003C4BDA703D4BB3F90030DAB2394B1A7129
:100404003B4B1B88DAB2374B5A713A4B1B881B0A99
:100414009BB2DAB2334B9A71364B1B88DAB2314B4A
:10042400DA7148E02B4B04221A61334BB3F90030E4
:100434001B121BB2DAB22B4B1A702F4BB3F90030DC
:10044400DAB2284B5A702D4BB3F900301B121BB291
:10045400DAB2244B9A70294BB3F90030DAB2214B4B
:10046400DA70204B00221A711E4B00225A711D4B68
:1004740000229A711B4B0022DA711CE0154B0122F9
:100484001A611F4B1A78174B1A70164B00225A70B8
:10049400144B00229A70134B0022DA70114B002285
:1004A4001A71104B00225A710E4B00229A710D4B97
:1004B4000022DA7100BF134B0A4A0649786802F039
:1004C40050FF0346002B01D001F0CEF900BF0837DE
:1004D400BD4680BD3001002056010020540100209B
:1004E40055010020480100207601002074010020FD
:1004F400640100206E0100206001002062010020E0
:100504007A0100205001002080B588B004AFF86063
:100514007A601A460B467B8113463B817A894FF0F9
:10052400FF3302933B8901937B6800930223A82144
:10053400F86803F0A3FD052001F070FD00BF10373B
:10054400BD4680BD80B588B004AFF8607A601A46B5
:100554000B467B8113463B817A894FF0FF3302932C
:100564003B8901937B6800930223A821F86803F078
:1005740099FE00BF1037BD4680BD000080B584B031
:1005840000AF78600B467B800023FB8159E0FA8939
:10059400304913465B0013449B000B441868FA89E6
:1005A4002C4913465B0013449B000B4404331B7813
:1005B400798802467868FFF7C5FFFA89254913460A
:1005C4005B0013449B000B441B681B88BB81FA89A6
:1005D400204913465B0013449B000B4406331B88DD
:1005E400BA899A420BD3FA891A4913465B00134419
:1005F4009B000B4408331B88BA899A4211D9FA89A3
:10060400F98914480B465B000B449B0003441968AA
:10061400104813465B0013449B0003440A331B88B1
:100624000B80FA890B4913465B0013449B000B446F
:1006340004331B781A467B8813447B80FB8901337F
:10064400FB810622FB899342A1D300BF00BF103770
:10065400BD4680BDB871000880B584B000AF786035
:100664000B467B800023FB8125E0FA89164913465B
:100674005B0013449B000B441868FA891249134623
:100684005B0013449B000B4404331B7879880246B7
:100694007868FFF739FFFA890B4913465B00134466
:1006A4009B000B4404331B781A467B8813447B80DD
:1006B400FB890133FB810622FB899342D5D300BF1A
:1006C40000BF1037BD4680BDB871000880B483B048
:1006D40000AF054B7B607B681B8818460C37BD4612
:1006E4005DF8047B704700BFBAF7FF1F80B487B082
:1006F40000AFF860B96011461A460B46FB71134609
:10070400BB800023FB758CE0FB7D5B00FA6813441F
:100714001B881A46BB8802FB03F3002B01DA03F69D
:10072400FF731B13BB82FA7D13469B0013449B008B
:100734001A46BB6813441868B98AFA7D13469B00AD
:1007440013449B001A46BB68134442181A60FA7D8E
:1007540013469B0013449B001A46BB681344DA8972
:10076400013292B2DA81FA7D13469B0013449B0056
:100774001A46BB681344D989FA7D13469B00134477
:100784009B001A46BB6813449B8999423CD3FA7D6B
:1007940013469B0013449B001A46BB681344196814
:1007A400FA7D13469B0013449B001A46BB6813440E
:1007B4009B89B1FBF3F1FA7D13469B0013449B0024
:1007C4001A46BB6813448AB29A80FA7D13469B008A
:1007D40013449B001A46BB68134400221A60FA7D36
:1007E40013469B0013449B001A46BB681344002223
:1007F400DA81FA7D13469B0013449B001A46BB68BA
:10080400134401221A7409E0FA7D13469B00134431
:100814009B001A46BB68134400221A74FB7D013303
:10082400FB75FA7DFB799A42FFF46EAF00BF00BFFF
:100834001C37BD465DF8047B7047000080B487B068
:1008440000AF0346FB800023FB82A022FB88934277
:1008540002D26FF0180345E040F6F612FB8893428B
:1008640001D97D233EE000237B7536E07B7D204A61
:1008740032F823307B827B7D01331D4A32F82330EA
:100884003B82FA887B8A9A4224D3FA883B8A9A422A
:1008940020D87B7D164A9B0013445B88FB817B7DBB
:1008A4000133134A9B0013445B88BB81FA887B8A1B
:1008B400D31AB7F90C10B7F90E208A1A03FB02F207
:1008C400398A7B8ACB1A92FBF3F39AB2FB891344DD
:1008D4009BB2FB827B7D01337B757B7D052BC5D968
:1008E400B7F9163018461C37BD465DF8047B7047CF
:1008F4000072000880B582B000AF0346FB800B4B4A
:100904009B881846FFF79AFF03461A46084B1A803D
:10091400064B1B8B1846FFF791FF03461A46054BFF
:100924001A8000BF0837BD4680BD00BF000000200C
:10093400620100206001002080B483B000AF034650
:10094400FB80FB882F4A92889A1A13469B00134413
:100954005B0007EE903AB8EEE77ADFED2B6AC7EE5C
:10096400267AFCEEE77A17EE903A9AB2274B1A8071
:10097400244B1B8B07EE903AB8EEE77A214BD3ED6C
:10098400077A27EE277ADFED206AC7EE267AFCEE97
:10099400E77A17EE903A9AB21D4B1A80194B9B8D49
:1009A40007EE903AB8EEE77A164BD3ED0C7A27EEC1
:1009B400277ADFED156AC7EE267AFCEEE77A17EEA2
:1009C400903A9AB2134B1A800E4BB3F8403007EEAC
:1009D400903AB8EEE77A0B4BD3ED117A27EE277AEB
:1009E400DFED096AC7EE267AFCEEE77A17EE903A55
:1009F4009AB2094B1A8000BF0C37BD465DF8047BE0
:100A0400704700BF3C0000200000C842660100207F
:100A1400680100206A0100206C01002080B483B0CA
:100A240000AF0346FB80154BB3F86820144B1A80C3
:100A3400134B1B88B3F5E17F0DD3114B1B88A3F532
:100A4400E1739AB20E4B1A800D4B1B885B089AB265
:100A54000B4B1A8002E00A4B00221A80084B1B88B9
:100A6400B3F57A7F03D3064B40F2E7321A8000BF16
:100A74000C37BD465DF8047B704700BF3C00002086
:100A84006E01002080B483B000AF0346FB80284B86
:100A94009B8807EE903AB8EEE77A254BD3ED027ABD
:100AA40027EE277ADFED236AC7EE267AFDEEE77A92
:100AB40017EE903A1AB2204B1A80204B9B8D07EE0A
:100AC400903AB8EEE77A1D4BD3ED0C7A27EE277AED
:100AD400DFED186AC7EE267AFCEEE77A17EE903A55
:100AE4009AB2174B1A80164B1B88012B06D9144B4C
:100AF4001B88023B9AB2124B1A8002E0104B002270
:100B04001A800D4BB3F900301A460D4B1B8802FBBB
:100B140003F30C4A82FB03129210DB17D31A9AB226
:100B2400094B1A8000BF0C37BD465DF8047B704743
:100B3400B40000200000C842720100200000002020
:100B440064010020676666667601002080B582B085
:100B540000AF364B1B89002B02D0344B1B8900E0BD
:100B64000123FB80FFF7B2FD034640F6E44203FB9A
:100B740002F2FB88B2FBF3F3BB80BB88B3F5616F71
:100B840050D2BB8840F6B83293424BD9BB8803227B
:100B940027492848FFF7AAFDBB880622264923488F
:100BA400FFF7A4FDBB88012224492548FFF79EFDD9
:100BB4001F4B93F82430002B03D11D4B1B7C002BBF
:100BC40003D0BB881846FFF795FE1B4B1B7C002BFC
:100BD4000ED1194B93F82430002B09D1164B93F8FE
:100BE4003830002B04D1144B93F84C30002B03D035
:100BF400BB881846FFF7A0FE0F4B93F87430002B08
:100C040003D0BB881846FFF709FF094B93F8383027
:100C1400002B03D1094B1B7C002B03D0BB88184647
:100C2400FFF730FF00BF0837BD4680BD88010020B4
:100C340000000020800100203C000020B4000020BF
:100C44009401002080B487B000AF644B1B88002B54
:100C540000F0BE804FF4B473FB810023BB810023FA
:100C64007B814FF448733B814FF000037B60FB8929
:100C740007EE903AF8EEE77AB6EE007A67EE877AF6
:100C8400FCEEE77A17EE903A7B807B8807EE903A89
:100C9400B8EEE77AFB8907EE903AF8EEE77A77EE5A
:100CA400677AFDEEE77A17EE903A3B803B8907EED0
:100CB400903AB8EEE77AB7F9003007EE903AF8EEDA
:100CC400E77A77EE277AFCEEE77A17EE903ABB8163
:100CD400BB89C3F57973033307EE903AF8EEE76AFC
:100CE4003B89C3F57973033307EE903AB8EEE77A9C
:100CF400C6EE877AC7ED017ABB8907EE903AB8EE63
:100D0400E77A3B8907EE903AF8EEE76AD7ED017A85
:100D140066EEA77A77EE677AFDEEE77A17EE903AF9
:100D24007B812E4B1B88FA899A4205D94FF07C535C
:100D34003B610023FB820EE0284B1B883A899A42D0
:100D440005D94FF07E533B613B88FB8203E07B680F
:100D54003B617B89FB82214B1B8807EE903AB8EEFE
:100D6400E77AD7ED047A27EE277AB7F9163007EE3B
:100D7400903AF8EEE77A77EE277AFCEEE77A17EE08
:100D8400903A9AB2164B1A80154B1B88002B02D14D
:100D9400134B00221A80124B1B88B3F57A7F03D3BE
:100DA4000F4B40F2E7321A800D4B1A880D4B1A6430
:100DB4000A4B1B881A4613465B001A440A4B9A6076
:100DC400074B1B881A4613465B001A44064B5A61AC
:100DD40000BF1C37BD465DF8047B70476E010020E0
:100DE40070010020000400400074004080B500AF92
:100DF400034B1B78002B01D0FFF724FF00BF80BDFD
:100E04007801002080B584B000AF01F0FBF8F860F1
:100E1400534B1B68FA68D31A092B27D9504AFB682D
:100E24001360504B1B881A464F4B1B6813444E4AA1
:100E340013604E4B1B780133DAB24C4B1A704B4B98
:100E44001B78632B12D9494B00221A70464B1B683E
:100E5400002B08D0444B1B68454AA2FB03235B09C3
:100E64009AB2444B1A80404B00221A60424B1B68D2
:100E7400FA68D31A632B6ED93F4AFB6813603F4B61
:100E8400B3F900301A463E4B1B6813443C4A1360C6
:100E94003C4B1B780133DAB23A4B1A70394B1B784E
:100EA400092B58D9374B00221A70354B1B68364A28
:100EB400A2FB0323DB089AB2344B1A80304B002286
:100EC4001A60324B1B88002B45D0314B1B88002BFA
:100ED40041D1304B4FF4EF721A802C4B1B881A46C9
:100EE4002C4B1B8802FB03F3BB60BB682A4AA2FBA2
:100EF40003235B099AB2254B1A80244B1B881AB230
:100F0400264B1A80214B1B88C3F51E730333FB80C9
:100F1400FB882D2B17D8FA8813469B0013441A011B
:100F2400D31A1F4A82FB03121A445211DB17D31A35
:100F3400DAB21C4B1A701B4B1B78C3F16403DAB290
:100F4400184B1A7007E0FB884F2B01D80A2200E0E7
:100F54000022144B1A7000BF1037BD4680BD00BF7D
:100F64009801002064010020A0010020AC010020B1
:100F74001F85EB51A80100209C0100207201002074
:100F8400A4010020AD010020CDCCCCCCAA010020CE
:100F9400700100207C010020D34D621074010020F8
:100FA400B7600BB67A01002080B582B000AF00F0C4
:100FB400CFFF00F0B7F800F0E9FB00F0B9FB00F058
:100FC40099F900F01BF900F0E3FA00F057FB00F088
:100FD40049FA00F0A5FA00F011FB03224049414808
:100FE40001F058FA404B1B683F4A23F00203136098
:100FF4003D4B1B683C4A23F0040313603A4B1B68C7
:10100400394A23F00803136006223849384801F0AE
:1010140041FA384B1B68374A23F002031360354BFF
:101024001B68344A23F004031360324B1B68314AB3
:1010340023F00803136001222F49304801F02AFAF3
:101044002F4B1B682E4A23F0020313602C4B1B68A2
:101054002B4A23F004031360294B1B68284A23F00E
:10106400080313600C21274805F0EAF9264B0022F7
:101074001A64264802F031F905212548FFF77EFA63
:10108400C82000F0CBFF234B1B8801339AB2214BBD
:101094001A8005211E48FFF7DFFA00211E4802F0DE
:1010A40064FB10211C4802F060FB1C4B01221A70E7
:1010B400FFF74CFDFFF79AFEFFF7A4FEFFF7F4F8E5
:1010C40000F0A0FF7860164B1B687A68D31A632B74
:1010D400EED9134A7B6813600C48FFF731F9E7E750
:1010E40080010020B0010020080402408801002093
:1010F4000002002058040240940100205002002005
:101104001C040240FC030020000400406C03002087
:10111400A803002058010020940300207801002037
:101124004804002080B5A6B000AF07F17003282260
:101134000021184606F006F807F15C0300221A6045
:101144005A609A60DA601A613B1D582200211846E1
:1011540005F0F8FF03233B674FF480337B670123DB
:10116400FB671023C7F880300223C7F888304FF498
:101174008033C7F88C304FF4E013C7F89030002365
:10118400C7F8943007F17003184603F0FFFC0346D8
:10119400002B01D000F068FB0F23FB6502233B66A4
:1011A40000237B664FF48063BB660023FB6607F174
:1011B4005C030221184604F00DFD0346002B01D008
:1011C40000F052FB0C4B7B604FF48073FB624FF4D6
:1011D40000533B6300233B6200233B643B1D1846E2
:1011E40004F0BAFE0346002B01D000F03DFB00BF23
:1011F4009837BD4680BD00BFA001200080B586B0F1
:1012040000AF3B4600221A605A609A60DA601A61A5
:101214005A61364B364A1A60344B00225A60334BBB
:1012240000229A60314B01221A61304B01225A7616
:101234002E4B002283F820202C4B0022DA622B4B09
:1012440001229A62294B0022DA60284B0322DA61D8
:10125400264B012283F83020244B08225A61234B69
:1012640000221A76214B00225A63204800F018FF0E
:101274000346002B01D000F0F7FA09233B60012359
:101284007B600023FB600623BB6000233B610023DB
:101294007B613B461946154801F018FA0346002BBA
:1012A40001D000F0E1FA0C233B6002237B603B4653
:1012B40019460E4801F00AFA0346002B01D000F04B
:1012C400D3FA04233B6003237B600523BB603B46C6
:1012D4001946064801F0FAF90346002B01D000F044
:1012E400C3FA00BF1837BD4680BD00BFB00100205F
:1012F4000001005080B58AB000AF07F11C03002242
:101304001A605A609A603B1D00221A605A609A6003
:10131400DA601A615A61514B514A1A604F4B0022EC
:101324005A604E4B00229A604C4B01221A614B4B7F
:1013340001225A76494B002283F82020474B002291
:10134400DA62464B01229A62444B0022DA60434B34
:101354000622DA61414B012283F830203F4B0822F8
:101364005A613E4B00221A763C4B00225A633B489A
:1013740000F096FE0346002B01D000F075FA00231E
:10138400FB6107F11C031946344801F089FC03464C
:10139400002B01D000F068FA0A237B600123BB60B4
:1013A40000233B610623FB6000237B610023BB61B8
:1013B4003B1D1946294801F089F90346002B01D049
:1013C40000F052FA0C237B600223BB603B1D1946DC
:1013D400224801F07BF90346002B01D000F044FAC7
:1013E4000F237B600323BB603B1D19461B4801F0A0
:1013F4006DF90346002B01D000F036FA10237B6010
:101404000423BB603B1D1946144801F05FF90346F1
:10141400002B01D000F028FA12237B600523BB6067
:101424003B1D19460D4801F051F90346002B01D02C
:1014340000F01AFA05237B600623BB600523FB60DA
:101444003B1D1946054801F041F90346002B01D024
:1014540000F00AFA00BF2837BD4680BD0002002014
:101464000004005080B586B000AF3B4600221A60ED
:101474005A609A60DA601A615A61274B274A1A60E7
:10148400254B00225A60244B00229A60224B0022F2
:101494001A61214B01225A761F4B002283F8202027
:1014A4001D4B0022DA621C4B01229A621A4B002265
:1014B400DA60194B0122DA61174B012283F83020DC
:1014C400154B08225A61144B00221A76124B002243
:1014D4005A63114800F0E4FD0346002B01D000F0EC
:1014E400C3F90C233B6001237B600023FB600623CC
:1014F400BB6000233B6100237B613B4619460648E1
:1015040001F0E4F80346002B01D000F0ADF900BF70
:101514001837BD4680BD00BF5002002000050050B2
:1015240080B500AF184B194A1A60174B10225A6045
:10153400154B00229A60144B4FF08072DA60124B04
:101544004FF4A0221A61104B4FF480125A610E4BD3
:1015540000221A760C4B00225A760B4B00229A7604
:10156400094B0022DA76084B00221A77064B002238
:101574005A77054801F0B6FD0346002B01D000F070
:1015840073F900BF80BD00BF6C03002000640040FD
:1015940080B584B000AF3B1D00221A605A609A6087
:1015A400144B154A1A60134802F0BDF80346002B89
:1015B40001D000F059F900237B600023BB603B1D80
:1015C400002219460B4802F01BF90346002B01D0F8
:1015D40000F04AF93B1D10221946064802F010F9A2
:1015E4000346002B01D000F03FF900BF1037BD4681
:1015F40080BD00BF940300200074004080B500AF9C
:101604001B4B1C4A1A601A4B1B4A5A60184B002287
:101614009A60174B0122DA60154B00221A61144BB1
:1016240000225A61124B00229A61114B0022DA61A6
:101634000F4B00221A620E4802F084FC0346002B72
:1016440001D000F011F90021094803F007FA03461C
:10165400002B01D000F008F90021054803F049FAF5
:101664000346002B01D000F0FFF800BF80BD00BF8F
:10167400A8030020005400402B1D200080B58AB030
:1016840000AF07F11C0300221A605A609A603B46BF
:1016940000221A605A609A60DA601A615A619A618B
:1016A400214B224A1A60204B47225A601E4B0022CB
:1016B4009A601D4B40F2E732DA601B4B00221A613C
:1016C400194B80229A61184804F062FE0346002BED
:1016D40001D000F0C9F80023FB6100237B6207F10D
:1016E4001C031946104805F0A1FC0346002B01D049
:1016F40000F0BAF860233B6000237B600023BB60EA
:1017040000233B613B460C221946074804F0A4FF22
:101714000346002B01D000F0A7F8034800F056FB65
:1017240000BF2837BD4680BDFC03002000040040F4
:1017340080B582B000AF144B5B69134A43F00203D7
:101744005361114B5B6903F002037B607B680022E9
:101754000021382001F0B1FF382001F0CAFF002237
:101764000021392001F0A9FF392001F0C2FF002235
:1017740000213C2001F0A1FF3C2001F0BAFF00BF92
:101784000837BD4680BD00BF0010024080B58CB054
:1017940000AF07F11C0300221A605A609A60DA60F5
:1017A4001A612F4B5B692E4A43F4001353612C4B8F
:1017B4005B6903F40013BB61BB69294B5B69284A6D
:1017C40043F480035361264B5B6903F480037B611C
:1017D4007B69234B5B69224A43F400235361204B0A
:1017E4005B6903F400233B613B691D4B5B691C4A45
:1017F40043F4003353611A4B5B6903F40033FB6019
:10180400FB68174B5B69164A43F480235361144BFE
:101814005B6903F48023BB60BB68114B5B69104AAE
:1018240043F4801353610E4B5B6903F480137B60B4
:101834007B68002280210B4802F06CFB8023FB6153
:1018440001233B6200237B620023BB6207F11C037C
:101854001946044802F0D4F900BF3037BD4680BDB4
:10186400001002400008004880B400AF72B600BF08
:1018740000BFFDE780B483B000AF0F4B9B690E4AF5
:1018840043F0010393610C4B9B6903F001037B60FC
:101894007B68094BDB69084A43F08053D361064BEC
:1018A400DB6903F080533B603B6800BF0C37BD46E7
:1018B4005DF8047B704700BF0010024080B592B011
:1018C40000AF786007F1340300221A605A609A600E
:1018D400DA601A617B681B68874A93427DD1874B23
:1018E4005B69864A43F080535361844B5B6903F020
:1018F40080533B633B6B814B5B69804A43F4002319
:1019040053617E4B5B6903F40023FB62FB6A7B4BF0
:101914005B697A4A43F400335361784B5B6903F49F
:101924000033BB62BB6A754B5B69744A43F4802322
:101934005361724B5B6903F480237B627B6A0823E7
:101944007B630323BB630023FB6307F13403194662
:101954006B4802F055F980237B630323BB630023A8
:10196400FB6307F1340319464FF0904002F048F945
:1019740004237B630323BB630023FB6307F134036A
:101984001946604802F03CF95F4B604A1A605E4BAE
:1019940000225A605C4B00229A605B4B8022DA6022
:1019A400594B4FF480721A61574B4FF480625A615D
:1019B400554B20229A61544B0022DA61524801F0BF
:1019C4006CFF0346002B01D0FFF74EFF7B684E4AA5
:1019D4009A634D4A7B68536201E17B681B684C4AF9
:1019E400934240F0A1804B4B1B680133494A13607A
:1019F400484B1B68012B0BD1404B5B693F4A43F0BA
:101A0400005353613D4B5B6903F000533B623B6AF7
:101A14003A4B5B69394A43F480235361374B5B6922
:101A240003F48023FB61FB69344B5B69334A43F461
:101A340000135361314B5B6903F40013BB61BB6951
:101A44002E4B5B692D4A43F4801353612B4B5B6926
:101A540003F480137B617B6942F201037B630323FC
:101A6400BB630023FB6307F134031946254802F0E6
:101A7400C7F84FF4C0537B630323BB630023FB63AA
:101A840007F134031946244802F0BAF84FF400531E
:101A94007B630323BB630023FB6307F13403194611
:101AA4001E4802F0ADF81E4B1E4A1A601C4B002261
:101AB4005A601B4B00229A60194B8022DA60184B43
:101AC4004FF480721A61164B4FF480625A61144BC2
:101AD40020229A61124B0022DA61114801F0DDFEE6
:101AE4000346002B01D0FFF7BFFE7B680C4A9A63C4
:101AF4000B4A7B68536272E0000100500010024000
:101B04000008004800040048A00200200804024025
:101B1400000400504C04002000100048000C004851
:101B2400E4020020580402407B681B682E4A93425A
:101B340055D12E4B1B6801332C4A13602B4B1B6869
:101B4400012B0BD12A4B5B69294A43F000535361A3
:101B5400274B5B6903F000533B613B69244B5B6992
:101B6400234A43F480135361214B5B6903F48013CC
:101B7400FB60FB684FF480737B630323BB63002328
:101B8400FB6307F1340319461A4802F039F81A4B7B
:101B94001A4A1A60184B00225A60174B00229A60A6
:101BA400154B8022DA60144B4FF480721A61124B89
:101BB4004FF480625A61104B20229A610E4B00222E
:101BC400DA610D4801F069FE0346002B01D0FFF7EE
:101BD4004BFE7B68084A9A63074A7B68536200BFDE
:101BE4004837BD4680BD00BF000500504C040020AE
:101BF40000100240000C0048280300201C0402408E
:101C040080B58AB000AF786007F1140300221A602F
:101C14005A609A60DA601A617B681B68174A9342BB
:101C240028D1174BDB69164A43F00073D361144B78
:101C3400DB6903F000733B613B69114B5B69104A3C
:101C440043F4802353610E4B5B6903F48023FB60F0
:101C5400FB684FF440737B610223BB610023FB618B
:101C640003233B6209237B6207F1140319460548E9
:101C740001F0C6FF00BF2837BD4680BD00640040A8
:101C8400001002400004004880B58AB000AF7860BC
:101C940007F1140300221A605A609A60DA601A612C
:101CA4007B681B68154A934224D1154BDB69144A9F
:101CB40043F00053D361124BDB6903F000533B61E3
:101CC4003B690F4B5B690E4A43F4003353610C4B81
:101CD4005B6903F40033FB60FB6830237B610323FF
:101CE400BB610023FB6107F1140319464FF09040D8
:101CF40001F086FF00BF2837BD4680BD0074004058
:101D04000010024080B58AB000AF786007F1140378
:101D140000221A605A609A60DA601A617B681B6854
:101D2400174A934227D1174B5B69164A43F4802321
:101D34005361144B5B6903F480233B613B69C0230B
:101D44007B611223BB610023FB6103233B620423F9
:101D54007B6207F1140319460B4801F051FF094B4C
:101D6400DB69084A43F40013D361064BDB6903F4CF
:101D74000013FB60FB6800BF2837BD4680BD00BF71
:101D840000540040001002400004004880B485B0B4
:101D940000AF78607B681B680A4A93420BD10A4BF8
:101DA400DB69094A43F00203D361074BDB6903F0A3
:101DB4000203FB60FB6800BF1437BD465DF8047B7B
:101DC400704700BF000400400010024080B588B096
:101DD40000AF786007F10C0300221A605A609A6021
:101DE400DA601A617B681B68114A93421BD1114B5C
:101DF4005B69104A43F4001353610E4B5B6903F4AF
:101E04000013BB60BB682023FB6002233B610023FB
:101E14007B610023BB610223FB6107F10C031946BC
:101E2400054801F0EDFE00BF2037BD4680BD00BF70
:101E340000040040001002400010004880B400AFCD
:101E440000BFFDE780B400AF00BFFDE780B400AF82
:101E540000BFFDE780B400AF00BFFDE780B400AF72
:101E640000BFFDE780B400AF00BFBD465DF8047B52
:101E7400704780B400AF00BFBD465DF8047B704777
:101E840080B400AF00BFBD465DF8047B704780B5E9
:101E940000AF00F0A3F800BF80BD000080B500AF24
:101EA400024801F0A0FD00BF80BD00BFA0020020D9
:101EB40080B500AF024801F096FD00BF80BD00BFB1
:101EC4002803002080B500AF024801F08CFD00BF5C
:101ED40080BD00BFE402002080B400AF064BD3F8FD
:101EE4008830054A43F47003C2F8883000BFBD4609
:101EF4005DF8047B704700BF00ED00E0DFF834D0EC
:101F0400FFF7EAFF0C480D490D4A002302E0D458BC
:101F1400C4500433C4188C42F9D30A4A0A4C00232F
:101F240001E013600432A242FBD305F013F9FFF77A
:101F34003BF8FEE70000012000000020D400002050
:101F440054720008D400002054040020FEE700006E
:101F540080B500AF084B1B68074A43F010031360B9
:101F6400032001F09FFB0F2000F008F8FFF782FC2C
:101F74000023184680BD00BF0020024080B582B017
:101F840000AF7860124B1A68124B1B7819464FF455
:101F94007A73B3FBF1F3B2FBF3F3184601F0B7FB2A
:101FA4000346002B01D001230EE07B680F2B0AD8D7
:101FB400002279684FF0FF3001F07FFB064A7B680E
:101FC4001360002300E0012318460837BD4680BD96
:101FD400C8000020D0000020CC00002080B400AF56
:101FE400064B1B781A46064B1B681344044A1360BD
:101FF40000BFBD465DF8047B704700BFD0000020E1
:102004005004002080B400AF034B1B681846BD4643
:102014005DF8047B704700BF5004002080B584B095
:1020240000AF7860FFF7EEFFB8607B68FB60FB6889
:10203400B3F1FF3F05D00A4B1B781A46FB681344E3
:10204400FB6000BFFFF7DEFF0246BB68D31AFA68E5
:102054009A42F7D800BF00BF1037BD4680BD00BF0D
:10206400D000002080B483B000AF786000BF0C378C
:10207400BD465DF8047B704780B483B000AF7860E0
:1020840000BF0C37BD465DF8047B704780B483B055
:1020940000AF786000BF0C37BD465DF8047B704725
:1020A40080B59AB000AF7860002387F867300023CA
:1020B4003B660023BB607B68002B01D10123E3E175
:1020C4007B681B69002B7B681B6C03F01003002BDF
:1020D40076D17B681B6C002B52D17B6800225A643A
:1020E4007B680022DA647B6800229A647B680022A1
:1020F40083F83C207868FFF7E1FB7B681B689B68EA
:1021040003F08053002B3BD1786800F085FF034631
:1021140087F867307B681B6C03F01003002B2FD10A
:1021240097F86730002B2BD17B681B6C23F4885302
:1021340023F0020343F002027B681A647B681B6885
:102144009A687B681B6822F040529A607B681B681F
:102154009A687B681B6842F080529A60924B1B68B5
:10216400924AA2FB03239A0C13469B0013445B0080
:10217400BB6002E0BB68013BBB60BB68002BF9D1CC
:102184007B681B689B6803F08053002B07D07B6837
:102194001B689B6803F00053B3F1005F10D17B68A8
:1021A4001B6C23F0120343F010027B681A647B68F3
:1021B4005B6C43F001027B685A64012387F8673043
:1021C4007B681B6C03F01003002B40F0508197F8E0
:1021D4006730002B40F04B817B681B689B6803F0E1
:1021E4000403002B40F043817B681B6C23F4817350
:1021F40043F002027B681A647B681B68B3F1A04F4A
:1022040004D07B681B686A4A934201D1694B00E0A1
:10221400694BFB657B681B68B3F1A04F02D1644B2B
:10222400FB601AE07B681B68614A934203D14FF05C
:10223400A043FB6011E07B681B68604A934202D1B3
:102244005F4BFB6009E07B681B685D4A934202D1E7
:102254005A4BFB6001E00023FB607B681B689B68B2
:1022640003F00303012B08D17B681B681B6803F090
:102274000103012B01D1012300E00023002B1CD119
:10228400FB68002B10D0FB689B6803F00303012B51
:1022940007D1FB681B6803F00103012B01D1012363
:1022A40000E00023002B08D1FB6D9B6823F440322F
:1022B4007B685B681A43FB6D9A607B685B7E5B039B
:1022C4007A68526B012A02D04FF4805200E0002257
:1022D4001A437B68DB681A437B689B6813433A6E36
:1022E40013433B667B6893F82030012B1BD17B683A
:1022F4005B7E002B09D17B685B6A013B5A043B6E11
:10230400134343F480333B660DE07B681B6C23F07E
:10231400220343F020027B681A647B685B6C43F001
:1023240001027B685A647B689B6A012B54D07B68EA
:102334001B68224A934204D07B681B68204A93425C
:1023440040D17B689B6AB3F5307F2AD07B689B6A57
:10235400B3F5807F22D07B689B6AB3F5E07F1AD007
:102364007B689B6AB3F58A5F12D07B689B6AB3F57E
:10237400845F0AD07B689B6AB3F5865F02D07B6872
:102384009B6A23E04FF4C07320E04FF4A0731DE078
:102394004FF470731AE04FF4807317E04FF4307306
:1023A40014E04FF4E07311E0C800002083DE1B4307
:1023B40000010050000300500007005000040050CA
:1023C400000500507B689B6A23F480537A68D26AC4
:1023D40013433A6E13433B667B681B689B6803F0A8
:1023E4000C03002B14D17B681B68DB687A681268C5
:1023F40023F4804323F00203D3607B681B7E9A039B
:102404007B6893F830305B0013433A6E13433B66AA
:102414007B681B68DA681E4B13407A681268396E51
:102424000B43D3607B681B69012B0CD17B681B6851
:102434001B6B23F00F017B68DB695A1E7B681B68EA
:102444000A431A6307E07B681B681A6B7B681B6886
:1024540022F00F021A637B6800225A647B681B6CAB
:1024640023F0030343F001027B681A640AE07B68EB
:102474001B6C23F0120343F010027B681A640123DF
:1024840087F8673097F8673018466837BD4680BDCF
:1024940007C0F0FF80B586B000AFF860B9607A601D
:1024A4000023FB75FB681B689B6803F00403002B87
:1024B40040F0F780FB6893F83C30012B01D10223F4
:1024C400F2E0FB68012283F83C20FB681B68B3F14F
:1024D400A04F04D0FB681B68754A934209D1754B21
:1024E4009B6803F01F03002B0CBF01230023DBB206
:1024F40008E0714B9B6803F01F03002B0CBF012302
:102504000023DBB2002B00F0C580F86800F020FD4A
:102514000346FB75FB7D002B40F0B780FB681B6C0A
:1025240023F4706323F0010343F48072FB681A649C
:10253400FB681B68B3F1A04F04D0FB681B685C4ABE
:10254400934206D15B4B9B6803F01F03002B10D012
:1025540005E0594B9B6803F01F03002B09D0FB686F
:102564001B68B3F1A04F04D0FB681B68534A934225
:1025740015D1FB681B6C23F48012FB681A64FB689A
:102584001B68DB6803F00073002B36D0FB681B6C00
:1025940023F4405343F48052FB681A642DE0FB6833
:1025A4001B6C43F48012FB681A64FB681B68B3F16C
:1025B400A04F04D0FB681B683D4A93420AD14FF0F8
:1025C400A043DB6803F00073002B14BF0123002336
:1025D400DBB208E0394BDB6803F00073002B14BF57
:1025E40001230023DBB2002B07D0FB681B6C23F410
:1025F400405343F48052FB681A64FB681B6C03F479
:102604008053B3F5805F06D1FB685B6C23F0060250
:10261400FB685A6402E0FB6800225A64FB680022EB
:1026240083F83C20FB689B6B254A9A62FB689B6B92
:10263400244ADA62FB689B6B234A1A63FB681B68B3
:102644001C221A60FB681B685A68FB681B6842F00E
:1026540010025A60FB681B68DA68FB681B6842F06A
:102664000102DA60FB68986BFB681B68403319460B
:10267400BA687B6801F058F9FB681B689A68FB68C4
:102684001B6842F004029A600DE0FB68002283F8A4
:102694003C2008E00123FB75FB68002283F83C2002
:1026A40001E00223FB75FB7D18461837BD4680BD4B
:1026B40000010050000300500007005000040050C7
:1026C400892E0008032F00081F2F000880B49BB038
:1026D40000AF78603960002387F867300023BB605F
:1026E4007B6893F83C30012B01D10223C8E27B685C
:1026F400012283F83C207B681B689B6803F0040379
:10270400002B40F0AC823B685B68042B1CD87B68D0
:102714001B68196B3B685A6813465B0013445B00E3
:102724001A461F239340DB4319403B6818683B68F3
:102734005A6813465B0013445B0000FA03F27B689B
:102744001B680A431A6363E03B685B68092B1ED865
:102754007B681B68596B3B685A6813465B001344DB
:102764005B001E3B1F2202FA03F3DB4319403B6864
:1027740018683B685A6813465B0013445B001E3BB1
:1027840000FA03F27B681B680A435A6340E03B6823
:102794005B680E2B1ED87B681B68996B3B685A6874
:1027A40013465B0013445B003C3B1F2202FA03F315
:1027B400DB4319403B6818683B685A6813465B0062
:1027C40013445B003C3B00FA03F27B681B680A433A
:1027D4009A631DE07B681B68D96B3B685A68134693
:1027E4005B0013445B005A3B1F2202FA03F3DB43F2
:1027F40019403B6818683B685A6813465B001344E9
:102804005B005A3B00FA03F27B681B680A43DA63F5
:102814007B681B689B6803F00C03002B40F0E58089
:102824003B681B68092B1CD97B681B6899693B684A
:102834001A6813465B0013441E3B072202FA03F393
:10284400DB4319403B6898683B681A6813465B0091
:1028540013441E3B00FA03F27B681B680A439A6127
:1028640019E07B681B6859693B681A6813465B006A
:102874001344072202FA03F3DB4319403B689868C8
:102884003B681A6813465B00134400FA03F27B6842
:102894001B680A435A613B685A697B681B68DB689A
:1028A400DB0803F003035B0002FA03F33B663B68B7
:1028B4001B69013B032B4FD801A252F823F000BF40
:1028C400D5280008F7280008192900083B29000822
:1028D4007B681B681A6E994B13403A68126891061C
:1028E4003A6E0A431A437B681B6842F000421A6638
:1028F4007BE07B681B685A6E904B13403A68126801
:1029040091063A6E0A431A437B681B6842F0004200
:102914005A666AE07B681B689A6E884B13403A6873
:10292400126891063A6E0A431A437B681B6842F0A8
:1029340000429A6659E07B681B68DA6E7F4B13404D
:102944003A68126891063A6E0A431A437B681B6818
:1029540042F00042DA6648E07B681B681B6E03F0B5
:10296400F8423B681B689B069A4207D17B681B6848
:102974001A6E7B681B6822F000421A667B681B682B
:102984005B6E03F0F8423B681B689B069A4207D1D2
:102994007B681B685A6E7B681B6822F000425A668B
:1029A4007B681B689B6E03F0F8423B681B689B06C0
:1029B4009A4207D17B681B689A6E7B681B6822F079
:1029C40000429A667B681B68DB6E03F0F8423B6842
:1029D4001B689B069A4207D17B681B68DA6E7B688A
:1029E4001B6822F00042DA6600BF7B681B689B68A4
:1029F40003F00303012B08D17B681B681B6803F0F9
:102A04000103012B01D1012300E00023002B40F03E
:102A140031813B68DB68012B0FD07B681B68D3F8DE
:102A2400B0103B681B68012202FA03F3DA437B68A7
:102A34001B680A40C3F8B02049E07B681B68D3F8E0
:102A4400B0103B681B6801229A407B681B680A43EC
:102A5400C3F8B0203B681B68092B1CD97B681B6832
:102A640099693B681A6813465B0013441B3B0722B1
:102A740002FA03F3DB4319403B6898683B681A6821
:102A840013465B0013441B3B00FA03F27B681B688C
:102A94000A439A611BE07B681B6859693B681B68A1
:102AA4005A1C13465B001344072202FA03F3DB4368
:102AB40019403B6898683B681B685A1C13465B00C6
:102AC400134400FA03F27B681B680A435A617B686B
:102AD4001B68B3F1A04F04D07B681B68184A93426B
:102AE40001D1184B00E0184BFB653B681B68102BA9
:102AF40005D1FB6D9B6803F40003002B15D03B68E4
:102B04001B68112B05D1FB6D9B6803F08073002BB0
:102B14000BD03B681B68122B40F0AC80FB6D9B68AC
:102B240003F48003002B40F0A5807B681B68B3F19D
:102B3400A04F0BD1024BFB6023E000BF00F0FF83EA
:102B44000001005000030050000700507B681B6820
:102B54004E4A934203D14FF0A043FB6011E07B68DF
:102B64001B684B4A934202D14A4BFB6009E07B68E5
:102B74001B68484A934202D1454BFB6001E00023A5
:102B8400FB607B681B689B6803F00303012B08D17F
:102B94007B681B681B6803F00103012B01D101232F
:102BA40000E00023002B50D1FB68002B10D0FB6801
:102BB4009B6803F00303012B07D1FB681B6803F038
:102BC4000103012B01D1012300E00023002B3CD1A0
:102BD4003B681B68102B1DD17B681B68B3F1A04FA9
:102BE40018D1FB6D9B6843F40002FB6D9A602A4B7D
:102BF4001B682A4AA2FB03239A0C13469B00134426
:102C04005B00BB6002E0BB68013BBB60BB68002BA0
:102C1400F9D12EE03B681B68112B0BD17B681B6834
:102C2400B3F1A04F06D1FB6D9B6843F08072FB6D3E
:102C34009A601EE03B681B68122B1AD1FB6D9B68DF
:102C440043F48002FB6D9A6013E07B681B6C43F0D5
:102C540020027B681A64012387F867300AE07B68E6
:102C64001B6C43F020027B681A64012387F86730E9
:102C740000E000BF7B68002283F83C2097F86730AF
:102C840018466C37BD465DF8047B70470001005060
:102C94000004005000050050C800002083DE1B43E0
:102CA40080B499B000AF78603960002387F85F3052
:102CB4007B681B68B3F1A04F02D16D4BBB601AE077
:102CC4007B681B686A4A934203D14FF0A043BB6000
:102CD40011E07B681B68674A934202D1664BBB6074
:102CE40009E07B681B68644A934202D1614BBB6074
:102CF40001E00023BB60BB68002B01D10123B0E0DD
:102D04007B6893F83C30012B01D10223A9E07B6856
:102D1400012283F83C207B681B689B6803F0040352
:102D2400002B40F08D80BB689B6803F00403002BEC
:102D340040F086807B681B68B3F1A04F04D07B68A9
:102D44001B684B4A934201D14C4B00E04C4BBB6592
:102D54003B681B68002B40D0BB6D9B6823F460422A
:102D64003B6859687B6893F830305B030B431A4324
:102D7400BB6D9A607B681B689B6803F00303012B9F
:102D840008D17B681B681B6803F00103012B01D188
:102D9400012300E00023002B5CD1BB689B6803F097
:102DA4000303012B07D1BB681B6803F00103012B4C
:102DB40001D1012300E00023002B4BD1BB6D9B68A4
:102DC40023F4716323F00F033A6811683A68926838
:102DD4000A431A43BB6D9A603CE0BB6D9B6823F4C5
:102DE4006042BB6D9A607B681B689B6803F00303B9
:102DF400012B08D17B681B681B6803F00103012BBE
:102E040001D1012300E00023002B23D1BB689B6880
:102E140003F00303012B07D1BB681B6803F0010314
:102E2400012B01D1012300E00023002B12D1BB6D43
:102E34009B6823F4716323F00F03BA6D936009E078
:102E44007B681B6C43F020027B681A64012387F8BB
:102E54005F3000E000BF7B68002283F83C2097F8D5
:102E64005F3018466437BD465DF8047B704700BF89
:102E74000001005000040050000500500003005001
:102E84000007005080B584B000AF78607B685B6A4F
:102E9400FB60FB681B6C03F05003002B26D1FB681E
:102EA4001B6C43F40072FB681A64FB681B68DB68E4
:102EB40003F44063002B15D1FB685B7E002B11D11A
:102EC400FB681B6C23F48072FB681A64FB681B6C40
:102ED40003F48053002B05D1FB681B6C43F0010203
:102EE400FB681A64F868FFF7BDF804E0FB689B6BA5
:102EF4001B6B7868984700BF1037BD4680BD80B50E
:102F040084B000AF78607B685B6AFB60F868FFF7A9
:102F1400B3F800BF1037BD4680BD80B584B000AFA4
:102F240078607B685B6AFB60FB681B6C43F0400263
:102F3400FB681A64FB685B6C43F00402FB685A6428
:102F4400F868FFF7A3F800BF1037BD4680BD000046
:102F540080B584B000AF78600023FB607B681B6899
:102F64009B6803F00303012B08D17B681B681B6873
:102F740003F00103012B01D1012300E00023002B06
:102F840043D17B681B689A68224B1340002B0DD0F9
:102F94007B681B6C43F010027B681A647B685B6C73
:102FA40043F001027B685A6401232FE07B681B68AD
:102FB4009A687B681B6842F001029A60FFF722F866
:102FC400F8601BE0FFF71EF80246FB68D31A022BD9
:102FD40014D97B681B681B6803F00103012B0DD017
:102FE4007B681B6C43F010027B681A647B685B6C23
:102FF40043F001027B685A64012307E07B681B6885
:103004001B6803F00103012BDCD1002318461037A1
:10301400BD4680BD3F00008080B584B000AF7860BD
:103024000023FB607B681B689B6803F00303012B90
:1030340008D17B681B681B6803F00103012B01D1D5
:10304400012300E00023002B47D07B681B689B68AA
:1030540003F00D03012B0FD17B681B689A687B6812
:103064001B6842F002029A607B681B6803221A60A4
:10307400FEF7C8FFF86029E07B681B6C43F0100280
:103084007B681A647B685B6C43F001027B685A645A
:10309400012323E0FEF7B6FF0246FB68D31A022B96
:1030A40014D97B681B689B6803F00103012B0DD1C5
:1030B4007B681B6C43F010027B681A647B685B6C52
:1030C40043F001027B685A64012307E07B681B68B4
:1030D4009B6803F00103012BDCD000231846103752
:1030E400BD4680BD80B584B000AF78607B68002B9E
:1030F40001D10123EDE07B6893F82030DBB2002B93
:1031040002D17868FEF77CFD7B681B681A687B68CF
:103114001B6842F001021A60FEF774FFF86012E0C7
:10312400FEF770FF0246FB68D31A0A2B0BD97B68A3
:103134005B6A43F400327B685A627B68052283F839
:1031440020200123C5E07B681B685B6803F0010352
:10315400002BE5D07B681B681A687B681B6822F02B
:1031640002021A60FEF74EFFF86012E0FEF74AFF13
:103174000246FB68D31A0A2B0BD97B685B6A43F4BB
:1031840000327B685A627B68052283F82020012381
:103194009FE07B681B685B6803F00203002BE5D1AA
:1031A4007B681B7E012B08D17B681B681A687B68CF
:1031B4001B6842F080021A6007E07B681B681A688B
:1031C4007B681B6822F080021A607B685B7E012B9F
:1031D40008D17B681B681A687B681B6842F0400250
:1031E4001A6007E07B681B681A687B681B6822F01A
:1031F40040021A607B689B7E012B08D17B681B68A8
:103204001A687B681B6842F020021A6007E07B683A
:103214001B681A687B681B6822F020021A607B68AE
:10322400DB7E012B08D17B681B681A687B681B68EE
:1032340022F010021A6007E07B681B681A687B683A
:103244001B6842F010021A607B681B7F012B08D1B7
:103254007B681B681A687B681B6842F008021A6066
:1032640007E07B681B681A687B681B6822F0080209
:103274001A607B685B7F012B08D17B681B681A6826
:103284007B681B6842F004021A6007E07B681B68D5
:103294001A687B681B6822F004021A607B689A68CB
:1032A4007B68DB681A437B681B691A437B685B692C
:1032B40042EA03017B685B685A1E7B681B680A4309
:1032C400DA617B6800225A627B68012283F820203D
:1032D400002318461037BD4680BD80B584B000AFCA
:1032E40078607B6893F82030DBB2012B2ED17B68A9
:1032F400022283F820207B681B681A687B681B689D
:1033040022F001021A60FEF77DFEF86012E0FEF77B
:1033140079FE0246FB68D31A0A2B0BD97B685B6AD9
:1033240043F400327B685A627B68052283F82020CC
:10333400012312E07B681B685B6803F00103002B28
:10334400E5D17B6800225A62002306E07B685B6A51
:1033540043F400227B685A62012318461037BD46A5
:1033640080BD80B489B000AFF860B9607A603B601A
:10337400FB6893F82030FB77FB681B689B68BB6194
:10338400FB7F012B03D0FB7F022B40F0AD80BB6998
:1033940003F08063002B0AD1BB6903F00063002BA8
:1033A40005D1BB6903F08053002B00F09580BB6905
:1033B4001B0E03F003037B6101227B699A403B6887
:1033C4001A60BB689B68002B0DD1BB681B685A054B
:1033D400BB68DB68F96809681A437B6918331B0109
:1033E4000B441A600FE0BB685B68DA00BB689B683B
:1033F4001A43BB68DB68F96809681A437B691833A8
:103404001B010B441A60FB681968BB681A697B6965
:1034140018331B010B4404331A60BB681B7D012B5A
:1034240011D1FB681A687B6918331B0113440433F8
:103434001B68FA68116843F480727B6918331B01B6
:103444000B4404331A607B6807331B781A067B68C5
:1034540006331B781B041A437B6805331B781B0255
:1034640013437A68043212781046FA68116843EA02
:1034740000027B691B010B4403F5C6731A607B6869
:1034840003331B781A067B6802331B781B041A4328
:103494007B6801331B781B0213437A681278104649
:1034A400FA68116843EA00027B691B010B4403F5C7
:1034B400C4731A60FB681A687B6918331B011344D0
:1034C4001B68FA68116843F001027B6918331B0119
:1034D4000B441A6000230EE0FB685B6A43F400129D
:1034E400FB685A62012306E0FB685B6A43F48022AE
:1034F400FB685A62012318462437BD465DF8047BF5
:103504007047000080B485B000AF78607B6803F03A
:103514000703FB600C4BDB68BB60BA684FF6FF0324
:103524001340BB60FB681A02BB68134343F0BF63DC
:1035340043F40033BB60044ABB68D36000BF143754
:10354400BD465DF8047B704700ED00E080B400AF39
:10355400044BDB681B0A03F007031846BD465DF8FD
:10356400047B704700ED00E080B483B000AF0346F5
:10357400FB7197F90730002B0BDBFB7903F01F027B
:10358400074997F907305B09012000FA02F241F874
:10359400232000BF0C37BD465DF8047B704700BF95
:1035A40000E100E080B483B000AF03463960FB71F2
:1035B40097F90730002B0ADB3B68DAB20C4997F91C
:1035C40007301201D2B20B4483F800230AE03B68AF
:1035D400DAB20849FB7903F00F03043B1201D2B2BB
:1035E4000B441A7600BF0C37BD465DF8047B704768
:1035F40000E100E000ED00E080B489B000AFF860C5
:10360400B9607A60FB6803F00703FB61FB69C3F1EF
:103614000703042B28BF0423BB61FB690433062B77
:1036240002D9FB69033B00E000237B614FF0FF32CA
:10363400BB6902FA03F3DA43BB681A407B699A4018
:103644004FF0FF317B6901FA03F3D9437B680B40E8
:10365400134318462437BD465DF8047B70470000C9
:1036640080B582B000AF78607B68013BB3F1807FA6
:1036740001D301230FE00A4A7B68013B53600F2109
:103684004FF0FF30FFF78EFF054B00229A60044B8A
:1036940007221A60002318460837BD4680BD00BFC4
:1036A40010E000E080B582B000AF78607868FFF782
:1036B40029FF00BF0837BD4680BD80B586B000AF86
:1036C4000346B9607A60FB7300237B61FFF73EFF1A
:1036D40078617A68B9687869FFF78EFF024697F9CE
:1036E4000F3011461846FFF75DFF00BF1837BD467F
:1036F40080BD80B582B000AF0346FB7197F90730F7
:103704001846FFF731FF00BF0837BD4680BD80B5BE
:1037140082B000AF78607868FFF7A2FF03461846CE
:103724000837BD4680BD80B582B000AF78607B6845
:10373400002B01D1012314E07B681B79DBB2002B41
:1037440005D17B6800225A717868FEF79DFA7B6880
:1037540002221A717B6800221A617B6801221A71A5
:10376400002318460837BD4680BD80B483B000AF3F
:10377400786039607B685B79012B01D1022339E0E1
:103784007B6801225A717B6802221A717B681B686C
:10379400196801223B689A407B681B680A431A60D7
:1037A4003B68002B0FD17B681B681B6803F03C034C
:1037B4003C2B18D17B681B685A687B681B6842F0F5
:1037C40001025A600FE07B681B681B6803F47013E6
:1037D400B3F5701F07D17B681B685A687B681B6848
:1037E40042F002025A607B6801221A717B6800224F
:1037F4005A71002318460C37BD465DF8047B7047A8
:1038040080B487B000AFF860B9607A6000237B6150
:1038140000233B61FB685B79012B01D1022336E075
:10382400FB6801225A71FB6802221A71FB681B684B
:103834001B687B6140F6FE727B6802FA03F3DB438C
:103844007A6913407B61BB681A68BB685B68134381
:103854003B613A697B6802FA03F37A6913437B613B
:10386400FB681B687A691A60FB681B681968C022C8
:103874007B6802FA03F3DA43FB681B680A401A60A8
:10388400FB6801221A71FB6800225A710023184652
:103894001C37BD465DF8047B704780B584B000AF2B
:1038A40078600023FB607B68002B01D1012337E0A3
:1038B4007B68022283F821207B681B681B68FB60FD
:1038C400FB6823F47F5323F03003FB607B685A6862
:1038D4007B689B681A437B68DB681A437B681B69B7
:1038E4001A437B685B691A437B689B691A437B684C
:1038F400DB691343FA681343FB607B681B68FA684F
:103904001A60786800F040F97B6800229A637B684B
:10391400012283F821207B68002283F820200023E1
:1039240018461037BD4680BD80B586B000AFF8603C
:10393400B9607A603B600023FB75FB6893F8203024
:10394400012B01D102234AE0FB68012283F82020E5
:10395400FB6893F82130012B3AD1FB68022283F8EB
:103964002120FB6800229A63FB681B681A68FB68C5
:103974001B6822F001021A603B687A68B968F8682B
:1039840000F0D4F8FB68DB6A002B08D0FB681B68E6
:103994001A68FB681B6842F00E021A600FE0FB68AD
:1039A4001B681A68FB681B6842F00A021A60FB680D
:1039B4001B681A68FB681B6822F004021A60FB6823
:1039C4001B681A68FB681B6842F001021A6005E074
:1039D400FB68002283F820200223FB75FB7D184638
:1039E4001837BD4680BD80B584B000AF78607B6871
:1039F400DB6B1B68FB607B681B681B68BB607B68B8
:103A04001B6C04229A40FB681340002B24D0BB6833
:103A140003F00403002B1FD07B681B681B6803F0B2
:103A24002003002B07D17B681B681A687B681B681E
:103A340022F004021A607B681A6C7B68DB6B042139
:103A440001FA02F25A607B68DB6A002B6AD07B6859
:103A5400DB6A7868984765E07B681B6C02229A40B1
:103A6400FB681340002B2CD0BB6803F00203002B2F
:103A740027D07B681B681B6803F02003002B0BD145
:103A84007B681B681A687B681B6822F00A021A604C
:103A94007B68012283F821207B681A6C7B68DB6BCE
:103AA400022101FA02F25A607B68002283F8202086
:103AB4007B689B6A002B35D07B689B6A7868984743
:103AC40030E07B681B6C08229A40FB681340002B93
:103AD40028D0BB6803F00803002B23D07B681B6845
:103AE4001A687B681B6822F00E021A607B681A6CE5
:103AF4007B68DB6B012101FA02F25A607B680122C8
:103B04009A637B68012283F821207B68002283F872
:103B140020207B681B6B002B04D07B681B6B7868B0
:103B24009847FFE700BF1037BD4680BD80B485B01D
:103B340000AFF860B9607A603B60FB681A6CFB68A0
:103B4400DB6B012101FA02F25A60FB681B683A68D8
:103B54005A60FB685B68102B08D1FB681B687A68A5
:103B64009A60FB681B68BA68DA6007E0FB681B6848
:103B7400BA689A60FB681B687A68DA6000BF143719
:103B8400BD465DF8047B704780B483B000AF7860B5
:103B94007B681B681A46144B9A420FD87B681B68D3
:103BA4001A46124B1344124AA2FB03231B099A0020
:103BB4007B681A647B680F4ADA630EE07B681B68D3
:103BC4001A460D4B13440A4AA2FB03231B099A000D
:103BD4007B681A647B68094ADA6300BF0C37BD4608
:103BE4005DF8047B704700BF07040240F8FFFDBF87
:103BF400CDCCCCCC00000240F8FBFDBF0004024059
:103C040080B487B000AF7860396000237B6160E1E5
:103C14003B681A6801217B6901FA03F31340FB60D6
:103C2400FB68002B00F052813B685B6803F00303E0
:103C3400012B05D03B685B6803F00303022B30D1F2
:103C44007B689B683B617B695B00032202FA03F398
:103C5400DB433A6913403B613B68DA687B695B008C
:103C640002FA03F33A6913433B617B683A699A6049
:103C74007B685B683B6101227B6902FA03F3DB43E7
:103C84003A6913403B613B685B681B0903F001021E
:103C94007B6902FA03F33A6913433B617B683A692F
:103CA4005A603B685B6803F00303032B17D07B68FF
:103CB400DB683B617B695B00032202FA03F3DB43AD
:103CC4003A6913403B613B689A687B695B0002FA7E
:103CD40003F33A6913433B617B683A69DA603B68F2
:103CE4005B6803F00303022B23D17B69DA087B684A
:103CF400083253F822303B617B6903F007039B00D1
:103D04000F2202FA03F3DB433A6913403B613B6839
:103D14001A697B6903F007039B0002FA03F33A690B
:103D240013433B617B69DA087B680832396943F8DD
:103D340022107B681B683B617B695B00032202FAEB
:103D440003F3DB433A6913403B613B685B6803F070
:103D540003027B695B0002FA03F33A6913433B6194
:103D64007B683A691A603B685B6803F44033002B54
:103D740000F0AC805E4B9B695D4A43F001039361A4
:103D84005B4B9B6903F00103BB60BB68594A7B69C9
:103D94009B08023352F823303B617B6903F0030331
:103DA4009B000F2202FA03F3DB433A6913403B61A1
:103DB4007B68B3F1904F25D07B684F4A93421FD064
:103DC4007B684E4A934219D07B684D4A934213D084
:103DD4007B684C4A93420DD07B684B4A934207D090
:103DE4007B684A4A934201D106230CE007230AE088
:103DF400052308E0042306E0032304E0022302E091
:103E0400012300E000237A6902F003029200934048
:103E14003A6913433B6137497B699B0802333A692A
:103E240041F823203A4B9B683B61FB68DB433A69CA
:103E340013403B613B685B6803F48013002B03D0A1
:103E44003A69FB6813433B61314A3B699360304BE9
:103E5400DB683B61FB68DB433A6913403B613B68C9
:103E64005B6803F40013002B03D03A69FB68134327
:103E74003B61274A3B69D360254B5B683B61FB6828
:103E8400DB433A6913403B613B685B6803F40033EE
:103E9400002B03D03A69FB6813433B611C4A3B691E
:103EA40053601B4B1B683B61FB68DB433A6913405F
:103EB4003B613B685B6803F48033002B03D03A69B1
:103EC400FB6813433B61124A3B6913607B6901330E
:103ED4007B613B681A687B6922FA03F3002B7FF449
:103EE40097AE00BF00BF1C37BD465DF8047B70472A
:103EF400001002400000014000040048000800488F
:103F0400000C004800100048001400480018004845
:103F14000004014080B483B000AF78600B467B801E
:103F240013467B707B78002B03D07A887B689A6178
:103F340002E07A887B689A6200BF0C37BD465DF860
:103F4400047B704780B582B000AF78607B68002B3B
:103F540001D101238DE07B6893F84130DBB2002B63
:103F640006D17B68002283F840207868FDF7CAFEFA
:103F74007B68242283F841207B681B681A687B686D
:103F84001B6822F001021A607B685A687B681B6810
:103F940022F070621A617B681B689A687B681B68F0
:103FA40022F400429A607B68DB68012B07D17B68AE
:103FB4009A687B681B6842F400429A6006E07B685A
:103FC4009A687B681B6842F404429A607B68DB68E9
:103FD400022B08D17B681B685A687B681B6842F413
:103FE40000625A6007E07B681B685A687B681B683C
:103FF40022F400625A607B681B685B687A68126806
:1040040043F0007343F4004353607B681B68DA6831
:104014007B681B6822F40042DA607B681A697B685B
:104024005B6942EA03017B689B691A027B681B682F
:104034000A43DA607B68D9697B681A6A7B681B6803
:104044000A431A607B681B681A687B681B6842F025
:1040540001021A607B6800225A647B68202283F87C
:1040640041207B6800221A637B68002283F8422087
:10407400002318460837BD4680BD000080B588B0CF
:1040840002AFF860084611461A4603467B810B4688
:104094003B811346FB80FB6893F84130DBB2202B55
:1040A40040F0F9803B6A002B02D0BB8C002B05D179
:1040B400FB684FF400725A640123EDE0FB6893F847
:1040C4004030012B01D10223E6E0FB68012283F892
:1040D4004020FDF797FF78617B6900931923012243
:1040E4004FF40041F86800F0C3FA0346002B01D0F6
:1040F4000123D1E0FB68212283F84120FB684022A0
:1041040083F84220FB6800225A64FB683A6A5A62C8
:10411400FB68BA8C5A85FB6800225A63F8883A898E
:1041240079897B690193BB6A00930346F86800F0C0
:10413400D3F90346002B05D0FB68002283F8402006
:104144000123A9E0FB685B8D9BB2FF2B0ED9FB68B2
:10415400FF221A85FB681B8DDAB27989002300934C
:104164004FF08073F86800F047FC0FE0FB685B8D4C
:104174009AB2FB681A85FB681B8DDAB27989002331
:1041840000934FF00073F86800F036FC7A69B96A5E
:10419400F86800F0C6FA0346002B01D001237BE047
:1041A400FB685B6A1A78FB681B689A62FB685B6A47
:1041B4005A1CFB685A62FB685B8D9BB2013B9AB246
:1041C400FB685A85FB681B8D013B9AB2FB681A8514
:1041D400FB685B8D9BB2002B34D0FB681B8D002BDE
:1041E40030D17B690093BB6A00228021F86800F01B
:1041F4003FFA0346002B01D001234DE0FB685B8DA1
:104204009BB2FF2B0ED9FB68FF221A85FB681B8D1E
:10421400DAB27989002300934FF08073F86800F0D4
:10422400EBFB0FE0FB685B8D9AB2FB681A85FB68B9
:104234001B8DDAB27989002300934FF00073F8687C
:1042440000F0DAFBFB685B8D9BB2002B9ED17A6990
:10425400B96AF86800F0ACFA0346002B01D00123D8
:104264001AE0FB681B682022DA61FB681B68596846
:10427400FB681A680A4B0B405360FB68202283F8E2
:104284004120FB68002283F84220FB68002283F867
:104294004020002300E0022318461837BD4680BDA5
:1042A40000E800FE80B588B002AFF8600846114609
:1042B4001A4603467B810B463B811346FB80FB6811
:1042C40093F84130DBB2202B40F0FD803B6A002B99
:1042D40002D0BB8C002B05D1FB684FF400725A64EA
:1042E4000123F1E0FB6893F84030012B01D1022354
:1042F400EAE0FB68012283F84020FDF783FE786141
:104304007B690093192301224FF40041F86800F0FF
:10431400AFF90346002B01D00123D5E0FB6822222C
:1043240083F84120FB68402283F84220FB68002286
:104334005A64FB683A6A5A62FB68BA8C5A85FB680D
:1043440000225A63F8883A8979897B690193BB6AA8
:1043540000930346F86800F013F90346002B05D0D8
:10436400FB68002283F840200123ADE0FB685B8DED
:104374009BB2FF2B0ED9FB6801221A85FB681B8DAB
:10438400DAB27989524B00934FF08073F86800F0E9
:1043940033FB0FE0FB685B8D9AB2FB681A85FB6800
:1043A4001B8DDAB279894A4B00934FF00073F86899
:1043B40000F022FB7B690093BB6A00220421F868A9
:1043C40000F056F90346002B01D001237CE0FB6882
:1043D4001B685A6AFB685B6AD2B21A70FB685B6A34
:1043E4005A1CFB685A62FB681B8D013B9AB2FB683E
:1043F4001A85FB685B8D9BB2013B9AB2FB685A85B8
:10440400FB685B8D9BB2002B34D0FB681B8D002BAB
:1044140030D17B690093BB6A00228021F86800F0E8
:1044240027F90346002B01D001234DE0FB685B8D87
:104434009BB2FF2B0ED9FB6801221A85FB681B8DEA
:10444400DAB27989002300934FF08073F86800F0A2
:10445400D3FA0FE0FB685B8D9AB2FB681A85FB68A0
:104464001B8DDAB27989002300934FF00073F8684A
:1044740000F0C2FAFB685B8D9BB2002B9AD17A697B
:10448400B96AF86800F094F90346002B01D00123BF
:104494001AE0FB681B682022DA61FB681B68596814
:1044A400FB681A680B4B0B405360FB68202283F8AF
:1044B4004120FB68002283F84220FB68002283F835
:1044C4004020002300E0022318461837BD4680BD73
:1044D4000024008000E800FE80B586B002AFF860DA
:1044E400084611461A4603467B810B463B81134618
:1044F400FB80FB88DAB27989204B00934FF08073FC
:10450400F86800F079FAFA69B969F86800F009F90D
:104514000346002B01D001232CE0FB88012B05D19D
:104524003B89DAB2FB681B689A6215E03B891B0A77
:104534009BB2DAB2FB681B689A62FA69B969F868D7
:1045440000F0EFF80346002B01D0012312E03B8971
:10455400DAB2FB681B689A62FB690093BB690022AC
:104564008021F86800F084F80346002B01D0012371
:1045740000E0002318461037BD4680BD00200080AF
:1045840080B586B002AFF860084611461A46034665
:104594007B810B463B811346FB80FB88DAB2798929
:1045A400204B00930023F86800F026FAFA69B969F1
:1045B400F86800F0B6F80346002B01D001232CE084
:1045C400FB88012B05D13B89DAB2FB681B689A6230
:1045D40015E03B891B0A9BB2DAB2FB681B689A623E
:1045E400FA69B969F86800F09CF80346002B01D019
:1045F400012312E03B89DAB2FB681B689A62FB690B
:104604000093BB6900224021F86800F031F80346AA
:10461400002B01D0012300E0002318461037BD46CB
:1046240080BD00BF0020008080B483B000AF7860FC
:104634007B681B689B6903F00203022B03D17B6830
:104644001B6800229A627B681B689B6903F0010364
:10465400012B07D07B681B689A697B681B6842F052
:1046640001029A6100BF0C37BD465DF8047B7047B8
:1046740080B584B000AFF860B9603B601346FB714D
:104684003BE0BA693968F86800F0D6F80346002BB5
:1046940001D0012341E03B68B3F1FF3F2DD0FDF78A
:1046A400B1FC0246BB69D31A3A689A4202D33B680A
:1046B400002B22D1FB681B689A69BB681340BA6857
:1046C4009A420CBF01230023DBB21A46FB799A42BB
:1046D40013D1FB685B6C43F02002FB685A64FB68EF
:1046E400202283F84120FB68002283F84220FB68E3
:1046F400002283F8402001230FE0FB681B689A69BD
:10470400BB681340BA689A420CBF01230023DBB292
:104714001A46FB799A42B4D0002318461037BD4696
:1047240080BD80B584B000AFF860B9607A6033E0D2
:104734007A68B968F86800F07FF80346002B01D066
:10474400012331E0BB68B3F1FF3F25D0FDF75AFCEC
:1047540002467B68D31ABA689A4202D3BB68002B1C
:104764001AD1FB681B689B6903F00203022B13D068
:10477400FB685B6C43F02002FB685A64FB682022F0
:1047840083F84120FB68002283F84220FB68002262
:1047940083F84020012307E0FB681B689B6903F052
:1047A4000203022BC4D1002318461037BD4680BD36
:1047B40080B584B000AFF860B9607A602FE07A68A1
:1047C400B968F86800F038F80346002B01D00123DB
:1047D4002DE0FDF717FC02467B68D31ABA689A42AB
:1047E40002D3BB68002B1AD1FB681B689B6903F0DA
:1047F4002003202B13D0FB685B6C43F02002FB6882
:104804005A64FB68202283F84120FB68002283F865
:104814004220FB68002283F84020012307E0FB6864
:104824001B689B6903F02003202BC8D10023184682
:104834001037BD4680BD000080B58AB000AFF86077
:10484400B9607A60002387F82730FB681B689B698E
:10485400BB6100233B627B68FB61BB6903F010030F
:10486400002B68D0FB681B681022DA6149E0BB6842
:10487400B3F1FF3F45D0FDF7C5FB0246FB69D31AF0
:10488400BA689A4202D3BB68002B3AD1FB681B6812
:104894005B6803F480437B61FB6893F84230FB74EC
:1048A400FB681B689B6903F40043B3F5004F21D1F7
:1048B4007B69B3F5804F1DD0FB7C202B1AD0FB689D
:1048C4001B685A68FB681B6842F480425A60FDF713
:1048D40099FBF8610EE0FDF795FB0246FB69D31ADC
:1048E400192B07D93B6A43F020033B62012387F865
:1048F400273006E0FB681B689B6903F02003202B2C
:10490400E9D1FB681B689B6903F02003202B03D0CB
:1049140097F82730002BAAD097F82730002B03D123
:10492400FB681B682022DA613B6A43F004033B62A4
:10493400012387F82730FB681B689B69BB61BB694F
:1049440003F48073002B0BD03B6A43F001033B62FA
:10495400FB681B684FF48072DA61012387F8273003
:10496400BB6903F48063002B0BD03B6A43F008035C
:104974003B62FB681B684FF48062DA61012387F8AD
:104984002730BB6903F40073002B0BD03B6A43F060
:1049940002033B62FB681B684FF40072DA61012377
:1049A40087F8273097F82730002B1CD0F868FFF7DA
:1049B4003BFEFB681B685968FB681A680D4B0B408B
:1049C4005360FB685A6C3B6A1A43FB685A64FB6881
:1049D400202283F84120FB68002283F84220FB68F0
:1049E400002283F8402097F8273018462837BD4620
:1049F40080BD00BF00E800FE80B487B000AFF8605F
:104A04007B600B467B8113467B727B89C3F309026F
:104A14007B7A1B0403F47F031A437B681A433B6AC3
:104A2400134323F000437B61FB681B685A683B6AAD
:104A34005B0D03F48061084B0B43DB4302EA030183
:104A4400FB681B687A690A435A6000BF1C37BD467D
:104A54005DF8047B704700BFFF63FF0380B483B03D
:104A640000AF786039607B6893F84130DBB2202B6B
:104A740038D17B6893F84030012B01D1022332E016
:104A84007B68012283F840207B68242283F841203C
:104A94007B681B681A687B681B6822F001021A6035
:104AA4007B681B681A687B681B6822F480521A6052
:104AB4007B681B6819687B681B683A680A431A603C
:104AC4007B681B681A687B681B6842F001021A60E5
:104AD4007B68202283F841207B68002283F84020F1
:104AE400002300E0022318460C37BD465DF8047B22
:104AF400704780B485B000AF786039607B6893F804
:104B04004130DBB2202B39D17B6893F84030012B44
:104B140001D1022333E07B68012283F840207B68C3
:104B2400242283F841207B681B681A687B681B6811
:104B340022F001021A607B681B681B68FB60FB683B
:104B440023F47063FB603B681B02FA681343FB6049
:104B54007B681B68FA681A607B681B681A687B6844
:104B64001B6842F001021A607B68202283F841200E
:104B74007B68002283F84020002300E002231846CB
:104B84001437BD465DF8047B7047000080B5ADF571
:104B9400027D00AF07F50273A3F50173186007F5F2
:104BA4000273A3F501731B68002B02D1012301F0EA
:104BB4000AB807F50273A3F501731B681B6803F0B9
:104BC4000103002B00F06181AE4B5B6803F00C0322
:104BD400042B0CD0AB4B5B6803F00C03082B57D1B0
:104BE400A84B5B6803F4C033B3F5803F50D14FF456
:104BF4000033C7F8F431D7F8F43193FAA3F3C7F8C4
:104C0400F031D7F8F031B3FA83F3DBB23F2B02D89B
:104C14009C4B1B6815E04FF40033C7F8EC31D7F810
:104C2400EC3193FAA3F3C7F8E8314FF40033C7F833
:104C3400E431D7F8E43193FAA3F3C7F8E031914BA8
:104C44005B6A4FF40032C7F8DC21D7F8DC2192FA12
:104C5400A2F2C7F8D821D7F8D821B2FA82F2D2B298
:104C640042F02002D2B202F01F02012101FA02F244
:104C74001340002B00F0088107F50273A3F50173BC
:104C84001B685B68002B40F0FF80012300F09BBF92
:104C940007F50273A3F501731B685B68B3F5803FE6
:104CA40006D1784B1B68774A43F48033136036E0AF
:104CB40007F50273A3F501731B685B68002B0CD125
:104CC400704B1B686F4A23F4803313606D4B1B6871
:104CD4006C4A23F48023136021E007F50273A3F5E3
:104CE40001731B685B68B3F5A02F0CD1654B1B687F
:104CF400644A43F480231360624B1B68614A43F4A3
:104D0400803313600BE05F4B1B685E4A23F48033EF
:104D140013605C4B1B685B4A23F48023136007F524
:104D24000273A3F501731B685B68002B54D0FDF775
:104D340069F9C7F800020AE0FDF764F90246D7F8FA
:104D44000032D31A642B02D9032300F03CBF4FF482
:104D54000033C7F8D431D7F8D43193FAA3F3C7F8A2
:104D6400D031D7F8D031B3FA83F3DBB23F2B02D87A
:104D7400444B1B6815E04FF40033C7F8CC31D7F827
:104D8400CC3193FAA3F3C7F8C8314FF40033C7F812
:104D9400C431D7F8C43193FAA3F3C7F8C031394BFF
:104DA4005B6A4FF40032C7F8BC21D7F8BC2192FAF1
:104DB400A2F2C7F8B821D7F8B821B2FA82F2D2B277
:104DC40042F02002D2B202F01F02012101FA02F2E3
:104DD4001340002BB0D058E0FDF714F9C7F80002D7
:104DE4000AE0FDF70FF90246D7F80032D31A642B14
:104DF40002D9032300F0E7BE4FF40033C7F8B431FF
:104E0400D7F8B43193FAA3F3C7F8B031D7F8B03177
:104E1400B3FA83F3DBB23F2B02D81A4B1B6815E0BD
:104E24004FF40033C7F8AC31D7F8AC3193FAA3F39D
:104E3400C7F8A8314FF40033C7F8A431D7F8A43128
:104E440093FAA3F3C7F8A0310E4B5B6A4FF4003218
:104E5400C7F89C21D7F89C2192FAA2F2C7F89821AE
:104E6400D7F89821B2FA82F2D2B242F02002D2B23A
:104E740002F01F02012101FA02F21340002BB0D10B
:104E840003E000BF0010024000BF07F50273A3F562
:104E940001731B681B6803F00203002B00F06D8193
:104EA400CD4B5B6803F00C03002B0CD0CA4B5B6842
:104EB40003F00C03082B6ED1C74B5B6803F4C033BB
:104EC400B3F5004F67D10223C7F89431D7F8943172
:104ED40093FAA3F3C7F89031D7F89031B3FA83F378
:104EE400DBB23F2B02D8BC4B1B6813E00223C7F88C
:104EF4008C31D7F88C3193FAA3F3C7F888310223A5
:104F0400C7F88431D7F8843193FAA3F3C7F8803112
:104F1400B14B5B6A0222C7F87C21D7F87C2192FA54
:104F2400A2F2C7F87821D7F87821B2FA82F2D2B285
:104F340042F02002D2B202F01F02012101FA02F271
:104F44001340002B0AD007F50273A3F501731B6805
:104F5400DB68012B02D0012300F035BE9E4B1B6899
:104F640023F0F80207F50273A3F501731B681B69AC
:104F7400F821C7F87411D7F8741191FAA1F1C7F8A0
:104F84007011D7F87011B1FA81F1C9B28B4092490E
:104F940013430B60F1E007F50273A3F501731B687B
:104FA400DB68002B00F083800123C7F86C31D7F84D
:104FB4006C3193FAA3F3C7F86831D7F86831B3FAC0
:104FC40083F3DBB203F1845303F584139B001A4685
:104FD40001231360FDF716F8C7F800020AE0FDF795
:104FE40011F80246D7F80032D31A022B02D9032350
:104FF40000F0E9BD0223C7F86431D7F8643193FAAD
:10500400A3F3C7F86031D7F86031B3FA83F3DBB2A6
:105014003F2B02D8704B1B6813E00223C7F85C31A6
:10502400D7F85C3193FAA3F3C7F858310223C7F8D1
:105034005431D7F8543193FAA3F3C7F85031664B7F
:105044005B6A0222C7F84C21D7F84C2192FAA2F2EB
:10505400C7F84821D7F84821B2FA82F2D2B242F016
:105064002002D2B202F01F02012101FA02F213401F
:10507400002BB4D0584B1B6823F0F80207F50273D9
:10508400A3F501731B681B69F821C7F84411D7F80D
:10509400441191FAA1F1C7F84011D7F84011B1FABF
:1050A40081F1C9B28B404C4913430B6065E0012385
:1050B400C7F83C31D7F83C3193FAA3F3C7F8383139
:1050C400D7F83831B3FA83F3DBB203F1845303F531
:1050D40084139B001A4600231360FCF793FFC7F860
:1050E40000020AE0FCF78EFF0246D7F80032D31A1A
:1050F400022B02D9032300F066BD0223C7F8343122
:10510400D7F8343193FAA3F3C7F83031D7F83031F4
:10511400B3FA83F3DBB23F2B02D82F4B1B6813E0A7
:105124000223C7F82C31D7F82C3193FAA3F3C7F82C
:1051340028310223C7F82431D7F8243193FAA3F392
:10514400C7F82031244B5B6A0222C7F81C21D7F828
:105154001C2192FAA2F2C7F81821D7F81821B2FA42
:1051640082F2D2B242F02002D2B202F01F02012136
:1051740001FA02F21340002BB4D107F50273A3F530
:1051840001731B681B6803F00803002B00F01981EE
:1051940007F50273A3F501731B685B69002B00F02C
:1051A40082800123C7F81431D7F8143193FAA3F39A
:1051B400C7F81031D7F81031B3FA83F3DBB21A46CB
:1051C400064B13449B001A4601231360FCF71AFF95
:1051D400C7F800020FE000BF0010024020819010C9
:1051E400FCF710FF0246D7F80032D31A022B02D97B
:1051F400032300F0E8BC0223C7F80C31D7F80C31C4
:1052040093FAA3F207F50273A3F580731A6007F506
:105214000273A3F5827302221A6007F50273A3F5E1
:1052240082731B6893FAA3F207F50273A3F58473E0
:105234001A6007F50273A3F5867302221A6007F554
:105244000273A3F586731B6893FAA3F207F502733E
:10525400A3F588731A60B04B5A6A07F50273A3F575
:105264008A730221196007F50273A3F58A731B6818
:1052740093FAA3F107F50273A3F58C73196007F58C
:105284000273A3F58C731B68B3FA83F3DBB243F0A8
:105294006003DBB203F01F03012101FA03F313409F
:1052A400002B9DD08DE007F50273A3F58E730122C8
:1052B4001A6007F50273A3F58E731B6893FAA3F2C1
:1052C40007F50273A3F590731A6007F50273A3F54B
:1052D40090731B68B3FA83F3DBB21A468F4B134403
:1052E4009B001A4600231360FCF78CFEC7F80002EB
:1052F4000AE0FCF787FE0246D7F80032D31A022BE5
:1053040002D9032300F05FBC07F50273A3F592737F
:1053140002221A6007F50273A3F592731B6893FACD
:10532400A3F207F50273A3F594731A6007F50273E9
:10533400A3F5967302221A6007F50273A3F5967318
:105344001B6893FAA3F207F50273A3F598731A6026
:1053540007F50273A3F59A7302221A6007F5027324
:10536400A3F59A731B6893FAA3F207F50273A3F5E6
:105374009C731A60684B5A6A07F50273A3F59E730F
:105384000221196007F50273A3F59E731B6893FA53
:10539400A3F107F50273A3F5A073196007F502736F
:1053A400A3F5A0731B68B3FA83F3DBB243F0600385
:1053B400DBB203F01F03012101FA03F31340002BB6
:1053C40097D107F50273A3F501731B681B6803F0FB
:1053D4000403002B00F09C81002387F807324E4B16
:1053E400DB6903F08053002B16D14B4BDB694A4A2F
:1053F40043F08053D361484BDB6903F0805207F5D7
:105404000273A3F5FE731A6007F50273A3F5FE7326
:105414001B68012387F80732414B1B6803F4807330
:10542400002B1AD13E4B1B683D4A43F48073136032
:10543400FCF7E8FDC7F8000209E0FCF7E3FD0246CB
:10544400D7F80032D31A642B01D90323BBE3344BBE
:105454001B6803F48073002BEFD007F50273A3F5E8
:1054640001731B689B68012B06D12B4B1B6A2A4ACC
:1054740043F00103136235E007F50273A3F50173EA
:105484001B689B68002B0CD1234B1B6A224A23F018
:1054940001031362204B1B6A1F4A23F004031362A7
:1054A40020E007F50273A3F501731B689B68052BC5
:1054B4000CD1194B1B6A184A43F004031362164BB0
:1054C4001B6A154A43F0010313620BE0124B1B6A7B
:1054D400114A23F0010313620F4B1B6A0E4A23F097
:1054E4000403136207F50273A3F501731B689B6839
:1054F400002B00F08580FCF785FDC7F8000211E061
:10550400FCF780FD0246D7F80032D31A41F2883204
:10551400934207D9032356E30010024020819010E0
:105524000070004007F50273A3F5A27302221A600B
:1055340007F50273A3F5A2731B6893FAA3F207F5A8
:105544000273A3F5A4731A6007F50273A3F5A67397
:1055540002221A6007F50273A3F5A6731B6893FA77
:10556400A3F207F50273A3F5A8731A6007F5027393
:10557400A3F5A8731B68B3FA83F3DBB223F05F03CC
:10558400DBB2002B02D1984B1B6A13E007F50273C0
:10559400A3F5AA7302221A6007F50273A3F5AA738E
:1055A4001B6893FAA3F207F50273A3F5AC731A60B0
:1055B4008D4B5B6A07F50272A2F5AE72022111608F
:1055C40007F50272A2F5AE72126892FAA2F107F51B
:1055D4000272A2F5B072116007F50272A2F5B07200
:1055E4001268B2FA82F2D2B242F04002D2B202F0AF
:1055F4001F02012101FA02F21340002B80D07DE04A
:10560400FCF700FDC7F800020BE0FCF7FBFC0246C8
:10561400D7F80032D31A41F28832934201D90323D6
:10562400D1E207F50273A3F5B27302221A6007F5FB
:105634000273A3F5B2731B6893FAA3F207F502731E
:10564400A3F5B4731A6007F50273A3F5B6730222C7
:105654001A6007F50273A3F5B6731B6893FAA3F2F5
:1056640007F50273A3F5B8731A6007F50273A3F57F
:10567400B8731B68B3FA83F3DBB223F05F03DBB2C6
:10568400002B02D1584B1B6A13E007F50273A3F5F4
:10569400BA7302221A6007F50273A3F5BA731B6882
:1056A40093FAA3F207F50273A3F5BC731A604E4B89
:1056B4005B6A07F50272A2F5BE720221116007F55A
:1056C4000272A2F5BE72126892FAA2F107F5027292
:1056D400A2F5C072116007F50272A2F5C0721268D9
:1056E400B2FA82F2D2B242F04002D2B202F01F0207
:1056F400012101FA02F21340002B86D197F80732F8
:10570400012B05D1384BDB69374A23F08053D36131
:1057140007F50273A3F501731B689B69002B00F066
:105724005182314B5B6803F00C03082B00F00F82AD
:1057340007F50273A3F501731B689B69022B40F004
:10574400658107F50273A3F5C2734FF080721A6086
:1057540007F50273A3F5C2731B6893FAA3F207F566
:105764000273A3F5C4731A6007F50273A3F5C47337
:105774001B68B3FA83F3DBB203F1845303F5841398
:105784009B001A4600231360FCF73CFCC7F8000298
:1057940009E0FCF737FC0246D7F80032D31A022B93
:1057A40001D903230FE207F50273A3F5C6734FF083
:1057B40000721A6007F50273A3F5C6731B6893FAA7
:1057C400A3F207F50273A3F5C8731A6007F5027311
:1057D400A3F5C8731B68B3FA83F3DBB23F2B05D878
:1057E400014B1B682AE000BF0010024007F502735A
:1057F400A3F5CA734FF000721A6007F50273A3F59C
:10580400CA731B6893FAA3F207F50273A3F5CC736A
:105814001A6007F50273A3F5CE734FF000721A6095
:1058240007F50273A3F5CE731B6893FAA3F207F589
:105834000273A3F5D0731A60CA4B5B6A07F5027250
:10584400A2F5D2724FF00071116007F50272A2F551
:10585400D272126892FAA2F107F50272A2F5D4721A
:10586400116007F50272A2F5D4721268B2FA82F2DC
:10587400D2B242F02002D2B202F01F02012101FA98
:1058840002F21340002B84D1B64BDB6A23F00F02E3
:1058940007F50273A3F501731B685B6AB1491343EF
:1058A400CB62B04B5B6823F4761207F50273A3F561
:1058B40001731B68196A07F50273A3F501731B686A
:1058C400DB690B43A74913434B6007F50273A3F548
:1058D400D6734FF080721A6007F50273A3F5D6737E
:1058E4001B6893FAA3F207F50273A3F5D8731A6041
:1058F40007F50273A3F5D8731B68B3FA83F3DBB21D
:1059040003F1845303F584139B001A4601231360A7
:10591400FCF778FBC7F8000209E0FCF773FB0246CA
:10592400D7F80032D31A022B01D903234BE107F530
:105934000273A3F5DA734FF000721A6007F502736D
:10594400A3F5DA731B6893FAA3F207F50273A3F5C0
:10595400DC731A6007F50273A3F5DC731B68B3FAF2
:1059640083F3DBB23F2B02D87E4B1B6827E007F59D
:105974000273A3F5DE734FF000721A6007F5027329
:10598400A3F5DE731B6893FAA3F207F50273A3F57C
:10599400E0731A6007F50273A3F5E2734FF0007227
:1059A4001A6007F50273A3F5E2731B6893FAA3F276
:1059B40007F50273A3F5E4731A606A4B5B6A07F593
:1059C4000272A2F5E6724FF00071116007F50272DF
:1059D400A2F5E672126892FAA2F107F50272A2F534
:1059E400E872116007F50272A2F5E8721268B2FA61
:1059F40082F2D2B242F02002D2B202F01F0201219E
:105A040001FA02F21340002B87D0DBE007F50273A2
:105A1400A3F5EA734FF080721A6007F50273A3F5D9
:105A2400EA731B6893FAA3F207F50273A3F5EC7308
:105A34001A6007F50273A3F5EC731B68B3FA83F3DA
:105A4400DBB203F1845303F584139B001A4600234D
:105A54001360FCF7D7FAC7F8000209E0FCF7D2FAA2
:105A64000246D7F80032D31A022B01D90323AAE045
:105A740007F50273A3F5EE734FF000721A6007F591
:105A84000273A3F5EE731B6893FAA3F207F502738E
:105A9400A3F5F0731A6007F50273A3F5F0731B689E
:105AA400B3FA83F3DBB23F2B02D82E4B1B6827E0FB
:105AB40007F50273A3F5F2734FF000721A6007F54D
:105AC4000273A3F5F2731B6893FAA3F207F502734A
