:020000040800F2
:100000000000012019260008D11B0008D31B00089E
:10001000D51B0008D71B0008D91B000800000000F2
:10002000000000000000000000000000DB1B0008D2
:10003000DD1B000800000000DF1B0008E11B0008BA
:100040006926000869260008692600086926000854
:100050006926000869260008692600086926000844
:100060006926000869260008692600086926000834
:100070006926000869260008692600086926000824
:100080006926000869260008692600086926000814
:100090006926000869260008692600086926000804
:1000A00069260008692600086926000869260008F4
:1000B00069260008692600086926000869260008E4
:1000C00069260008692600086926000869260008D4
:1000D00069260008692600086926000869260008C4
:1000E00069260008692600086926000869260008B4
:1000F00069260008692600086926000869260008A4
:1001000069260008000000000000000069260008C1
:100110006926000869260008E51B0008F91B00088D
:100120006926000869260008692600086926000873
:100130006926000869260008000000000000000091
:1001400069260008692600086926000800000000EA
:10015000000000000000000000000000000000009F
:100160006926000869260008692600086926000833
:100170006926000869260008692600086926000823
:100180006926000869260008000000000000000041
:0401900069260008D4
:1001940010B5054C237833B9044B13B10448AFF3BD
:1001A40000800123237010BD3003002000000000F4
:1001B4002846000808B5034B1BB103490348AFF3B5
:1001C400008008BD00000000340300202846000819
:1001D4002DE9F04397490B8885B0002B2FD0013BC4
:1001E4000B809548954A03781278954F9A4218BF28
:1001F400944C954A1BBFE45C1470002301330CBF7C
:10020400137003701378914C3B70002B00F08581C0
:10021400DFF854828E4898F800208E4E002A00F0B1
:100224009D80002288F800208B4A1578542D1DD11A
:10023400A3F13002092A36D8884A137033E0884A79
:100244001370884A1370884A1370884A1370884A56
:100254001370884A1370884A1370884A1370884A46
:1002640013707E4A1370874A1380BAE7A5F12A02F5
:10027400D2B2052A17D84FF02B0C2CFA02F2D2076F
:1002840011D5DFF80CC29CF80020A3F1300E5FFA00
:100294008EFE002A47D1BEF1090F04D8642288F8E3
:1002A40000208CF8003096F800904FF0000C87F88E
:1002B40000C0B9F1000F00F00581734F734A97F83D
:1002C40000E0734D0C2303FB0E2E2B78DEF804E0C4
:1002D40003EB43030EEB830393F809E093F80A80DE
:1002E400BEF1650F06D0B8F1080F14BF09FB0EFC70
:1002F4004FF0010C4FF0000E86F800E01E7A012E3C
:1003040040F02D815A68B8F1010F137803D0B8F189
:10031400040F40F01E8103F17E066645C0F2CE80D4
:10032400A3EB0C03CBE0A2F1300303EB83035B00EC
:10033400BEF1090FDBB2B4D873442B2D8CF8003016
:1003440002D101230370AEE72D2D02D101233370B6
:10035400A9E72A2D4FF00903F9D1F3E7414D95F8A8
:1003640000C0BCF1000F60D0232B2A70227002D190
:100374000123237097E72F2B14D8292B93D92A3BD9
:10038400052B90D801A252F823F000BFDB0300082C
:10039400C1030008AB020008CF030008F303000800
:1003A400E7030008522B2BD0542B02D0502B7FF4A0
:1003B4007AAF642288F80020274A3EE7642388F84D
:1003C4000030254B2B221A706DE7642388F8003027
:1003D4002D22214BF7E7642388F800302A221E4B94
:1003E400F1E7642388F800302F221B4BEBE7204B06
:1003F4001A780AB901221A7040F6B8330B8052E712
:10040400244B1A60244B1A60244B1A60244B1A6044
:10041400244B1A60244B1A60244B1A60244B1A6034
:10042400244B1A60244B1A603DE7232B04BF64233A
:100434002B7038E7840300203206002033060020A6
:100444007B03002034060020340700207E030020B4
:1004540055030020540300207F030020570300208D
:10046400350700208103002080030020860300203C
:10047400870300204C030020880300207D03002014
:100484007C030020820300207A030020E048000857
:1004940056030020300F00202C0F0020280F0020CE
:1004A400240F0020200F00201C0F0020180F002014
:1004B400140F0020100F00200C0F002000231370D5
:1004C40000232B7090F80080B8F1000F25D0A24FC4
:1004D400A24E97F800C0A24D0C2303FB0C6C2B78A2
:1004E40003EB4302DCF8043003EB820393F809E0E6
:1004F4009A7ABEF1650F73D0082A74D008FB0EFEF9
:100504001A7A4FF0000C012A80F800C06ED15A68A4
:1005140013787344137000232B702478002C40F05C
:10052400AC80904D2878002800F028818E4803780C
:10053400002B40F097808D490A880A2A40F28F8068
:100544008B4AF2241485012202708A4A13700B80AC
:1005540093E063453FF6E4AE82F800E0B0E7022E94
:100564001BD15E68337896F8018003EB08239BB2B5
:100574009C453ABFA3EB0C039BB2734633703E78A1
:100584000C2707FB06262A78766802EB420206EB64
:1005940082021B0A5268537092E7042E90D15E685F
:1005A400337896F8018003EB08239BB29C453ABF4D
:1005B400A3EB0C039BB2734633703E780C2707FB06
:1005C40006222E78526806EB460602EB86021B0AC8
:1005D4005668737056680023B3705268D3706FE71F
:1005E4004FF0000E8CE74FF0010E89E7022A16D176
:1005F4005B6858781A7802EB00221EFA82F292B2F3
:100604001A7038780C2303FB00602B78406803EBE6
:10061400430300EB8303120A5B685A707BE7042AE6
:100624007FF479AF5B681A78587802EB00221EFADF
:1006340082F292B21A703B780C2000FB0363287894
:100644005B6800EB400003EB8003120A58684270B9
:100654005A6882F802C05B6883F803C05BE7013222
:100664000A800AE0012B14D1424A434913780968ED
:10067400C95C29B902230370117005B0BDE8F08389
:10068400632B01D90470F8E73948018501331370ED
:10069400F3E7022B4AD1374A137813B9344920209F
:1006A4002AE0591E10293ED801A454F821F000BFB5
:1006B400F9060008010700080D07000819070008DB
:1006C400A1060008250700080707000825070008F9
:1006D400070700080D0700081F0700082507000882
:1006E400A106000813070008190700081F070008DF
:1006F400250700081E4976200885C7E71C496520A0
:10070400FAE71B492E20F7E719497220F4E7184944
:100714005020F1E716493A20EEE715493020EBE77F
:1007240013493120E8E703210170AFE7032B07D118
:100734000F4BFF221A850423037040F6B83306E7F3
:100744000A4A1388092B02D80133138095E71480D1
:1007540004702C7091E700BF7A030020E048000881
:10076400560300204C0300207D0300208203002058
:10077400003801407C030020780F0020844D2B7842
:10078400002B48D0834E3278C2B983490B88642B3E
:1007940012D9824C8248237807783B43072B03D92C
:1007A400227002702A7068E77E4BF42018850123BA
:1007B40033707D4B1A7053E70133C8E6012A13D115
:1007C400774A794C1178794A2378FA2505FB012276
:1007D400D15C744A19B91185022333704DE7F92BA2
:1007E40040F225811085F7E7022A04D16D4BFF22E0
:1007F4001A850323F1E7684A1388632BA4D9108070
:10080400674A307013782C700133DBB2072B98BF22
:100814001846107091E7664A1378002B62D05D4940
:100824000B7863B95C48634A13700288642A89BFF1
:10083400012201320A70038098BF02801DE7013B48
:10084400042B3FF61AAFDFE803F00311223544000E
:10085400584B1B78022B05D802230B70514BF32203
:100864001A850AE7002313700B7006E7514B5248B0
:100874001A780C235343C3581B780BB90523F3E7A9
:10088400484B1A85484B00221A700323ECE7494A67
:100894004548127803780C246243474CA258D25C32
:1008A4000AB90423E0E7632BFBD83E4901330A85E8
:1008B4000370E2E63F4B1A783F4B0C2000FB0233F7
:1008C400384A1B7A1BB13D4B1B780133DBB21385CD
:1008D400D4E7344BFF221A85364A13780133137058
:1008E4000123C1E736480478002C00F0C280294C6B
:1008F400237853BB2F4A334E11782F4A324D0C20A4
:1009040000FB01223148527AC82A11D11A4601212A
:1009140031702A7003700123237000231E4A138050
:10092400214AB4E619460122F2E719461A46EFE7CE
:10093400C92AF7D0CA2AF8D133702B70037813B9B7
:10094400234B00221A800123E4E7012B18D1194A12
:10095400154B1078184A19780C2505FB002201EB79
:100964004103526852F823301B7813B9C82323700B
:1009740083E66329FAD802232370F022094B6FE738
:10098400022B27D1084B1A78064B1A850323EEE76E
:10099400310600207D030020820300203707002059
:1009A40036070020003801407C030020380700206F
:1009B400880300207A030020E0480008760F002016
:1009C400860300202F060020300600207C0F002024
:1009D4002A060020632B2DD89F4AA04912780C20A8
:1009E40000FB02119E4A4968127802EB420201EBB5
:1009F400820051F822201A4412F8031C994AB1B912
:100A0400417A6423237011B93023138535E6827A41
:100A1400944B082A01D1322222E7652901D13022E0
:100A24001EE7062AFBD0642AF9D0312218E7118583
:100A340001339CE7642B04D165232370894BFF2287
:100A44000EE7652B06D1864A137801331370012310
:100A5400237072E6C82B01D1C9238DE7C92B01D1BC
:100A6400CA23EAE7CA2B7FF408AE0023037023707D
:100A740054E77D4E3278002A00F0F1817B480378F8
:100A84001BB9774A1370012312E7012B19D1724A5B
:100A9400734B1478714A19780C2505FB042201EB79
:100AA4004103526852F823301C786E4BF12214B97A
:100AB4001A85CA23FCE66329FAD802220270F122BD
:100AC400CEE6022B40F08081654B664A1B78138585
:100AD40003220270604A1178604A0C2000FB012254
:100AE40003EB43035168624801EB83014D680A7AC2
:100AF4002B780360012A0CD18D7A012D01D0042DAD
:100B04002ED17F2B29D9C3F5807303602D25594B32
:100B140025E0022A0ED16D7803EB05238D7A03605C
:100B2400012D01D0042D1BD1B3F5004F15D3C3F50E
:100B34008033EAE7042A13D16E7803EB06230360BB
:100B4400AE7803EB06430360ED7803EB05630360C3
:100B54008B7A012B01D0042B02D1464B2B251D701F
:100B64004B7A652B07D1444A1378591C1170434AB8
:100B74002021D15481E58B7A082B16D13E4D006893
:100B84002B783E4A9C1C591CE4B2C9B238B94620A1
:100B9400D05403332B704F23505413556DE54E201E
:100BA400D0544F2353542C7067E5062B10D11E2AC2
:100BB400314B324C28BF1E22002A3FF45EAD187818
:100BC4004D68013AD2B2461C1E70AD5C2554F3E761
:100BD400632B58D9013A012A3FF64FAD642B3FF4F9
:100BE4004CADA3F16402D2B20C2A28BF0C22541ECD
:100BF400214E224FE4B24FF00A0E002A3FF43DADDD
:100C04004B6835781B5D0360002B39D16B1C337046
:100C140030237B55013A12F0FF0204D033785D1C77
:100C240035702C25FD54013CE4B2E6E7B3FBFEF835
:100C34000EFB183330337B55434665464FF00108AD
:100C440005F1010C5FFA8CFC002BEFD1B8F1000F19
:100C5400E0D003603570DDE77A030020E048000847
:100C64007C03002000380140870300207D0300201E
:100C7400500300207903002058030020590300206A
:100C84004FF00008DCE7072B02687F4B25D1197869
:100C9400107801F110056D44013205F8100C78B19B
:100CA4000134E4B2481C102C1870F0D10022774CA7
:100CB4001A70084630B9002A3FF4DFAC1970DCE43E
:100CC4001024EFE7421E04ADD0B255FA82F212F8B6
:100CD400102C04F8012B0122ECE700256B4E1D704B
:100CE4000A274FF02C0C2ABB0DB102601C708A7AC3
:100CF4001978022A01D0042A41D1002938D1634944
:100D04002C2430204C70032408701C708870012A35
:100D140057D11A78511C19705D4908785B49885479
:100D24001A78002A7FF4A9AC01221A70574B30229A
:100D34001A70A2E4B2FBF7FE07FB1E2230323255D2
:100D4400651C8C7A022CEDB2724601D0042C07D1BA
:100D5400012D02D186F801C002252C460125C2E7E7
:100D6400032CFAD1022D02BF2C25B5702546F4E7D9
:100D74000229CCD10321197030204449C6E7032A43
:100D840017D149B9414A302111702C2090700420A8
:100D940051701870D17070E4012902D13B4A30219E
:100DA400F3E702297FF469AC1A70384B30229A7049
:100DB40063E421B901211970344930200870012AF3
:100DC40000E0042AA5D0ABE7632B16D82E4A13788B
:100DD4004BB1013BDBB22D491370CB5C002B3FF4CC
:100DE40056AC2C4A11E62C4A0123037013780133C4
:100DF400137040F6B8330B8020E6C82B03D1C92307
:100E04000370244B5BE6C92B12D1CA230370234B16
:100E14001A78204B0AB1642222E5214A1278002A6A
:100E2400F9D1204A12780AB1652219E5662217E53C
:100E3400CA2B02D1CB23037000E6CB2B7FF41DAC6D
:100E4400194A0023138003703370184B1A78184B17
:100E54001B789A423FF411AC01232B700DE4154C1E
:100E64002378002B3FF409AC303BDBB2022B227019
:100E74003FF603AC104C23700123037040F6B833E3
:100E84000B800E4B54E700BF580300205903002089
:100E940079030020003801407C0300202D06002047
:100EA4002E0600202C060020820300203707002095
:100EB40036070020570300207A0300207D0300201A
:100EC40030B4204B1A780AB1013A1A701E490A78D4
:100ED4000AB1013A0A701D4C207810B130BCFFF7FA
:100EE40077B91B4D1B492A780978914218BF1A48D3
:100EF4001A491DBF805C08700132087018BF2A703F
:100F040017480A780270AAB11978A9B100213A2ABF
:100F140019700DD1134A01231370134A23701370EF
:100F2400124B40F6B8321A80114B1980114B1970CC
:100F34000023037030BC7047232A04BF64221A7054
:100F4400F6E700BF8103002080030020350700205E
:100F54003206002033060020340600203407002027
:100F64007B0300204C03002088030020840300201E
:100F7400820300207D0300201C4B5B6B13F0202FA9
:100F840070B531D100F040FE194B1B780BB901F05C
:100F94000DFAFFF795FF1748174C184D02F028FA81
:100FA400174A18491378042B81BF00231370164A7B
:100FB4001370164B2A68586A238801339BB2024483
:100FC400B3F57A7F2A6023800AD3B2FBF3F2104B85
:100FD4000E881A800F4A00232B60238016800B8012
:100FE4000B88834238BF088070BD00BF0074004086
:100FF4009F110020B0050020500F00204C0F00204E
:10100400660F00204A0F0020650F002000100040EA
:10101400480F0020460F002030B5634A137801338F
:101024001370624BD9690C0713D1614A880613788F
:1010340050D4DBB1013BDBB21370BBB95D4B1B7801
:10104400012B13D95C4A82F800315C4B01221A70DF
:101054000CE00F221A625A4A138801331380594A4A
:1010640013888D0703F101031380DED456480378F7
:10107400002B00F08980554A1378002B51D10123AD
:101084001370534BDA69110700F082800F221A6241
:10109400504A514D13785148514C0133DBB213700F
:1010A4002B780268218801330A44DBB202602B707A
:1010B4001BB94C4D0360120A2A804B4B1A888A4292
:1010C40038BF1980494B5A6A22801A6922F00102FA
:1010D4001A6130BD3548848CA0B2E40517D5C3B974
:1010E400434C257800F0F004A54205D1324C207021
:1010F40030480370032306E03E4A107828B1137089
:101104003D4A137801331370B0E70123FBE7002B4A
:10111400ACD0284C23780133DBB22370264CE05446
:10112400E8E7012B09D14B06ABD5344B0821996272
:10113400334B002119700223A2E7022B17D10D06AD
:101144009FD52F4D2F492B7891F8004117481BB993
:10115400097801F5807102E0A342C95CF9D001333A
:10116400DBB2A34201852B708BD9032388E7032BC1
:1011740005D14C0685D500231370037081E71F4BFE
:101184000821996100237BE71C4B08229A6178E7C8
:1011940092067FF57DAF1C4A988C1C491378C8547D
:1011A4000133137074E700BF640F0020004800404F
:1011B4009A1000209C1000209D1000209B100020FD
:1011C400860F0020840F0020970F0020960F002028
:1011D40000380140710F0020540F0020580F0020E8
:1011E400600F0020520F00205C0F0020001400400C
:1011F400830F0020950F0020940F0020001000485A
:10120400980F0020990F0020330600203406002098
:1012140080B584B000AF114B1B68FB60FB68BB60FA
:1012240002F0ECF801F020FA0D4B00221A600C4B8E
:1012340000225A600A4B00229A600A4B0A4A9A60BA
:10124400094B1B687B607B6883F3088800BFBB681D
:10125400984700BF1037BD4680BD00BF04C80008D2
:1012640010E000E000ED00E000C80008294B08226F
:1012740030B59A61284A022101244FF480509462C7
:10128400916290628020906204224FF090409A62B2
:101294004FF400428262214A4FF4804595624FF434
:1012A40000559D6284619161D2F8041821F40041D3
:1012B400C2F80418D2F8041821F48041C2F80418C2
:1012C400D2F8041821F00201C2F80418D2F8041864
:1012D40021F00101C2F80418596821F480615960B1
:1012E400596821F400715960596821F4807159607A
:1012F400596821F080015960D2F8081841F0704112
:1013040041F00F01C2F808189A6842F47F129A60FB
:1013140030BD00BF00100048000800480004004829
:101324000E4B0F4800221A600E4A52F8041B01317A
:101334001EBF1968013119608242F6D10A4A0B496D
:10134400186812680A6040B1094B1B689A4203D0BE
:10135400131A58425841704701207047C0110020A9
:1013640000C8040800C8000800C00008BC11002020
:1013740000C00008104B1B78D3B1013B042B15D8D7
:10138400DFE803F018030E1012000C4B0C4A136034
:101394000C4B1B69013302BF0B4B01221A707047BF
:1013A4000A4BF3E70A4BF1E70A4BEFE70A4BEDE789
:1013B4000A4BEBE70A4BE9E7820F00206D46000871
:1013C400780F002000C00008B811002086460008ED
:1013D4009C460008B0460008BF4600084046000886
:1013E4005946000838B50D46044601F019FA2A4654
:1013F40000232146022001F055FABDE8384001F0EF
:1014040021BA10B52022A6B000210DEB020003F092
:10141400DDF81422002101A803F0D8F85822002195
:1014240010A803F0D3F802244FF480330B22CDE943
:101434000623CDE90C43012210214FF4E01306A842
:10144400CDE909210B920E9302F048F808B172B667
:10145400FEE70F23CDE901344FF48063CDE9043076
:101464000390214601A802F0D5FA08B172B6FEE74E
:10147400CDE9120027231490179010A8109302F0BE
:10148400A1FB08B172B6FEE726B010BD2DE90048F5
:10149400BE4D8CB001F01EF9FFF7E8FEFFF7B1FF77
:1014A4001422002107A803F091F86B69B84843F4AB
:1014B40000136B616B6903F400130193019B6B6967
:1014C40043F480036B616B6903F480030293029B12
:1014D4006B6943F400236B616B6903F4002303938A
:1014E400039B6B6943F400336B616B6903F4003352
:1014F4000493049B6B6943F480236B616B6903F46D
:1015040080230593059B6B6943F480136B616B69BE
:1015140003F48013069300224CF21C01069B01F095
:1015240055FB9C48002241F6830101F04FFB002249
:1015340048F201014FF0904001F048FB9648002228
:1015440044F2023101F042FB00229448402100247D
:1015540001F03CFB01264CF21C038D4807A94FF017
:101564000209CDE907364FF02008CDE9094401F01E
:101574005DFA8748CDF82C9007A9CDE90789CDE914
:10158400094401F053FA4FF4C0638448099407A94D
:10159400CDE9073401F04AFA41F683037D4807A9EF
:1015A400CDE90736CDE9094401F040FA042379482E
:1015B400099607A9CDE907344FF0030A01F036FA7A
:1015C40028227448099407A9CDE9072A01F02EFAC4
:1015D40048F2010207A94FF09040CDE90726CDE972
:1015E400094401F023FAA22207A94FF09040CDE963
:1015F400072A099401F01AFA4FF4825207A94FF00E
:101604009040CDE90724099401F010FA05226248BC
:10161400099407A9CDE9072A01F008FA44F2023235
:101624005D4807A9CDE90726CDE909444FF0800BB1
:1016340001F0FCF95648099607A9CDE907B401F071
:10164400F5F94FF4C0525248099407A9CDE9072A85
:1016540001F0ECF94FF400424F480B9607A9CDE98D
:101664000729CDE9094401F0E1F94FF43C524C4813
:10167400099407A9CDE9072A01F0D8F94FF0400AE7
:101684004448099407A9CDE907A401F0CFF94FF420
:101694000062CDE9072907A90A224FF090400B9276
:1016A400CDE9094401F0C2F93C4807A9CDE907A6F0
:1016B400CDE9094401F0BAF93948099407A9CDE9FB
:1016C40007A401F0B3F93448099407A9CDE90784C4
:1016D40001F0ACF904232E480B9307A9CDE907695F
:1016E400CDE9094401F0A2F92948099407A9CDE9F3
:1016F400079401F09BF92B48DFF8BCC004614FF458
:1017040096434FF00C09C0E900C3C0E90244C0E9A4
:101714000594C0E90744446202F02AFF034608B175
:1017240072B6FEE72048214A4FF4E13AC0E9002AA4
:101734004FF48052C0E90223C0E90439C0E90633FA
:10174400C0E9083302F014FF08B172B6FEE7184B83
:10175400184A98604724C3E90024CDE9070009909A
:1017640040F2E7321846DA60C3F818B002F0C0FC61
:101774000F4B08B172B6FEE70790099007A9184607
:1017840002F0E6FCD0B172B6FEE700BF00100240E2
:1017940000100048000800480004004800140048F5
:1017A400000C0048940400208C03002000480040F2
:1017B4006405002000100040003801406B4B6C4A67
:1017C4009860C3E90024CDE9070009903122184646
:1017D400DA60C3F818B002F08BFC644B08B172B63F
:1017E400FEE70790099007A9184602F0B1FC08B17A
:1017F40072B6FEE75F4C6049604B2062C4E90206A2
:10180400C4E90400C4E906002046C4E9001301F059
:101814002BFB014608B172B6FEE7204601F070FDCD
:10182400014608B172B6FEE7204601F08FFD03467B
:1018340008B172B6FEE75248524AC0E90233C0E921
:101844000439C0E90633C0E908384FF40053C0E94D
:10185400002AC36302F08CFE08B172B6FEE74A4860
:101864004A4A0423C0E9002340F6FF73C0E9023367
:1018740001F091FD044608B172B6FEE73D4801F05F
:10188400F3FA434802F074FE424802F071FE424803
:1018940002F0D4FA354802F0D1FAFFF76BFD6B6A17
:1018A4003E4A1B0C13606B6A43F080736B622046E4
:1018B40000F002FB3A4B3B4A1C8814803A4A588891
:1018C40010803A4A99883A4D1180DA882A80394D35
:1018D4001B892B8041F21115AC4212D142F2222411
:1018E400A0420ED143F2333081420AD144F2444142
:1018F4008A4206D145F25552934202BF2E4B012231
:101904001A70FFF70DFD2D4D2D4E2E4CDFF8A880DB
:10191400287000F023FA338841F26F729BB293422D
:1019240008D9237833B92B7823B198F800306BB1F8
:10193400FFF76EFC23780A2B12D1234B2348196836
:10194400FFF750FD237801332370E2E7204B1B7827
:10195400002BEFD01F4845F65A21FFF743FDE7E778
:10196400D7D90E2BEFD9FFF753FCD2E71805002087
:1019740000140040C005002000540040150200205F
:101984001004002000440040B00500200030004056
:10199400940400208C03002064050020B41100206E
:1019A400A11100201C0600201A06002018060020A1
:1019B4001606002014060020B9110020BA110020D8
:1019C400720F0020A0110020C411002000C00008E4
:1019D400B811002010C000080A4B9A6942F00102B5
:1019E4009A619A6982B002F001020092009ADA695F
:1019F40042F08052DA61DB6903F080530193019B6A
:101A040002B070470010024010B5044688B014229A
:101A1400002103A802F0DAFD2268134B9A4220D178
:101A2400124C1348636943F480236361636903F4CC
:101A340080230193019BC0221223CDE903230121BA
:101A44000323CDE90513042303A9079300F0EEFF54
:101A5400E36943F40013E361E36903F400130293BD
:101A6400029B08B010BD00BF0054004000100240AB
:101A74000004004807B50368174A934214D1174B72
:101A8400DA6942F01002DA61DB6903F010030093B3
:101A9400362000220221009B00F052FE362003B0C3
:101AA4005DF804EB00F07EBE0D4A934210D10B4B5F
:101AB400DA6942F02002DA61DB6903F02003019362
:101AC400372000220121019B00F03AFE3720E6E78F
:101AD40003B05DF804FB00BF00100040001002409A
:101AE4000014004010B504468CB01422002107A84D
:101AF40002F06CFD2368304A934222D12F4B9A693D
:101B040042F480429A619A6902F480420192019AF5
:101B14005A6942F400325A615B6903F40033029358
:101B2400029B4FF4C0630793022308930324072303
:101B3400CDE90A4307A94FF0904000F077FF0CB0BD
:101B440010BD1F4A934214D11C4BDA6942F400328F
:101B5400DA61DA6902F400320392039A5A6942F4B0
:101B640000325A615B6903F400330493049B0C2331
:101B7400D9E7144A9342E2D1104B1348DA6942F48C
:101B84008022DA61DA6902F480220592059A5A69A0
:101B940042F480225A615B6903F480230693069B16
:101BA4004FF4406202230321CDE907230723CDE943
:101BB4000A1307A9C1E700BF003801400010024022
:101BC400004400400048004000040048FEE7FEE7EF
:101BD400FEE7FEE7FEE770477047704700F08CBDF4
:101BE40008B5FFF7C9F9BDE80840014802F065B936
:101BF4006405002008B5FFF70FFABDE80840014866
:101C040002F05BB91805002030B5434A4349137804
:101C14000133DBB21370424A13780133DBB2137021
:101C2400404A1368013313603F4B1A88013292B261
:101C3400B2F57A7F1A8084BF01221A800A880132A1
:101C440092B24EF6602082420A8084BF4CF2503237
:101C54000A8036483649002202700A701A880A241B
:101C640092B2B2FBF4F504FB152292B2022A05D11A
:101C740030490A780132D2B20A7017E01A8892B257
:101C8400B2FBF4F504FB152292B2032A03D12A49CC
:101C94000A780132F0E71A8892B2B2FBF4F504FB39
:101CA400152292B2042A28D1012202701B88234AE9
:101CB40023499BB2042B0CBF0123002313700B8810
:101CC4003BB3013B0B801F490B880BB1013B0B80DD
:101CD4001D490B880BB1013B0B801C490B880BB1D0
:101CE400013B0B801A490B880BB1013B0B80137825
:101CF40013B1184B00221A7030BD1A88642092B2B6
:101D0400B2FBF0F400FB142292B2052ACED10122D8
:101D1400B2E711490B70D6E7670F0020720F00205D
:101D240027060020080F00206C0F0020700F0020F1
:101D34006F0F0020750F0020220600206E0F002078
:101D4400360F0020280600201E0600202006002052
:101D54007E0F00207D0F0020340F002070B53E4B15
:101D64003E4C5B6A3E4822783E4D3F4E4FF47A71BA
:101D740001FB0233028831689A422A7838BF038013
:101D84000132D2B21944632A31602A700FD9B1FBEF
:101D9400F2F1364A1180002235492A7005880D80F7
:101DA4003449028034480D88326005800A80334DFE
:101DB400334A03E0B3F57A7F00D2013328781178EF
:101DC4008842F7D0A3F57A714B424B412D490B70F1
:101DD40013780133DBB213702B4A0023237013787A
:101DE4000133DBB2642B137084BF012313701378A7
:101DF4000A22B3FBF2F102FB1133DBB2012B0CD14B
:101E040022490A780132D2B20A2A0A7005D9204A34
:101E14000B7013780133DBB213701E4A137801334D
:101E240013701D4A13780BB1013B13701B4A1388BE
:101E340063B1B3F5167F1A4909D201339BB2B3F5E6
:101E4400967F138034BF012302230B7070BD0023DF
:101E54000B701380FAE700BF00100040670F0020EA
:101E64003C0F0020440F0020400F00203A0F0020B8
:101E7400380F00205C0F00205E0F0020750F00203B
:101E8400740F0020630F00206A0F0020690F0020E8
:101E9400680F002023060020620F00202406002083
:101EA40026060020034AD2F8883043F47003C2F8AF
:101EB4008830704700ED00E07FB50A2304461A46D7
:101EC4000E480F4E0F4DA82101F090F9307028B143
:101ED40028780130C0B2287004B070BD1023642289
:101EE400CDE90132084B009304480223A2B2A82191
:101EF40001F0C0F830700028EDD0E9E7C0050020FB
:101F0400C811002012060020A11100207FB50A2369
:101F140004461A460E480F4E0F4DA82101F066F9EB
:101F2400307028B128780130C0B2287004B070BD78
:101F340010236422CDE90132084B009304480223A4
:101F4400A2B2A82100F0E1FF30700028EDD0E9E74B
:101F5400C0050020C811002012060020A111002095
:101F6400054A1378591C1170044AD054044B1A883A
:101F740010441880704700BF980F0020990F00206C
:101F8400CC110020F8B52A4E2A4F2B4D0023337074
:101F94003B802A4B1B78FBB928780C30C0B2FFF782
:101FA400DFFF0A20FFF7DCFF3C88E443A4B2200AE9
:101FB4003C80FFF7D5FFE0B2FFF7D2FF28780F305F
:101FC400C0B2FFF7CDFF33781D4A013B82F80031E0
:101FD4001C4B01221A70F8BD013B042BE4D801A26A
:101FE40052F823F0FD1F00080B20000819200008F8
:101FF400AD1F00082720000828780C30C0B2FFF776
:10200400AFFF0C20CEE728780C30C0B2FFF7A8FF52
:102014000D20C7E728780C30C0B2FFF7A1FF0E20CF
:10202400C0E728780C30C0B2FFF79AFFFD20B9E76B
:10203400980F0020CC110020830F0020A011002055
:10204400990F0020970F0020F0B51B4B1B4E93F8FF
:1020540000210020012A307023D919499C5C097899
:102064000F318C421DD1122A4FF000048CBFD11EB7
:10207400911EC9B227462046E5B2A94212D207B141
:1020840035701344C043122A13F8011C80B20FD9CF
:1020940013F8023C01EB032189B2814214BF0020F2
:1020A4000120F0BD5D5D284480B201340127E3E7DF
:1020B400C0B28842F2E700BF9D1000209C100020AF
:1020C400830F0020074B00221A80074A13780BB1B4
:1020D400013B1370054B064A1B7803F00F03137082
:1020E400704700BFD2110020800F00209D100020F7
:1020F400C911002070B5104E104C3078104D0A30C4
:102104000023C0B22B702380FFF72AFF2088C0432E
:1021140080B22080C0B2FFF723FF30780F30C0B206
:10212400FFF71EFF2B78074A013B82F80031064B6C
:1021340001221A7070BD00BF830F0020CC11002053
:10214400980F0020990F0020970F002030B585B01C
:1021540000F066FB134A144C144D0023CDE9013200
:10216400012203922380029BAB4203D900F06AFB55
:1021740005B030BD002253F8041B013109D10232ED
:1021840092B2B2F5007FF6D1029B03F5006302938D
:10219400E9E723886946013301A8238000F0F8FBAE
:1021A400F2E700BF00C0000808120020FFFF070884
:1021B4002DE9F041744E3578E5B9744A92F800314E
:1021C400042B68D1517813780A290FD1C3F57F43C2
:1021D400F533907899B2C3F3072398425BD1D27850
:1021E400CBB29A4257D1FFF7CDFE01E00C2952D170
:1021F40001234FE0012D30D1644A92F80031042BC1
:1022040049D153780C2B46D113789078C3F57F438A
:10221400F33399B2C3F3072398423CD1D278CBB2BB
:102224009A4238D1FFF792FF594B00241C70594B46
:102234001C70594B1C60594B1C60594B1C80594BEA
:102244001C80FFF79FFE58481022214602F0BEF979
:102254002046FFF75BFE02231CE0022D1BD14B4CF2
:1022640094F80031042B25D162782378134483F445
:102274007F430E2A83F0FF030FD1A278B2EB132F12
:1022840009D1E278DBB29A4205D103233370FFF718
:1022940079FE0A233370BDE8F0810A2AFBD1A278C3
:1022A400B2EB132FF7D1E278DBB29A42F3D10023D9
:1022B400337098E7442B5FD8002127460A46981EBE
:1022C40088422ADC61780D2924D1D243205C91B262
:1022D400C2F3072290421DD1E21812F8010CCAB2CF
:1022E400904217D11A1F0021224408460133DBB261
:1022F400452B18D111B1442384F8003100F090FA31
:10230400254FDFF89C8094F80031043B9D420EDB9E
:1023140000F098FAFFF736FE9DE717F801CB624408
:1023240092B20131CCE702F8010F0121DEE7631913
:102334000220D9789A785B7802EB0122396803EBA2
:102344000223625D01F1006102EB032201F54841C1
:10235400002300F0A7FA28B1B8F800300133A8F838
:10236400003064253B680D4A04333B601368043530
:1023740001331360EDB2C6E70A4A052333701388AC
:1023840001331380C6E700BFA01100209D10002078
:10239400BA110020B911002004120020C411002039
:1023A4000012002002120020A11100202DE9F843A0
:1023B400794C01232370794B1B782BB9784B1B88FC
:1023C4009BB2B3F57A7F39D2764D774E297832783D
:1023D400764FDFF834C2DFF834E200204FF0904843
:1023E4003B69DCF81090C3F3801319F0400FDEF85A
:1023F40010904FEA031318BF203319F0200FD8F8B8
:1024040010901CBF4033DBB219F0400F1CBF803B5F
:10241400DBB28B4209D1952A9EBF0132D2B2012090
:10242400632A05D80B461946DAE701200022FAE7A9
:1024340000B132705E4B2970090919705D4A138826
:1024440001339BB2B3F57A7F30D813805A4E5B4A7E
:10245400337811785A4D994204D05A4913700022A6
:102464000A702A802A885849584801322A800A88E2
:10247400B2F5FA7F2CD901220270554A64201070FB
:102484004FF4C8720A80534A127822B15248027833
:102494000AB1013A027003BB4F4A0B801370414BDF
:1024A4001B78F02B41D0012333703EE04B484C495C
:1024B400012313804B4B02881A804B4B0A881A80E5
:1024C4004A4A4B4B15881D80002303800B80BCE7D0
:1024D40000270132077092B2D4E7012B49D1DFF80B
:1024E4003081444F98F800307BB1434B0A21197076
:1024F400424B1B7803F00F0300220C2B2A8018D1C7
:10250400FFF756FE002388F800303B7823B1002300
:102514002B80394B0A221A70394A137823B30023CB
:1025240013702B80344B0A221A7000232370BDE8E9
:10253400F8833B780B2BE5D03A70FFF785FD60B14B
:10254400FFF7C0FD254A1388013313802D4B1B78F8
:10255400002BD7D1FFF7CEFDD4E7214A02233370F5
:10256400138801331380CDE72B88FA2BDDD902239E
:102574009AE7022B0DD1204A13780BB1013B13705B
:10258400154A13780133DBB20A2B88BF002313707A
:1025940089E7002388E700BF9F1100206E0F002009
:1025A400720F0020830F0020CA1100200008004889
:1025B400820F0020920F0020D6110020D411002099
:1025C400D0110020D5110020D21100209E1100202E
:1025D400800F00206F0F0020CE1100208E0F0020EE
:1025E4008A0F0020900F00208C0F0020860F0020FF
:1025F400880F0020A0110020810F00209D100020D2
:10260400940F0020970F0020000C0048000400489D
:102614009B100020DFF834D00D480E490E4A0023E9
:1026240002E0D458C4500433C4188C42F9D30B4A82
:102634000B4C002301E013600432A242FBD3FFF7EA
:1026440031FC01F0CBFFFEF721FFFEE70000012083
:10265400000000203003002044490008300300201B
:1026640000120020FEE7704710B5074B4FF0FF3211
:1026740000241A611C61DA60DC609A629C62FFF7D4
:10268400F2FF204610BD00BF0010024038B50E4BCB
:102694001A784FF47A73B3FBF2F30C4A05461068C8
:1026A400B0FBF3F000F08CF8044658B90F2D09D8AC
:1026B400024629464FF0FF3000F042F8044B204612
:1026C4001D6038BD0120FCE72803002024030020FE
:1026D4002C030020074A08B5136843F01003136065
:1026E400032000F01BF80020FFF7D0FFFFF774F978
:1026F400002008BD00200240034A044B11681B78E7
:102704000B441360704700BFD81100202803002039
:10271400014B1868704700BFD81100200749CA68E8
:1027240022F4E0620302120403F4E063120C134384
:1027340043F0BF6343F40033CB60704700ED00E027
:10274400164B30B5DC68C4F30224C4F10703251D1D
:10275400042B28BF0423062D4FF0FF358CBF033C08
:10276400002405FA03F321EA0303A54022EA050243
:10277400A340002843EA0203ACBF00F16040084ACA
:102784004FEA0313B8BF00F00F00DBB2AABF00F595
:102794006140135480F8003330BD00BF00ED00E009
:1027A40014ED00E0002807DB4109044A00F01F0093
:1027B4000123834042F82130704700BF00E100E06C
:1027C4000138B0F1807F0BD24FF0E023054A586105
:1027D400F02182F823100020072298611A617047C3
:1027E4000120704700ED00E00B4AD36813F010039A
:1027F40005D00A49CB6943F00203CB611023D268A8
:10280400520706D50549CA6942F00102CA6143F07C
:102814000403014AD360704700200240E011002005
:10282400064B186910F0800007D0054A5A6002F17F
:1028340088325A601869C0F3C01070470020024003
:1028440023016745034A136943F0800313610020A1
:10285400704700BF0020024070B50546FFF758FFDF
:102864000F4C0646E368D9070FD4E3689A0644BFC1
:102874002023E360E368DB0603D4E06810F004007F
:1028840007D0FFF7B1FF012003E0681CEAD00DB9BF
:10289400032070BDFFF73CFF801BA842E2D9F7E795
:1028A400002002402DE9F84FDFF894A01F469AF863
:1028B4001830012B0546884691463FD001234CF23F
:1028C40050308AF81830FFF7C7FF90BB012D03D0B2
:1028D400022D14BF042502250026DFF868B0334614
:1028E4003401C4F12001A4F1200207FA01F129FA0C
:1028F40004F4CAF81C300C4327FA02F21443DBF840
:102904001020A4B242F00102CBF810204CF2503057
:1029140028F81640FFF7A0FFDBF8102022F0010290
:10292400CBF8102028B90136F2B295424FF00003DB
:10293400D6D800238AF81830BDE8F88F0220FBE7C8
:10294400E011002000200240064B0022DA61064B11
:102954001A6942F004021A611A6942F040021A61CB
:10296400704700BFE011002000200240064B002207
:10297400DA61064B1A6942F002021A6158611A6957
:1029840042F040021A617047E0110020002002402A
:102994002DE9F041DFF8908098F81830012B0546B6
:1029A4000F463DD0012488F818400368A3424CF236
:1029B400503014D1FFF750FF28B10120002388F8CC
:1029C4001830BDE8F0814CF25030FFF7BDFFFFF73F
:1029D40043FF144A136923F004031361EEE7FFF77E
:1029E4003BFF0028E9D14FF0FF333B6020466E687F
:1029F4000C4CD5E9013203EBC223B342DED9304695
:102A0400FFF7B4FF4CF25030FFF726FF236923F0A1
:102A14000203236108B13E60D0E706F50066E8E7EB
:102A24000220CEE700200240E01100202DE9F74FFC
:102A3400DFF89491624C00230A6832FA03F502D15C
:102A440003B0BDE8F08F012505FA03F818EA020285
:102A540000F0A8804E68032706F003054FEA430EF2
:102A640007FA0EFC6F1E012F6FEA0C0C34D887682E
:102A740007EA0C0ACF6807FA0EF747EA0A078760E5
:102A8400476827EA0808C6F300179F4047EA080783
:102A94004760C76807EA0C088F6807FA0EF747EA29
:102AA4000807022DC76019D14FEAD30800EB880844
:102AB40003F0070AD8F820704FEA8A0A4FF00F0B88
:102AC4000BFA0AFB27EA0B0B0F6907FA0AF747EA26
:102AD4000B07C8F8207001E0032DDAD1076805FA66
:102AE4000EF507EA0C073D4316F4403F056059D044
:102AF400D9F8185045F00105C9F81850D9F81850FC
:102B040023F0030707F1804705F0010507F5803737
:102B1400019503F0030C019DBD684FEA8C0C4FF046
:102B24000F0E0EFA0CFEB0F1904F25EA0E0E3BD0BC
:102B3400244DA8423AD005F58065A84238D005F561
:102B44008065A84236D005F58065A84234D005F5E5
:102B54008065A84232D005F58065A84214BF0725D8
:102B6400062505FA0CF545EA0E05BD602568D74330
:102B740016F4803F0CBF3D4015432560656816F48C
:102B8400003F0CBF3D4015436560A56816F4801FE7
:102B94000CBF3D401543A560E568B60254BF3D40F7
:102BA4001543E560013347E70025DAE70125D8E757
:102BB4000225D6E70325D4E70425D2E70525D0E787
:102BC4000004014000040048001002400AB1816181
:102BD40070478162704703689A69910744BF002275
:102BE4009A629A69D2075EBF9A6942F001029A61B9
:102BF4007047000030B5039D046845EA02421A4359
:102C0400054B6068C1F3090143EA55530A4320EABE
:102C140003000243626030BDFF63FF03F8B503683D
:102C24000446986910F010000E46174639D05A68C9
:102C3400910103D45A6842F480425A602568AB6912
:102C44009B0617D510232026EB612046EE61FFF783
:102C5400C2FF6B6823F0FF7323F48B3323F4FF73F9
:102C640023F001036B60636C43F00403636484F832
:102C740041600FE0721CE2D0FFF74AFDC01B8642A0
:102C840001D3002EDAD1636C43F020036364202364
:102C940084F84130002384F84230002384F8403023
:102CA4000120F8BD70B504460D46164623689B699D
:102CB4009B0701D500201BE0324629462046FFF73A
:102CC400ADFFA0B96A1CF1D0FFF722FD801BA8421A
:102CD40001D8002DEAD1636C43F020036364202300
:102CE40084F84130002384F8423084F840300120D5
:102CF40070BD70B504460D46164623689B699B0655
:102D040001D5002019E0324629462046FFF786FF08
:102D140090B9FFF7FDFC801BA84201D8002DECD12F
:102D2400636C43F020036364202384F84130002360
:102D340084F8423084F84030012070BD2DE9F04120
:102D4400069F0446884616461D462268936938EA5B
:102D540003030CBF01230023B34201D0002015E07C
:102D64006B1CF3D0FFF7D4FCC01BA84201D8002D84
:102D7400EBD1636C43F020036364202384F8413077
:102D8400002384F8423084F840300120BDE8F0810B
:102D94002DE9F341DDE908781E46174B00930546FB
:102DA40014464FF08073F2B2FFF724FF42463946CF
:102DB4002846FFF777FF18B1012002B0BDE8F08183
:102DC400012E2B680DD1E4B29C620022CDF8008064
:102DD4003B4680212846FFF7B1FF003818BF012089
:102DE400EBE7220A9A62394642462846FFF75AFF21
:102DF4000028E1D12B68E6E7002000802DE9F341AB
:102E0400DDE908781E46174B009305461446002357
:102E1400F2B2FFF7EFFE424639462846FFF742FF7B
:102E240018B1012002B0BDE8F081012E2B680DD14C
:102E3400E4B29C620022CDF800803B464021284643
:102E4400FFF77CFF003818BF0120EBE7220A9A62E3
:102E5400394642462846FFF725FF0028E1D12B6872
:102E6400E6E700BF0020008010B5044600284AD0E1
:102E740090F8413003F0FF021BB980F84020FEF7C0
:102E8400C3FD242384F8413023681A6822F0010228
:102E94001A60626822F070621A619A6822F4004231
:102EA4009A60D4E90221012924D142F400429A60B3
:102EB4005A6842F0007242F400425A60DA6822F41E
:102EC4000042DA60D4E904210A43A16942EA0122FA
:102ED400DA60D4E907210A431A601A6842F0010251
:102EE4001A6000202023606484F84130206384F851
:102EF400420010BD42F4044202299A6004BF4FF418
:102F040000625A60D4E70120F3E72DE9F74F9A46AF
:102F140090F84130BDF834B0DDF83880202B0446F9
:102F24000E46914640F0A4800C9B13B1BBF1000FF8
:102F340006D14FF400736364012003B0BDE8F08F41
:102F440090F84030012B00F09380012780F8407006
:102F5400FFF7DEFB3A460090054619234FF4004183
:102F64002046FFF7EBFE07460028E5D1212384F82D
:102F74004130402384F842300C9B60646362606398
:102F8400A4F82AB05346CDE900854A463146204686
:102F9400FFF7FEFE10B184F84070CDE7638D9BB25D
:102FA400FF2B55D9FF2222854FF0807300903146C4
:102FB4002046FFF71FFE2A4641462046FFF772FED1
:102FC4000028B9D1636A226813F8011B9162636215
:102FD400638D228D013B9BB26385638D013A92B26E
:102FE4009BB22285ABB1A2B900954346802120460D
:102FF400FFF7A4FE00289FD1638D9BB2FF2B2FD92E
:10300400FF2222854FF08073009031462046FFF75F
:10301400F1FD638D9BB2002BCDD12A46414620465B
:10302400FFF767FE002887D123682021D9615A68F9
:1030340022F0FF7222F48B3222F4FF7222F001029A
:103044005A6084F8411084F8400084F8420074E720
:10305400628D92B222854FF000730090D2B2A6E73F
:10306400628D92B222854FF000730090D2B2CCE709
:10307400022062E72DE9F74F9A4690F84130BDF8F7
:1030840034B0DDF83880202B04460E46914640F0DB
:10309400A8800C9B13B1BBF1000F06D14FF4007351
:1030A4006364012003B0BDE8F08F90F84030012B39
:1030B40000F09780012780F84070FFF729FB3A461B
:1030C4000090054619234FF400412046FFF736FED1
:1030D40007460028E5D1222384F84130402384F8B0
:1030E40042300C9B606463626063A4F82AB0534668
:1030F400CDE900854A4631462046FFF77FFE10B1F0
:1031040084F84070CDE7638D9BB2FF2B364B58D9C2
:10311400FF22228500934FF0807331462046FFF74B
:1031240069FD00954346002204212046FFF706FE70
:103134000028B6D123685A6A636A1A70636A228DBA
:1031440001336362638D013B9BB26385638D013AF6
:1031540092B29BB22285ABB1A2B9009543468021BD
:103164002046FFF7EBFD00289BD1638D9BB2FF2B1C
:103174002FD9FF2222854FF08073009031462046DC
:10318400FFF738FD638D9BB2002BCAD12A46414616
:103194002046FFF7AEFD002883D123682021D961A2
:1031A4005A6822F0FF7222F48B3222F4FF7222F06A
:1031B40001025A6084F8411084F8400084F8420007
:1031C40070E7628D92B222850093D2B24FF0007301
:1031D400A3E7628D92B222854FF000730090D2B2C1
:1031E400CCE702205EE700BF002400802DE9FF4702
:1031F4001D460023039390F84130202B044690464B
:103204007CD103689B6913F4004377D190F8402084
:10321400012A73D0012280F84020C1F30906242238
:1032240080F8412046F420594364E3682268012B66
:1032340006BF46F0007343F400534B465360FFF758
:1032440067FA0746226893699269C3F34013C2F38D
:103254000012134313D023689A69009712F01002E6
:103264002B4623D120212046FFF768FDD0B92268E0
:103274002023D36184F8413084F8400013E06B1CB0
:10328400E0D0FFF745FAC01BA84201D8002DD9D1E0
:10329400202384F84130636C43F0200363640023EB
:1032A40084F84030012004B0BDE8F08700222021DA
:1032B4002046FFF743FD02460028F3D1236810217E
:1032C4004FF0200AD961C3F81CA0039941450ED1DF
:1032D400596841F480415960204600972B46514675
:1032E400FFF72CFD0028DDD12368C3F81CA0039B45
:1032F40001330393039B434597D3C9E70220D2E7E5
:1033040010B590F84120202A0346D4B21CD190F87D
:103314004020012A18D0242280F841200268106835
:1033240020F001001060106820F4805010601068D4
:10333400014311601168002041F00101116083F81C
:10334400414083F8400010BD0220FCE710B590F81E
:103354004120202A0346D4B21BD190F84020012AF0
:1033640017D0242280F841200268106820F0010060
:103374001060106820F4706040EA01211160116847
:10338400002041F00101116083F8414083F84000BE
:1033940010BD0220FCE738B5044638B303684CF688
:1033A400CC421A6045F255521A6042685A608268EB
:1033B4009A60FFF7ADF905462368DA68520706D12B
:1033C4001969E26891420DD01A61002038BDFFF7F7
:1033D4009FF9401B2728EFD92368DB685907EBD0F6
:1033E4000320F3E74AF6AA221A60EEE70120EDE78C
:1033F40003684AF6AA221A600020704770B5314C5F
:10340400236843F001032360FFF782F9054623682C
:103414009B0741D5236823F0F80343F0800323601E
:103424006268294B13406360FFF772F941F28836F2
:103434000546636813F00C0F36D1244B244A1A60F6
:10344400244B1868FFF722F90546002838D1236871
:1034540023F0847323F480332360236823F48023CC
:103464002360FFF755F90646236813F0007321D152
:103474006360E3622363A26842F41F02A260A36054
:103484004FF0807292FAA2F2134BB2FA82F2134412
:103494009B0001221A6005E0FFF73AF9401B02285D
:1034A400B5D90325284670BDFFF732F9401BB04259
:1034B400BFD9F6E7FFF72CF9801B0228D4D9F0E72F
:1034C4000125EFE7001002400CC0FFF824030020A0
:1034D40000127A002C030020208190102DE9F3477C
:1034E4000446002836D00368DF0711D423689E07FA
:1034F40000F1858023681D0700F1F28023685807D6
:1035040000F13781A369002B40F0BD81002043E026
:10351400B44D6B6803F00C03042B0AD06B6803F002
:103524000C03082B18D16B6803F4C033B3F5803F48
:1035340012D14FF4003393FAA3F2296893FAA3F358
:103544000122B3FA83F302FA03F30B42CED0636889
:10355400002BCBD101201FE06368B3F5803F1ED15F
:103564002B6843F480332B60FFF7D2F84FF4003715
:1035740006464FF0010897FAA7F32A6897FAA7F3CB
:10358400B3FA83F308FA03F31342AFD1FFF7C0F899
:10359400801B6428EFD9032002B0BDE8F087FBB993
:1035A4002B6823F480332B602B6823F480232B6057
:1035B400FFF7AEF84FF4003706464FF0010897FACC
:1035C400A7F32A6897FAA7F3B3FA83F308FA03F385
:1035D40013428BD0FFF79CF8801B6428EFD9DAE7FD
:1035E400B3F5A02F2B6803D143F480232B60B7E7F6
:1035F40023F480332B602B6823F48023B3E7794DC5
:103604006B6813F00C0F0AD06B6803F00C03082BE3
:1036140022D16B6803F4C033B3F5004F1CD10223ED
:1036240093FAA3F2296893FAA3F30122B3FA83F37A
:1036340002FA03F30B4202D0E36893428AD1296869
:10364400F82292FAA2F22369B2FA82F2934021F0AC
:10365400F80213432B604DE7E2680126FAB196FAAB
:10366400A6F3B3FA83F303F1845303F584139B00A5
:103674004FF002081E60FFF74BF8074698FAA8F3CC
:103684002A6898FAA8F3B3FA83F306FA03F3134209
:10369400D5D1FFF73DF8C01B0228EFD97BE796FA96
:1036A400A6F3B3FA83F303F1845303F584139B0065
:1036B4004FF002081A60FFF72BF8074698FAA8F3B0
:1036C4002A6898FAA8F3B3FA83F306FA03F31342C9
:1036D4003FF410AFFFF71CF8C01B0228EED95AE7DD
:1036E4006269404E404901250AB395FAA5F3B3FA3D
:1036F40083F30B449B0002271D60FFF709F8804603
:1037040097FAA7F397FAA7F397FAA7F3726A97FAC7
:10371400A7F3B3FA83F305FA03F313427FF4EEAE8F
:10372400FEF7F6FFA0EB08000228E9D933E795FA83
:10373400A5F3B3FA83F30B449B0002271A60FEF748
:10374400E7FF804697FAA7F397FAA7F397FAA7F348
:10375400726A97FAA7F3B3FA83F305FA03F31342F1
:103764003FF4CCAEFEF7D4FFA0EB08000228E9D961
:1037740011E71C4DEB69D90031D4EB6943F0805358
:10378400EB61EB6903F080530193019B0126174F12
:103794003B68DA052CD5A368012B3AD12B6A43F098
:1037A40001032B62FEF7B4FF022780464FF00109A4
:1037B40041F2883A97FAA7F397FAA7F32A6A97FA95
:1037C400A7F3B3FA83F309FA03F3134254D0002E98
:1037D4003FF498AEEB6923F08053EB6192E6002648
:1037E400D5E700BF00100240208190100070004017
:1037F4003B6843F480733B60FEF78AFF80463B6876
:10380400DB05C8D4FEF784FFA0EB08006428F6D9D2
:10381400C1E61BBB2B6A23F001032B622B6A23F046
:1038240004032B62FEF774FF022780464FF0010960
:1038340041F2883A97FAA7F397FAA7F32A6A97FA14
:10384400A7F3B3FA83F309FA03F31342BFD0FEF7E5
:103854005FFFA0EB08005045ECD99CE6052B2B6AD2
:1038640003D143F004032B6298E723F001032B6296
:103874002B6A23F0040394E7FEF74AFFA0EB080049
:10388400504597D987E64C4D6A6802F00C02082A25
:103894007AD0022B4FF0807353D193FAA3F3B3FA87
:1038A40083F303F1845303F584139B0000221A600D
:1038B400FEF72EFF4FF000780746012698FAA8F38A
:1038C4002A6898FAA8F3B3FA83F306FA03F31342C7
:1038D40031D1EB6A626A23F00F031343EB62D4E93C
:1038E40007136A680B4322F4761213436B604FF09C
:1038F400807393FAA3F3B3FA83F303F1845303F5C8
:1039040084139B0001271E60FEF702FF4FF0007630
:10391400044696FAA6F32A6896FAA6F3B3FA83F352
:1039240007FA03F313427FF4F1ADFEF7F1FE001B37
:103934000228EED92FE6FEF7EBFEC01B0228BDD904
:1039440029E693FAA3F3B3FA83F303F1845303F55B
:1039540084139B0000221A60FEF7DAFE4FF0007613
:103964000446012796FAA6F32A6896FAA6F3B3FA50
:1039740083F307FA03F313423FF4C8ADFEF7C8FE1E
:10398400001B0228EED906E6012B3FF4E3AD6B6879
:10399400E269E86A03F4C03191427FF4DBAD226A44
:1039A40003F4701393427FF4D5AD636A00F00F0003
:1039B400C01A18BF0120EFE50010024011494B68FE
:1039C40003F00C02082A1AD14FF4701292FAA2F2F0
:1039D4000F20B2FA82F2C96A90FAA0F003F47013CD
:1039E400D340094AB0FA80F001F00F01D35CC14022
:1039F4000648415C0648B0FBF1F058437047044860
:103A0400704700BF001002402C4900081C49000800
:103A140000127A002DE9F0410D46044610B9012048
:103A2400BDE8F0814A4A136803F007038B422ED3A2
:103A34002268910736D4D2073CD4454A136803F070
:103A44000703AB4270D82268424D12F0040F77D1BD
:103A5400130706D56B68226923F4605343EAC20353
:103A64006B60FFF7ABFF6B68F02292FAA2F2B2FA36
:103A740082F203F0F003D340374AD35CD840374B8B
:103A84001860374B1868FEF701FE0020C8E713687A
:103A940023F007030B431360136803F007038B42FF
:103AA400BDD1C5E72B49A0684B6823F0F00303435D
:103AB4004B60C0E76268274E012A24D14FF40033DB
:103AC40093FAA3F1316893FAA3F3B3FA83F302FAF6
:103AD40003F30B42A3D0736823F00303134373600F
:103AE400FEF716FE41F2883807467368626803F0F1
:103AF4000C03B3EB820FA0D0FEF70AFEC01B4045B7
:103B0400F3D903208CE7022A0CBF4FF00073022381
:103B140093FAA3F1306893FAA3F30121B3FA83F380
:103B240001FA03F30342D5E7136823F007032B4399
:103B34001360136803F00703AB427FF470AF82E7AE
:103B44006B68E16823F4E0630B436B6080E700BFBC
:103B540000200240001002400C4900082403002009
:103B64002C030020084B4FF4E0625B6892FAA2F247
:103B7400B2FA82F203F4E063D340044AD35C044A09
:103B84001068D840704700BF001002400449000884
:103B940024030020084B4FF460525B6892FAA2F2AF
:103BA400B2FA82F203F46053D340044AD35C044A69
:103BB4001068D840704700BF001002400449000854
:103BC4002403002003682DE9F347D903044624D5D0
:103BD400974DEB69DA0000F1D080EB6943F0805334
:103BE400EB61EB6903F080530193019B0126914F34
:103BF4003B68DB0540F1C3802B6A626813F44073B1
:103C040040F0D2802B6A626823F4407313432B6222
:103C14001EB1EB6923F08053EB612368DA0706D504
:103C24008349A0680A6B22F0030202430A639F07D8
:103C340006D57F49E0680A6B22F4403202430A63E6
:103C44005E0706D57A4920690A6B22F440220243B2
:103C54000A639D0606D57649E0690A6B22F01002D4
:103C640002430A63980306D57149606D4A6822F4D9
:103C7400800202434A60590606D56D49206A0A6BE0
:103C840022F0200202430A635A0306D56849606A97
:103C94000A6B22F0400202430A631F0706D56449F7
:103CA40060690A6B22F4401202430A63DE0606D5F9
:103CB4005F49A0690A6B22F4400202430A639D052E
:103CC40006D55B49206B4A6822F4000202434A602D
:103CD400180606D55649A06ACA6A22F4F872024345
:103CE400CA62D90506D55249E06ACA6A22F47852F2
:103CF4000243CA62DA0406D54D49606B0A6B22F4AA
:103D0400807202430A639F0406D54949206C0A6BFA
:103D140022F4007202430A63DE0206D54449A06B12
:103D24000A6B22F0807202430A639D0206D5404961
:103D3400E06B0A6B22F0007202430A63580206D554
:103D44003B49606C0A6B22F4806202430A631902E5
:103D540006D53749A06C0A6B22F4006202430A6359
:103D6400DA0106D53249E06C0A6B22F400520243B0
:103D74000A639B0154D4002013E0002637E73B6814
:103D840043F480733B60FEF7C3FC80463B68D80570
:103D94003FF532AFFEF7BCFCA0EB08006428F5D970
:103DA400032002B0BDE8F08702F440729A423FF467
:103DB40029AF296A4FF4803321F4407093FAA3F2B7
:103DC400DFF874C0B2FA82F26244920001271760ED
:103DD40093FAA3F3B3FA83F363449B000022C90765
:103DE4001A6028627FF50EAFFEF792FC4FF00208CE
:103DF400814641F2883A98FAA8F398FAA8F32A6A15
:103E040098FAA8F3B3FA83F307FA03F313427FF49F
:103E1400F9AEFEF77DFCA0EB09005045EBD9BFE7F6
:103E2400034A216D136B23F400430B431363A2E78E
:103E340000100240007000400081901090F83D3066
:103E4400012B2FD1022380F83D300368DA6842F059
:103E54000102DA60144A934216D0B3F1804F13D0B2
:103E6400A2F5943293420FD002F5806293420BD0B4
:103E740002F59632934207D002F54062934203D092
:103E840002F58052934207D19968084A0A40062AEB
:103E940006D0B2F5803F03D01A6842F001021A60DE
:103EA4000020704701207047002C014007000100EA
:103EB4007047704770477047704703681A699107E5
:103EC40010B504460FD5DA6892070CD56FF00202DC
:103ED4001A61012202779B69990700F08580FFF738
:103EE400E9FF0023237723681A69520710D5DA689B
:103EF40050070DD56FF004021A61022222779B69E4
:103F040013F4407F204675D0FFF7D4FF00232377B6
:103F140023681A6911070FD5DA6812070CD56FF0F8
:103F240008021A6104222277DB699B07204667D0C6
:103F3400FFF7C0FF0023237723681A69D00610D542
:103F4400DA68D1060DD56FF010021A6108222277C3
:103F5400DB6913F4407F204658D0FFF7ABFF002302
:103F6400237723681A69D20708D5DA68D00705D5FC
:103F74006FF001021A612046FFF79AFF23681A695D
:103F8400110608D5DA68120605D56FF080021A61A9
:103F9400204600F028F923681A69D00508D5DA68A4
:103FA400110605D56FF480721A61204600F01CF9E1
:103FB40023681A69520608D5DA68500605D56FF0E9
:103FC40040021A612046FFF777FF23681A699106B9
:103FD40022D5DA6892061FD56FF0200220461A61B6
:103FE400BDE8104000F0FEB8FFF763FF2046FFF77E
:103FF40062FF76E7FFF75DFF2046FFF75CFF85E78A
:10400400FFF757FF2046FFF756FF93E7FFF751FFEF
:104014002046FFF750FFA2E710BD0000324A0368B4
:10402400904212D0B0F1804F0FD0A2F5943290425A
:104034000BD002F58062904207D002F5963290428E
:1040440003D002F5E052904215D14A6823F0700380
:104054001343254A90421DD0B0F1804F1AD0A2F5E7
:104064009432904216D002F58062904212D002F54A
:10407400963290420ED01D4A90420BD002F58062D7
:10408400904207D002F58062904203D002F50062AC
:10409400904203D1CA6823F4407313434A6923F05E
:1040A4008003134303608B68C3620B6883620E4B07
:1040B400984213D003F5006398420FD003F5406390
:1040C40098420BD003F58063984207D003F58063D0
:1040D400984203D003F50063984201D10B6903634E
:1040E40001234361704700BF002C014000400140A0
:1040F40010B5044650B390F83D3003F0FF021BB9ED
:1041040080F83C20FDF7B6FC0223206884F83D309B
:10411400211DFFF783FF012384F84830002084F831
:104124003E3084F83F3084F8403084F8413084F8DD
:10413400423084F8433084F8443084F8453084F8BD
:10414400463084F8473084F83D3010BD0120FCE748
:1041540030B590F83C30012B04464FF002003DD0BE
:1041640023681F4D84F83D00AB425A68986807D015
:1041740005F50065AB4203D005F5E055AB4203D12C
:104184004D6822F470022A430D6822F070022A431B
:104194005A60134A934216D0B3F1804F13D0A2F55C
:1041A400943293420FD002F5806293420BD002F511
:1041B4009632934207D002F54062934203D002F54F
:1041C4008052934204D1896820F080020A439A60A5
:1041D4000123002084F83D3084F83C0030BD00BF4A
:1041E400002C0140704770477047000038B5044602
:1041F400C0692169A26823680A4361691D680A438A
:104204006049024329400A431A605A68E168256AF2
:1042140022F440520A435A609968A26921F4306139
:104224002A430A439A60584A934212D1574B1B6B54
:1042340003F00303022B00F09380032B22D0012B05
:1042440040F09480B0F5004F40F08780FFF7B6FB54
:104254006CE04F4A93422FD14C4B1B6B03F4403319
:10426400B3F5003F7CD00AD8002B00F08580B3F56D
:10427400803FE7D001200023C4E9193338BDB3F5EA
:10428400403FF7D1B0F5004F424857D16268530818
:1042940003EB4003B3FBF2F39AB2A2F110004FF622
:1042A400EF718842E6D823F00F0321689BB2C2F372
:1042B40042021343CB603BE0374A93420FD1334B66
:1042C4001B6B03F44023B3F5002F49D004D8002B13
:1042D40052D0B3F5802FCCE7B3F5402FD1E72F4A66
:1042E40093420FD1294B1B6B03F44013B3F5001F0A
:1042F40036D004D8002B3FD0B3F5801FB9E7B3F50F
:10430400401FBEE7264A9342B4D1204B1B6B03F4F3
:104314004003B3F5000F23D003D86BB3B3F5800F7C
:10432400A7E7B3F5400FACE7FFF734FC0028ADD1A5
:104334000020A0E7FFF716FC0028F9D0626800EB24
:104344005203B3FBF2F39BB2A3F110014FF6EF72E9
:1043540091428FD82268D360EAE7FFF72FFBEBE79F
:10436400B0F5004F92D04FF40040E7E7B0F5004FAE
:10437400DAD0FFF70FFCDFE7B0F5004FDAD1FFF733
:10438400F1FBD3E7F369FFEF00380140001002406E
:104394000044004000127A0000480040004C0040F5
:1043A40000500040436ADA0710B506D50168846AF4
:1043B4004A6822F4003222434A609C0706D5016809
:1043C400C46A4A6822F4803222434A60590706D5F7
:1043D4000168046B4A6822F4802222434A601A0767
:1043E40006D50168446B4A6822F4004222434A60BD
:1043F400DC0606D50168846B8A6822F48052224365
:104404008A60990606D50168C46B8A6822F4005252
:1044140022438A605A060FD50168046C4A6822F464
:1044240080122243B4F5801F4A6005D14A68446C67
:1044340022F4C00222434A601B0606D50268816C3E
:10444400536823F400230B43536010BD2DE9F84354
:10445400DDF8209005460F46164698462A68D3692B
:1044640037EA03030CBF01230023B34201D0002029
:1044740027E0B9F1FF3FF2D0FEF74AF9A0EB0800BC
:1044840048452C6802D8B9F1000F1CD154E8003F0C
:1044940023F4D07344E80032002AF7D104F108036E
:1044A40053E8003F23F0010304F1080141E800321E
:1044B400002AF3D12023AB67EB67002385F874301F
:1044C4000320BDE8F88323685A07C7D5E3691B05B1
:1044D400C4D54FF40063236254E8003F23F4D0733F
:1044E40044E80032002AF7D104F1080353E8003FFE
:1044F40023F0010304F1080141E80032002AF3D15A
:104504002023AB67EB67C5F88030D6E773B5044664
:104514000026C0F88060FEF7FBF823681B681A07C2
:10452400054616D423681B685B070AD56FF07E43E3
:10453400009300222B464FF480012046FFF786FFAC
:1045440098B920230020A36784F87400E3672066E9
:104554000CE06FF07E430093324603464FF40011A3
:104564002046FFF773FF0028DCD0032002B070BDA3
:1045740010B5044640B3836F1BB980F87430FDF75F
:10458400B1FA22682423A367136823F0010313609C
:104594002046FFF72BFE012816D0636A13B120468C
:1045A400FFF700FF23685A6822F490425A609A6821
:1045B40022F02A029A601A6842F0010220461A6028
:1045C400BDE81040FFF7A2BF012010BD024403461E
:1045D400934200D1704703F8011BF9E770B50D4D04
:1045E4000D4C641BA4100026A64209D10B4D0C4CA3
:1045F40000F018F8641BA4100026A64205D170BD73
:1046040055F8043B98470136EEE755F8043B9847C4
:104614000136F2E73C4900083C4900083C490008DF
:1046240040490008F8B500BFF8BC08BC9E46704776
:0C463400F8B500BFF8BC08BC9E467047FB
:10464000424C2D506C756726506C617920434F4F5A
:104650004C455220554E495400424C2D506C7567C4
:1046600026506C61792054494720444300424C2D28
:10467000506C756726506C61792057495245204629
:10468000454544455200424C2D506C756726506C90
:10469000617920544947204143444300424C2D5006
:1046A0006C756726506C617920504C41534D410028
:1046B000424C2D506C756726506C61792035004254
:1046C0004C2D506C756726506C61790044454255FD
:1046D00047005354415449535449430020007374D4
:1046E00061746973746963735F7061636B6574731C
:1046F0005F3438355F6F6B0073746174697374690C
:1047000063735F7061636B6574735F3438355F6BBF
:104710006F00616C61726D5F343835006D61785F78
:1047200062745F3530757328757329006D6564692F
:10473000615F62745F3530757328353075733D3352
:1047400036303029006D61785F62745F316D732897
:10475000757329006D61785F62745F31306D732805
:10476000757329006E756D6265725F7661725F7434
:10477000616200696E646963655F7661720074618D
:10478000626C655F69735F6F6B006465627567314A
:104790000064656275673200646562756733006442
:1047A00065627567340064656275673500646562CB
:1047B00075673600646562756737006465627567A2
:1047C0003800646562756739006465627567313009
:1047D0000072657365745F636F6E646974696F6E90
:1047E000006170705F73697A655F696E5F345F62E4
:1047F000797465006C6F636174696F6E5F6F63637A
:1048000075706965645F696E5F345F6279746500B5
:104810006C6F636174696F6E5F6F636375706965F8
:10482000645F696E5F345F627974655F736176653A
:1048300064006572726F725F68645F34383500655A
:1048400072726F725F7061636B6574006572726F14
:10485000725F666C61736800706167655F65726145
:1048600073656400636865636B5F646174613100E4
:10487000636865636B5F646174613200636865637C
:104880006B5F646174613300636865636B5F64616F
:1048900074613400636865636B5F646174613500E3
:1048A0006578697374696E675F636F6465007661CC
:1048B0006C69645F636F6465007472795F636F64D1
:1048C000650070686173655F75706461746500612F
:1048D0006464726573735F6E65775F636F646500B0
:1048E000CC4600083801002000000000D246000835
:1048F0000000002000000000DD460008000000006D
:10490000000000000000000001020304000000009D
:104910000000000001020304060708090102030465
:1049200005060708090A0B0C0D0E0F1002030405FB
:0C493000060708090A0B0C0D0E0F1010F2
:04493C00B9010008B5
:0449400095010008D5
:10494400D24600088903002001650000DC46000807
:104954008903002001650000DE460008900F002056
:1049640002010000F84600088C0F0020020100003C
:1049740012470008800F002001010000DC460008F7
:1049840089030020016500001C4700085E0F002019
:10499400020000002C470008520F00200200000013
:1049A40045470008460F0020020000005447000855
:1049B400380F002002000000DC46000889030020B4
:1049C4000165000064470008100600200200000092
:1049D400734700080C060020020000007E47000810
:1049E4000E06002002000000DC46000889030020B7
:1049F400016500008A470008300F00200401000010
:104A0400914700082C0F002004010000984700087B
:104A1400280F0020040100009F470008240F0020F5
:104A240004010000A6470008200F00200401000034
:104A3400AD4700081C0F002004010000B447000823
:104A4400180F002004010000BB470008140F0020C9
:104A540004010000C2470008100F002004010000F8
:104A6400C94700080C0F002004010000DD460008BF
:104A74000000000000000000CC460008890300206C
:104A840001650000DC460008890300200165000080
:104A9400D1470008B411002004000000DC460008DF
:104AA4008903002001650000E1470008C4110020CB
:104AB40004000000F4470008C011002004000000B6
:104AC40010480008BC11002004000000DC46000867
:104AD400890300200165000032480008840F00208B
:104AE400020000003F4800080212002002000000FB
:104AF4004C4800080012002002000000DC460008B8
:104B040089030020016500005848000808120020AD
:104B140002000000DC460008890300200165000053
:104B2400644800081C0600200201000070480008C8
:104B34001A060020020100007C4800081806002024
:104B44000201000088480008160600200201000047
:104B5400944800081406002002010000DC46000806
:104B64008903002001650000A0480008BA11002054
:104B740001010000AE480008B91100200101000045
:104B8400B9480008B811002001010000DC46000803
:104B94008903002001650000DE460008900F002014
:104BA40002010000F84600088C0F002002010000FA
:104BB400DC4600088903002001650000C2480008A3
:104BC400A011002001000000CF48000804120020BA
:104BD40004000000DC460008890300200165000091
:104BE4008A470008300F00200401000091470008A4
:104BF4002C0F00200401000098470008280F002013
:104C0400040100009F470008240F00200401000055
:104C1400A6470008200F002004010000AD4700084B
:104C24001C0F002004010000B4470008180F0020E6
:104C340004010000BB470008140F00200401000019
:104C4400C2470008100F002004010000C9470008F3
:104C54000C0F002004010000DD46000800000000E5
:104C64000000000000127A000100000010000000A3
:04C000001122334492
:020000040800F2
:10C80000000001209D850108C91E0108CB1E0108FA
:10C81000CD1E0108CF1E0108D11E01080000000036
:10C82000000000000000000000000000D31E01080E
:10C83000D51E010800000000D71E0108D91E0108FE
:10C84000ED850108ED850108ED850108ED850108FC
:10C85000ED850108ED850108ED850108ED850108EC
:10C86000ED850108ED850108ED850108DD1E010853
:10C87000ED850108ED850108ED850108ED850108CC
:10C88000ED850108ED850108ED850108ED850108BC
:10C89000ED850108ED850108ED850108F51E01080B
:10C8A000ED850108ED850108E1200108ED8501080D
:10C8B000ED850108ED850108ED850108ED8501088C
:10C8C000ED850108ED850108ED850108ED8501087C
:10C8D000ED850108ED850108ED850108ED8501086C
:10C8E000ED850108ED850108ED850108ED8501085C
:10C8F000ED850108ED850108ED850108ED8501084C
:10C90000ED8501080000000000000000ED85010831
:10C91000ED850108ED850108CD250108F525010803
:10C920000926010821260108ED850108ED85010889
:10C9300039260108ED850108000000000000000014
:10C94000ED850108ED850108ED8501080000000076
:10C9500000000000000000000000000000000000D7
:10C96000ED850108ED850108ED850108ED850108DB
:10C97000ED850108ED850108ED850108ED850108CB
:10C98000ED850108ED8501080000000000000000B1
:04C99000ED85010828
:10C9940010B5054C237833B9044B13B10448AFF3F5
:10C9A40000800123237010BD600F002000000000F0
:10C9B400A8B9010808B5034B1BB103490348AFF3F9
:10C9C400008008BD00000000640F0020A8B9010821
:10C9D40070470000F0B5344E344C3778002F45D101
:10C9E4002578002D3DD1F0BD002B45D1DFF8C8C01E
:10C9F4002F4DBCF800E0BEF1000F1FD01FB12F78FF
:10CA0400337001372F70277827B12F78013F2F70AB
:10CA1400002727702F78602F09D864232B700123F7
:10CA2400237001234FF47A75ACF8005024E0672F8B
:10CA3400F8D964232B7001233370F2E764272F7035
:10CA4400F0E702782A44D2B202701A4A012515701E
:10CA54001CE003789B1ADBB20370164B01221A7098
:10CA64001EE0632BC0D13570277004E0632BBBD16B
:10CA7400002327703370012335783DB1077813FB09
:10CA840005F52F449742DCD3D2B2027022783AB132
:10CA9400057813FB02F28B189D42DAD8C9B20170F3
:10CAA4000023337023709EE7181B0020171B0020FF
:10CAB400131B0020161B0020141B0020F0B51D4C76
:10CAC4001D4D26781EB92F78002F2DD1F0BD632B74
:10CAD40003D100232E702370012326787EB10788AA
:10CAE4005E4316FA87F7974237BF0288028016FA28
:10CAF40082F292B23FBF0280104A012616702A7851
:10CB040072B15A4303888E189BB2B34289BF03881B
:10CB140001809B1A9BB281BF0380084B01221A70CB
:10CB2400002323702B70D1E7632BD6D127702E708E
:10CB3400D2E700BF181B0020171B0020161B002083
:10CB4400F0B51E4C1E4D26781EB92F78002F2FD11C
:10CB5400F0BD632B03D100232E70237001232678AC
:10CB640086B1077813FB06F646FA87F79742B7BFF4
:10CB74000278027046FA82F252B2BFBF0270114AC2
:10CB8400012616702A787AB113FB02F203788E1804
:10CB94005BB2B342C9BF037801709B1A5BB2C1BFD9
:10CBA4000370084B01221A70002323702B70CFE707
:10CBB400632BD4D127702E70D0E700BF181B002040
:10CBC400171B0020161B002030B50F4C0B7825785E
:10CBD4000078AB420CD348B90133DBB20B70247834
:10CBE400B3EB440F03DB1070087000E00D7030BD30
:10CBF4000028F9D00133DBB20B7021789942F6D8C2
:10CC040001231370F3E700BF942800202DE9F043BB
:10CC14009D4B9E485C78002C40F089829C4D9D4B36
:10CC24002A689D491B8813440A882B60013292B2FA
:10CC3400072A0A8012D90433B3FBF2F3974A2C6013
:10CC440012880C805343964AC3F30F33138040F683
:10CC5400E4429342934A2AD964231370924B1B886B
:10CC640040F6B7329BB2934240F26182B1F8009031
:10CC7400B9F1010F40F05B828C4B8D4C19788D4BD0
:10CC84008D4D1A888D4B1B780B4315D0BAB9844B44
:10CC94001A882378002B40F0BC80894E2D78377891
:10CCA400002D00F02781874F3B7023702BE1137810
:10CCB400002BD3D0013BD0E742B1814A1370824AA2
:10CCC4000023137003702B702370D0E0744B227810
:10CCD4001B886AB17D4E642B327804D9F92AD6D8E0
:10CCE40001323270D3E70AB1013AFAE72270CEE793
:10CCF400DFF8CC8198F800208AB10278002AC6D1E6
:10CD0400FB3B734E9BB240F24A47BB423278E5D9B3
:10CD1400002AE9D16F4B88F800201A70B7E76E4FEC
:10CD24002E783A7876B1A52B07D96C4B1B7823B1B2
:10CD3400F92AACD801323A70A9E70AB1013AFAE704
:10CD44002A70A4E7A3F1650EDFF880C1BEF13F0F9E
:10CD54009CF80060DFF878E11BD8F92E9ABF013601
:10CD64008CF8006084F80090A63B9BB240F2C56C3E
:10CD7400002663458EF8006023D8584B1B7803B314
:10CD8400F92AD7D901232B7064233B70514B1E70B1
:10CD94007DE716B1013E8CF80060A3F1FB06B6B244
:10CDA40040F24A4C6645DFD84C4E3678002EDBD133
:10CDB4009EF800C0BCF1F90F06D80CF1010C8EF8F6
:10CDC40000C0002ABAD162E7B3F5DE7F19D340F27E
:10CDD400912C634517D9B3F55C7F16D940F26A4CA0
:10CDE400634514D940F2195C634598BF0526DFF802
:10CDF400E4C08CF800603A4E012388F800303370A8
:10CE0400DFE70126F3E70226F1E70326EFE704262E
:10CE1400EDE72C4900230B702B4903702B700B7822
:10CE2400002B40F0C280B2F5897F12D3B2F5127F95
:10CE3400C0F0D280B2F5757FC0F0D08040F2EA53E2
:10CE44009A4240F2CD8040F634139A4294BF0823AC
:10CE54008023244A1370244A10789842234840F0CF
:10CE6400F0800278022A00F2BD8001320270154B74
:10CE7400154A1B781278134314BF012300231C4A5C
:10CE84001370BDE8F08300BF3C1600205918002041
:10CE94006818002070180020661800200A18002066
:10CEA4006E1800206C1800208A240020EA1A002042
:10CEB40063180020A616002061180020E91A00203B
:10CEC4005E1800203F1600205A1800206218002027
:10CED4005D1800205C180020601800205F180020F6
:10CEE4005B18002057180020561800205518002001
:10CEF40096280020904C2378002F49D0012B47D14D
:10CF04008E4B35701D7034780378002C40F09D8072
:10CF1400002D00F00081002B00F0AA8040F6FB03F6
:10CF24009A4200F2A3800470854C86482368864D9B
:10CF34001344027823600132D2B2092A027006D95E
:10CF44000533B3FBF2F32B800023236003702A889C
:10CF54007E4BB3FBF2F340F22E2293427C4A00F262
:10CF64009180002313800023FB22534341F2621279
:10CF7400B3FBF2F37748784C0288784D002A40F0EE
:10CF8400968023700A232B704FF47A7303806EE724
:10CF9400DFF8E0C100278CF80070DFF8DCC18CF802
:10CFA4000070002BAFD0013B7FE640F635139A4268
:10CFB4006B4A0BD90523137000236A4A13706A4A1B
:10CFC40013706A4A13706A4A137050E713780BB1EE
:10CFD400013BF0E70B70EFE701233AE7022338E760
:10CFE400042336E7002B3FF442AF802B01D1012309
:10CFF40013E00022013B0A705A4D5B4C5B485C49CC
:10D00400072B1BD8DFE803F0040B1A111A1A1A169F
:10D0140001232B700023237003700B7027E7012377
:10D024002A70227003700A7021E701232A7023708A
:10D034000270F8E72A7022700270D8E72A70227012
:10D04400F6E7137000230370B7E733B140F6FB0330
:10D054009A420BD80023037009E7002964D040F6F4
:10D06400C4139A427FF603AF01230370012306E73A
:10D0740029B140F6FC039A427FF656AFF4E740F636
:10D08400C413F8E7A3F22E2341F2F814A34298B292
:10D0940003D8962B02D8108065E72346963B108070
:10D0A40041F2621293427FF45FAFFA2362E70029F0
:10D0B40021780CBF032605268F199F4202D20A222B
:10D0C4002A7001E61E448E42F9D32E7816B1013E31
:10D0D4002E70F9E5521A13449BB240F21A4293425D
:10D0E40005D940F2ED33038001312170BFE640F2EF
:10D0F4000642934201D9013B48E740F2B5329342DC
:10D1040004D840F2E33303800139EEE7B3F5757FC9
:10D1140038BF01333AE71BB1B2F57A7F9AD3A5E75A
:10D1240011B140F6FC039CE7B2F52F6F9AE7037840
:10D13400002B9BD19BE600BF5F1800205C180020E9
:10D14400E0170020DC170020DA17002060900F00A1
:10D15400D8170020D617002048180020D417002024
:10D16400581800201D1B00201E1B00201B1B002024
:10D174001C1B00203F1600205A180020F0B5674BF6
:10D1840067491C78002C40F09980664D664B2A68EC
:10D1940066481B88134402882B60013292B2072A26
:10D1A400028012D90433B3FBF2F3614A2C60128873
:10D1B400048053435F4AC3F30F33138040F6E442C1
:10D1C40093425D4A22D9642313705C4B1B8840F65A
:10D1D400B7329BB2934271D90688012E6ED1584B57
:10D1E400584A1D781278584B2A431B8829D153BBBF
:10D1F400564C504B564A277818881378BFB14B28A1
:10D2040009D91D2B0BD80133137008E01378002BB8
:10D21400DBD0013BD8E70BB1013BF5E723704B4B67
:10D224004C4A1B78F3B913704B4A13701DE04C3809
:10D23400352803D81D2BE6D92670F0E7002BEED055
:10D24400EAE7002BEBD0444A002313700B70414BE8
:10D25400414A1B781278134314BF012300233F4A29
:10D264001370F0BD002010700870324A08781288DC
:10D27400002B41D0384C237853B1B2F5E76F384ACC
:10D2840002D90523137019E0137803B3013BF9E7BE
:10D29400E52A07D9B2F5137F13D9B2F5E76F34BF86
:10D2A400022380232F4A13702F4A107898422F4864
:10D2B4001BD10278022A06D8013202700B78FBB91E
:10D2C400C5E70123EEE79BB1802B02D10123237034
:10D2D400F4E7012B264A274803D113700023037077
:10D2E400ECE7012303700023CCE7137000230370E1
:10D2F400204A13701E4AC5E720B1B2F57A7FA5D340
:10D304000123ACE735B140F698039A429FD9012333
:10D314000B70F5E7B2F5166FF8E700BF3C16002076
:10D324004C1800206818002070180020661800208F
:10D334000A1800206E1800206C1800208A2400208F
:10D34400EA1A0020E91A0020A8160020501800202C
:10D354004F180020401600204E1800209528002069
:10D364004D1800204B1800204A18002049180020AE
:10D374001D1B00201E1B00202DE9F04FDFF81CE0D0
:10D384009EF80030A3B05BB9034A138801331380BD
:10D3940023B0BDE8F08F00BFB81A0020BC1A0020EB
:10D3A400B0490A789AB100220A70AF490A80AF499D
:10D3B4000A80AF490A80AF490A80AF490A80AF4961
:10D3C4000A80AF490A80AF490A80AF490A80AF4F4B
:10D3D400AF4AB04C1268B2FBF3F23A80AE4AAF499E
:10D3E4001268B2FBF3F22280AD4ADFF854A312684C
:10D3F400B2FBF3F20A80AB49DFF848930968B1FB4A
:10D40400F3F1AAF80010A849DFF83C830968B1FBDE
:10D41400F3F1A9F80010A549A54D0968B1FBF3F192
:10D42400A8F80010A349A44E0968B1FBF3F12980C0
:10D43400A249A3480968B1FBF3F13180A14EA24986
:10D44400DFF808C30968B1FBF3F131809F4EA049AE
:10D454000968B1FBF3F131809E490968B1FBF3F12E
:10D4640001809D490968B1FBF3F1ACF80010DFF8C5
:10D47400E0C29A490968B1FBF3F1ACF80010DFF897
:10D48400D4C297490968B1FBF3F1ACF80010DFF896
:10D49400C8C294490968B1FBF3F1ACF80010DFF895
:10D4A400BCC291490968B1FBF3F1ACF800108F4993
:10D4B400DFF8ACC20968B1FBF3F1ACF800108C4999
:10D4C4000968B1FBF3F38B490B8000238EF800301D
:10D4D400894B197811F0BF0110D18848DFF884C254
:10D4E400036813FA82F2BCF80030026001339BB285
:10D4F400B3F57A7F80F07B81ACF800308048BAF8CD
:10D50400002003687F49DFF860A21A440B88026098
:10D5140001339BB2B3F57A7F0B8020D3B2FBF3F2D5
:10D5240000230B800360BAF8003077495A438A42DB
:10D534004FEA12334FF00A02C0F0D981A3F2965396
:10D5440053432B22B3FBF2F3C3F119036F4A1BB20B
:10D55400642B13806E4A40F3D3810A2313706D4900
:10D564006D480B68B9F800201A4403880A60013337
:10D574009BB2B3F57A7F038023D3B2FBF3F3674AFC
:10D58400B2F8BA2040F6E44042436548B2FBF3F2F5
:10D5940090F800C0BCF1000F00F0B88193B2B3F56D
:10D5A400616FAAF8003040F2B8810A2202705D4A25
:10D5B400138040F6E443AAF80030574A00230B6076
:10D5C4001380594AB8F8001013685848194403885E
:10D5D400116001339BB2B3F57A7F00F2AD81038011
:10D5E4003B88454F3A78402A40F01E82BAF8002022
:10D5F400DFF878815A434E4B1B78120B002B00F056
:10D60400B9814C4B1B78002B00F0B4814FF47A7332
:10D61400A8F800304849B8F800300888DFF850E12D
:10D62400DFF850C1002B00F0AB81013BA8F80030BB
:10D634000023CEF80030ACF800300B881BB19342C5
