:020000040800F2
:10000000008001200D10030801FA000803FA00081F
:1000100005FA000807FA000809FA000800000000C5
:100020000000000000000000000000000BFA0008C3
:100030000DFA0008000000000FFA000811FA00088D
:100040008110030881100308811003088110030840
:100050008110030881100308811003088110030830
:1000600081100308811003088110030815FA0008A5
:100070002DFA000845FA00085DFA000875FA000834
:100080008110030881100308811003088110030800
:1000900081100308811003088110030881100308F0
:1000A00081100308991F00108110030881100308B4
:1000B00081100308811003086D20001081100308CF
:1000C00081100308811003088110030881100308C0
:1000D00081100308811003088110030881100308B0
:1000E00081100308811003088110030881100308A0
:1000F00009200010811003088110030881100308F3
:1001000081100308811003088DFA0008811003088C
:1001100081100308811003082DAF0008192B00106F
:10012000811003088110030881100308811003085F
:10013000811003088110030881100308811003084F
:10014000811003088110030881100308811003083F
:10015000811003088110030881100308811003082F
:10016000811003088110030881100308811003081F
:10017000811003088110030881100308811003080F
:1001800081100308811003088110030881100308FF
:10019000811003080000000081100308811003088B
:1001A00081100308811003088110030881100308DF
:1001B00081100308811003088110030881100308CF
:1001C00081100308811003088110030881100308BF
:0801D0008110030881100308EF
:1001D8002DE9F04F904B1B6885B0002B54D08F4B06
:1001E8001B78012B02D18E4A13704DE08D4B1F886E
:1001F800002F49D08C4E8D4B32781B78134343D057
:100208008B4B8C4C1888FA2814D08B4B1B88B3F571
:10021800967F0FD2894B8A4A1B7812781343894AF2
:1002280012781343884A1278134303D123880BB9F1
:10023800012323802188002951D0012927D1834B0C
:10024800834800224FF496655A620560814D4FF449
:10025800D2702860804DD8631A6428607F48027085
:100268007F4801707F480280186820F008001860F5
:10027800186840F0010018607B4B1A807B4B1A808D
:10028800704B19700223238005B0BDE8F08FB1F5DB
:10029800FA6F02D201312180F6E76A486B4B027887
:1002A8007AB16B4A4FF47A7111606D4900220124CA
:1002B800DA631A640C70196841F008011960027059
:1002C800E2E71A68D5075EBF1A6822F008021A60CA
:1002D80000225A6222805C4A1378013384E7644C16
:1002E800584A24781378002C40F06881172B09D1DC
:1002F800564B1968CC07C7D4196821F00801196052
:10030800642371E75B4E5C493578097829430ED040
:10031800162BB9D14E4B4FF47A7119604B4BDC63F5
:100328001C64196841F00801196017235CE7F3B9E8
:10033800524908780128A7D14449454C4B624FF4EB
:1003480096652560434C2A252560454C2070454814
:100358000380086820F008000860086840F0010081
:10036800086041490B8041490B800B233CE7DFF8CB
:10037800B0C09CF80040002C40F0C780394D2B8855
:10038800E72F03F101032B800BD0E92F2FD040F288
:1003980093139F422ED02C804FF4C87149F64044E5
:1003A80002E0374C4FF4D2712B88002B3FF46CAF2E
:1003B800A34280F09C80334A12888A4280F0888069
:1003C8001421FA28B3FBF1F201FB12339BB25BD183
:1003D8000A2B7FF459AF1E4B1A681F4B1B68B3EBEF
:1003E800D20F0AD21B4A1368053313605AE04FF440
:1003F800E171D3E740F28A21D0E7B3EB920F03D241
:10040800144A13680233F0E7B3EB520FBFF43CAF62
:10041800104A13680133E8E728FB002072FB00202C
:10042800A8F200206EF900200AF300203DF9002010
:1004380074FB002026F9002066DB002098F20020DB
:1004480090F2002007F3002024F900200034014036
:1004580018F9002014F9002010F9002006F30020F4
:100468001FF30020A6F200203AF30020F8F800203D
:10047800BFFA00208FF20020B4FA0020A3F2002077
:10048800A086010080DD00200A2B7FF4FDAE964B8C
:10049800964A1B681268B2EB930F4FEA930105D294
:1004A800934B1960934B01221A70EDE6B2EB530F90
:1004B800BFF4EAAE904B8E4A19881368C72901D851
:1004C800323392E7B1F5967F80F0C1811E338CE715
:1004D800874800220260874801218CF800100170CB
:1004E80086490A801422B3FBF2F32B80CCE68048BD
:1004F80049F640432B80002303607E480121317078
:1005080001707E490B8016236EE60B2B11D17C4BB4
:100518001B78092B3FF6B8AE7A4B19807A4B1970C5
:100528007A4B19607A4B19807A4B19607A4B19808B
:10053800E9E7162B7FF4A8AE784B1B68FA2814BF9E
:100548004FF416724FF4B47213F480732FD17449B8
:100558000C88744909888C420ED8734909889142DD
:100568000AD8FA2825D0644B1B88C72B23D9B3F5A2
:10057800967F2CBF6423C8235B494FF4FC720A6042
:100588005C49097800297FF47FAE53434FF47A72AF
:10059800B3FBF2F3564A1360544A12689A4281D167
:1005A800624BDB6AB3F5FC7F7FF47CAF6CE60B46ED
:1005B800E2E73223E0E74FF49673DDE70B2B07D130
:1005C800494B4FF47A701860584BD9631964A8E600
:1005D800162BF5D0172B0AD154490B6813F00103D9
:1005E8007FF452AE086820F008000860FCE5504C23
:1005F800504D24782D782C434F4D2D782C4352D0D4
:10060800002434704D4C2578002D00F0A7804C4D07
:100618002968052906D84B481E2129600121016057
:100628004948017049494A4C097849B1464909780D
:1006380000293DD001EB810101EB81018900218076
:10064800208800283DD03F49096809B10138208039
:100658002C68254D2A2041434443A14224482C605C
:1006680028BF2146016021480068814204D12F4DEE
:10067800ED6AA54200F027851E4D01262E70CBB9E4
:100688002A4B00205862D963324918640870194906
:1006980001200870196821F00801196019680143E0
:1006A80019601070F0E52C4C2488002CA8D1A9E71B
:1006B8006421C4E781427FF4F5AE1C4BDB6AA34298
:1006C80072E71A49002B5ED0074B4FF47A741C600E
:1006D800074B1860054BC863086418600B6843F043
:1006E80008030B60DDE700BF18F9002010F90020AF
:1006F80014F900201FF3002066DB0020F8F8002022
:10070800A3F2002088F2002086F2002060F3002087
:100718005EF30020E0F2002024F300200CF9002012
:10072800E4DC0020F2F2002080DD002000340140EB
:10073800B3F0002079DB002078DB002009F90020E5
:1007480004F9002000F90020FAF8002008F9002038
:10075800FCF8002006F3002050C500203478002C57
:1007680000F09384524E3778BFB152495BB1524B77
:100778004FF496601860CD630D640B6843F008036E
:100788000B60157080E50B68D8075EBF0B6823F017
:1007980008030B6000234B6276E52BBB47490C78B6
:1007A800012C7FF471AD4348434943624FF4966589
:1007B8000D60434D2A212960424DC16303642960BD
:1007C80041490B7041490C7041490B80016821F087
:1007D80008010160016841F0010101603D491470A0
:1007E8000B803D490B804FE53C4D2C78002C49D1BE
:1007F800374F3B4A3B881178013301F0FD0149F638
:10080800404244F6206C9BB2012918BF62469342CD
:100818003B802BD23349FA28098814BF4FF4B472AD
:100828004FF4D272914214D21421B3FBF1F201FBBE
:1008380012339BB20A2B7FF427AD1F4B1A68214B4A
:100848001B68B3EB520FBFF41FAD1D4A13680A3380
:10085800CBE51B490C601D4901222A700A701E4A0B
:1008680014801422B3FBF2F33B800DE54FF47A6257
:100878003A80134A1460154A012333701370164BDB
:100888001C8001E5012B3BD10C4B1B78012B7FF41D
:10089800FBAC154B1F80154B1F70154B1F60154B7C
:1008A8001F80154B1F60154B1F8002239CE400BF5F
:1008B8008FF200200034014018F90020A3F2002034
:1008C80014F9002010F9002006F300201FF300207F
:1008D800A6F200203AF30020F8F80020A8F2002041
:1008E8006DF9002080DD002088F2002086F20020CB
:1008F80060F300205EF30020E0F2002024F30020E3
:10090800022B40F0BF83944D2B8840F2574083421E
:1009180005D0B3F57A7F84BF4FF47A732B808F4B61
:100928001B78012B40F020838D4BDFF89C821C78CC
:10093800DFF898C28B4F8C482CB9A8F800408CF887
:1009480000403C600480894BB8F800201B88019364
:100958001A4493B20293A8F80030854B9CF80060C3
:10096800B3F800E03B6873443B60038801330380BD
:1009780004F003000136431EF6B2012B8CF8006028
:1009880040F2E8807B4BDFF84892B3F800E07A4BFE
:100998007A4F1B689E4580F0C58099F800A00AF13F
:1009A800010A5FFA8AFA89F800A0BAF1050F4FF038
:1009B800000987F80090A3EB0E0300F2C0803F788F
:1009C800052F09D96E4F4FF0010E87F800E06D4FE3
:1009D8004FF0000E87F800E06B4F3F683B446B4FC9
:1009E800DFF8F0913A88B9F80070DFF89CE10092DE
:1009F800BA42CEF8003003970FD9DFF8DCA1BAF875
:100A0800009009F10109AAF80090DFF8D091B9F82F
:100A180000A0924538BFA9F80020DFF8C49199F8E2
:100A28000090B9F1000F07D1B5F800B040F2574A6D
:100A3800D34518BFA5F800902D88DFF8A891002DA0
:100A480040F0D280524BA9F800501D802B46640814
:100A5800504A32F8142040F247114A4340F2093410
:100A68004D494FF47A70B2FBF0F2A21A0A604B4A71
:100A78001288C832934228BF13463D4A1380484A19
:100A88001688484A1288964200F22E82464A1688EC
:100A980040F6B832964204D9B5F5617F01D90C60A9
:100AA8000346424A0198128813328242404810DBBA
:100AB800322B07D90288312A40F218820A3293422F
:100AC80028BF13463B4A0C68D26AA24204BF0132CF
:100AD8000A60394A038012780868002A7FF4D4AB88
:100AE800A0F12A024FF47A714343B3FBF1F333497F
:100AF800934228BF13460A8832B1013A0A80A0F10E
:100B08001402934228BF13462D4A834228BF034646
:100B180013602C4A12689A427FF4C4AC254BDB6AF6
:100B2800984241E597F800A00AF1010A87F800A069
:100B38004FF0000A89F800A0AEEB03033FE7DFF8A7
:100B480044E04FF0010A8EF800A0DFF834E08EF898
:100B5800009034E7002342E73AF300206DF90020C3
:100B6800A3F2002060F300205EF3002080DD002067
:100B780064F3002052F300205CDE002034F90020EA
:100B880033F9002035F90020E0F20020E4DC0020F1
:100B98006CF3002040E4030818F9002024F3002037
:100BA8008AF20020ECF20020CEF2002064DB002064
:100BB80020F30020003401401FF3002048F30020F8
:100BC80014F9002010F9002088F2002086F2002095
:100BD80036F90020F2F20020D8F20020DAF20020E4
:100BE8008AF9002022F30020002840F07A818CF84E
:100BF80000004FF47A7C0CFB03F3DFF848C3A8F835
:100C08000000BCF80080DFF84093029AB2FBF6F2CD
:100C18001B0B96B24345CEF80030DFF8F0C2DFF880
:100C2800F0E2A9F8006013D9DFF82093B9F80000C2
:100C38000130A9F80000AE48B0F800904B4588BFD5
:100C48000380BEF80000002845D0A0EB900080B2D9
:100C5800AEF80000A748B0F800E0764550D9DFF8B4
:100C6800F092B9F800000130A9F80000A248B0F8E5
:100C78000090B14538BF0680BCF800000EF1140C96
:100C8800624531DD4008DFF878C2002836D0ACF87C
:100C980000009A48006810F4807018BFDFF8B4C2EA
:100CA80007461EBFBCF800000130ACF800009448AD
:100CB800B0F800C0BCF1000F07D19248B0F800901E
:100CC800B9F1000F22D0A0F800C000238E4A11808D
:100CD8008E4A1380BBE6BCF80000A0EB900080B2FF
:100CE800012838BF0120B3E70EF10A0C6245CCBFDA
:100CF800A0EB9000A0EBD00080B2C4E70120C6E7CB
:100D08007F484FF0000CA0F800C0C2E78048B0F858
:100D18000090B9F1000FD8D1DFF83CC2BCF8000050
:100D280010B1ACF80090D0E740F257418D4222D183
:100D3800784909880E1DB2421BDC05398A4218DA47
:100D4800724A434512880CD2B2F5967F03D202F15B
:100D5800320399B2BAE7B2F5FA7F07D202F1190362
:100D6800F7E7642A05D9A2F16403F2E74FF4FA73AE
:100D7800EFE70346EDE7684A1178684AA00871B1C1
:100D880000231370664B1B7800EB8310654B33F818
:100D980010304FF47A726B43B3FBF2F3D9E7624930
:100DA80009780229ECD10121C72C1170DFF8AC9128
:100DB800DFF884C15D4A0FD8032C0FD9014689F8A2
:100DC8000010092901F1FF398CF8009051D91188D8
:100DD8008B4288BF13800CE03121F0E799F80010AE
:100DE8008CF80010118809B9690811801188504AD7
:100DF8001180504ADFF86891DFF824C161089CF837
:100E080000A032F811104A4ADFF818C112884A4384
:100E18004FF47A71B2FBF1F2B9F8001002928B42EA
:100E280038D2DFF840B19BF800B0BBF1090F1CD8ED
:100E3800DFB9039F009ABA4217D8434515D87645BB
:100E480013D8CE1A64235E433B4B3C4F1B78B6FB4A
:100E5800F1F657F82310642E94BF8919643142F2D1
:100E68008876B14207D847F82310029BA9F80030CA
:100E780088E70021BCE73C3947F8231003EB8A13C5
:100E880040F6B7363CF81310B142EED801312CF8D1
:100E98001310EAE7E9D92A4E3678002EE5D15B1A15
:100EA80064267343244E254F3678B3FBF1F357F885
:100EB8002610642B94BFC91A643942F29763994289
:100EC80002D947F82610D0E73C3147F8261006EB40
:100ED8008A163CF81630002BC7D0013B2CF8163088
:100EE800C3E7B9F80030B2E50023DAE53223E9E5D3
:100EF800DEF20020ECF20020E6F200200CF90020DF
:100F08004EF3002048F3002022F3002024F30020B1
:100F18004CF3002022F9002073F3002070F3002026
:100F2800F5F30020F8F40020A9F200206AF300206D
:100F38006CF3002040E4030868F30020F8F3002075
:100F480071F30020F4F200208AF20020DCF2002085
:100F5800E4F2002020F900204AF3002069F3002081
:100F680066F3002072F30020032B40F08B80584B6F
:100F78001B68DA0541BF574A138801331380564B63
:100F8800564A1B8812889A42554A15D2554C2088D1
:100F980001302080544804889C4238BF038013885D
:100FA800132B50D95A2B28BF5A230A339BB24F48C8
:100FB80013800378013303704D4813880088002B91
:100FC80043D0013B9BB213802A8864245343B3FB6C
:100FD800F4F39A4201D9D21A91B2464A4FF4FC73FB
:100FE8001360454B1B8813338342444810DB322976
:100FF80006D90388312B43D90A33994200DD99B2C7
:101008003F4BDB6AB3F5FC7F04BF40F2F913136072
:1010180013683C4A01801278002A7FF435A94FF4FE
:101028007A725943B1FBF2F1374A994228BF1946FF
:101038001160364A126891427FF434AA304AD26A63
:101048009342FFF7B1BA1423B1E7314A12888242BA
:101058000DD2304B1A8882422F4A38BF1880138825
:1010680001331380214A137801331370B5E72B49F4
:101078002B4A0C7814B10B702B8813801188ACE7BD
:101088003221BDE70023FFF7AFB81D498BB1194BDB
:101098004FF47A701860CC630C640B6843F0080353
:1010A8000B6014701F4A002313801D4A1380FFF73A
:1010B800EBB80B68DB075EBF0B6823F008030B6017
:1010C80000234B62EEE7002B7FF4F7AAFFF7D8BAAC
:1010D8000CF9002020F90020E4DC0020F2F20020C6
:1010E80048F30020D8F20020DAF2002046F300206E
:1010F80080DD002018F9002064DB002020F30020A8
:10110800003401401FF3002014F9002010F90020DA
:10111800ECF20020E6F20020E4F200201DF30020AB
:1011280038F3002064F300202DE9F74FA74BA84EB1
:101138001D88A84BA8491A78A84FDFF810C3DFF814
:1011480010E3A74CFA2D7AD1A6480088002A68D067
:1011580030B13388012B03D0042B01D80523338009
:10116800A14B1B7893B9A14B1B887BB1A04AFA2DE0
:10117800128840F2131318BF4FF4E1739A4205D254
:101188009C4A3388128893427CD332809A4B1B78CE
:101198000BB100233380DFF8BCA2DFF8BC82BAF8B9
:1011A80000304CF24F3293429CBF0133AAF8003012
:1011B800924B1888924B1A88924B1B780A2B66D14F
:1011C800012388F80030322AB6F800A0DFF88C82B4
:1011D80040F24E81A0F13D039BB240F21A294B45E3
:1011E80000F24681BAF1010F40F24281BAF1320FA2
:1011F800854B98BF0AF10A09B3F800B098F8003097
:101208009ABF4FEA49091FFA89F94FF07809CB4587
:1012180040F29E80052B40F22D81053B88F8003076
:10122800ACE020B101221A704FF4967397E7774A21
:101238001278022A05D101221A700A238FE7002AA0
:101248008ED1734B00221A70724BACF800201A60D2
:10125800684B0A601A803C2323806F4C6F4B2078C0
:101268001A8001233B706E4B002800F001874FF471
:101278005270D8625A639A63186840F00800186080
:101288002270FCE1642B84BF0A3B33807EE7654B08
:1012980098F8009093F800B0BBF11F0F0ED1624B85
:1012A8001B784B4505D0DFF868914FF0000A89F8A4
:1012B80000A088F80030002B3BD010E01B78202BD2
:1012C80001D15A4BECE75A4B1B788BB1B9F1000F9F
:1012D80002D14F4B83F80090012388F80030554B1A
:1012E8001B88B6F8008098457FF66DAF33806AE7B3
:1012F800B9F1000F1FD1DFF86891BAF8003099F8FA
:101308000090B9F1010F0DD10A2B12D993083B3384
:1013180083420ED3484B1B785BB9DFF8F49089F809
:101328000030D9E70A2B04D993083C33B0EB530FAC
:10133800F0DB424BD4E74FEA520909F13C098145F9
:10134800CDD2DFF8CC9088F8003089F80030F0E78B
:10135800312B01D8013361E7394B4FF0C80883F8C6
:101368000080384BA3F8D083A3F8D223A3F8D40382
:10137800A3F8D6A3A3F8D8B300233380DFF8E4801A
:1013880098F80030002B00F08380132B0BD8DFF87F
:10139800D890013388F80030002389F80030DFF84E
:1013A800CC9089F80030284BB3F802900B68994527
:1013B8006ED2B0F5967F6BD2092A5FD8DFF8AC8081
:1013C80098F80030013388F8003061E074FB0020A1
:1013D80088F900208AF9002098FA002036DB0020DE
:1013E800DAFA002064B800203ABA002028F3002076
:1013F80088DB002084F9002056DB0020EADB00208F
:1014080086DC0020FEEC002038DB0020F5B8002048
:10141800CBFA0020A0FA0020DCFA0020A4FA002071
:10142800002C014084F0002035E000203FE000203F
:10143800ECE60020B2DE002030FA0020BADE002000
:10144800B4FA002062C50020C6F9002086F9002001
:101458005CF3002072F900208FFA002037DB0020AF
:1014680022BA00205CFA00205BFA00205AFA002019
:1014780098F80030002B81D0013BCFE6DFF8589375
:1014880099F80030C72B00F25E81013389F80030EB
:101498003B78B6F80080D3B1B8F1090F00F2558156
:1014A80001233B70B04BB3F804900B6899450ED2FA
:1014B800B0F5967F80F0C181092A00F2B481AB4F64
:1014C8003B88B3F5FA6F80F09B8101333B80B6F817
:1014D8000080B8F1010F00F2BF81ACF80080DFF89E
:1014E800FCA2A34FDAF800303F68DFF8F4B200FB43
:1014F80002F94B44BB428CBFDB1B0023CAF8003007
:10150800DFF8E0A2DBF800B0DAF800A00BFB0AFB7A
:101518009B4580F0C081BEF80030B3F57A7F80F03B
:10152800B0814FF47A73AEF80030BCF80030B7FBE6
:10153800F0F7BB4200F2AC810123D145009307D9F3
:10154800BAFBF0F3BCF800709F4288BFACF80030DB
:10155800884B1B7843B1884BBCF800701B889F42AE
:1015680000F29B8101230093BCF80030002B00F0AF
:101578009781B3F5757F38BF1427DFF8EC9134BF36
:10158800B3FBF7F730274FF0140B39F817A00137E2
:1015980039F81770B3FBFBF9BA4528BF0AF10A07F7
:1015A8000BFB1939A7EB0A071FFA89F909FB07F79B
:1015B800B7FBFBF75744DFF830A2DFF8E8919AF859
:1015C80000A0C9F80070BAF1000F0BD0DFF81CA218
:1015D8009AF800A007FB0AF74FF0640AB7FBFAF77E
:1015E800C9F80070DFF80892644F99F800B03F78A6
:1015F80057EA0B0900F05A81FA2D0CBF322250220B
:1016080022805F4C22805F4CB4F800A05E4CB4FB93
:10161800F2F4BAEB540F4FEA640902D15B4C248808
:10162800BCB909F1FF351FFA89F4ADB2002B00F0FF
:10163800C581242A34BFA82254224A4580F0BE819D
:10164800A41AA4B2524A1580524A1480524A01245C
:101658001470524D2C784CB9514A5462C2F82CA0DF
:10166800146844F00104146001222A70012B00F26E
:10167800A7814C4B1B680B604B4B00221A704B4BDD
:101688001C78002C00F00685494B1B88494A0B60E2
:101698005B011360484B0A681B88484D934238BF6A
:1016A8000B60474B2F681B880A683B44934238BF3E
:1016B8000B600B68BEF800209F4280F0268512B1AF
:1016C8003B445B080B60D1F800C0674522D2ACEB05
:1016D80007020A2A1ED9C2F38F0318463844DFF8D6
:1016E80014E1384FDFF81081086012F00302AEF8F9
:1016F80000303B80A8F800300AD00130012A086089
:1017080006D001339BB2022AAEF8003018BF3B80E6
:101718001FFA8CFC0B682C492C48C5F800C08B605C
:1017280002681A440260328802EB82024A61284A3F
:101738001268012A274A40F0F0841A4B1B6893600C
:1017480003B0BDE8F08F00233DE6132B3FF6AAAEA9
:10175800DFF8A89001333B700023A9F80030DFF8C8
:101768000C90A9F800309DE6C6F9002032DB002075
:1017780080F9002080FA002074FA00204AEF002047
:10178800D8FA0020D4FA002020480100D2FA00201C
:10179800D0FA0020CEFA0020CCFA0020DCFA002093
:1017A800002C014090F90020CBFA0020BEE6002072
:1017B800C2E60020A0FA002090FA002094FA002047
:1017C80092FA0020D2E7002000080050A8DC002090
:1017D80050F20020000C00505BFA002074F9002041
:1017E80078F900207CF900208FFA00208EFA00207A
:1017F80046EF0020D4E70020D0E7002034DB0020AB
:10180800A44BD2271F70A44BA3F8D073A34FA3F8FF
:10181800D2233F88A3F8D403A3F8D683A3F8D873B8
:101828000023338053E6DFF8C882B8F80030C72BAE
:101838000FD80133A8F8003049E6994B1B88142BC0
:101848007FF645AEDFF8A882B8F80030B3F5FA6F36
:10185800EFD300233B703AE6924B1B787BB1924B57
:101868001B78924F13449845C5BFACF800303B88AD
:10187800ACF800800133D8BF00233B802FE68C4BA7
:10188800EEE742F20F7B5B453FF64FAE01334AE687
:10189800ACF8007050E600234FE6ACF8003061E683
:1018A800844F4FF00109C7F800909BE6DFF8449297
:1018B80099F80090B9F1030F7AD0DFF83C9299F8C3
:1018C80000A0DFF8389219F80A90A9F10709B9F1D0
:1018D800010F6BD9DFF8289219F80A90B9F1020FB5
:1018E8000CD1DFF8209299F80090B9F1010F05D1D9
:1018F800B8F1090F02D8B5F5FA7F59D1002B57D0A6
:10190800DFF8A09199F80090B9F1000F11D0952B4C
:1019180050D9B5F5967F13D1FA2B4DD81225A3F1DE
:1019280096026A436FF0630592FBF5F23C3292B27D
:1019380066E6952BEDD80A2B8CBF3C2250225FE639
:10194800B5F5C87FE8D040F22D194D45E4D03232C4
:1019580093421FDDFA2A20DC952A20DD23256A43DD
:10196800A2F5A452023A6425B2FBF5F2C2F13C0298
:10197800514DB5F80090B9F1090F9CBF4FF00A0915
:10198800A5F800902D88A5F10509914509D91FFAF8
:1019980089F235E6FA2B1A46E0D91922E8E73C2203
:1019A800E6E705359542C2D2AAB229E6322227E6F1
:1019B800502225E63C2223E62A2221E6002441E69D
:1019C800B0F5167F21D96FB13C4A022010703C4A0D
:1019D800012010703B4A3C4812880A60520102609C
:1019E8003A4A1380BBF1000F3FF449AE384A02204F
:1019F8001070334A01201070364A334812880A6042
:101A080052010260314A138039E6334A294C108862
:101A1800324A1080324A33481288028057B1294826
:101A2800012F0088206005D124480225057024482C
:101A380000250570BBF1000F0ED02B48057825480E
:101A48000088AB421FBF5843B0FBF5F020601C482C
:101A58000EBF206000250570244D124F287897F896
:101A68000090BEF800702468019730B101382870E2
:101A7800B9F1000F40F0CB8096E2114F12483D7843
:101A8800002D41D162010260104A0C6013800123CD
:101A98003B70EDE7B4FA002062C5002038DB002077
:101AA8007CDC00208FFA002084FA002082FA0020D3
:101AB80085FA002090F90020D8FA00204AEF00208B
:101AC800CBFA002044EF0020A0FA002084F900207F
:101AD80046EF002042EF002044DC0020EADB002033
:101AE80042DC002086DC0020BAEB00209DFA0020B2
:101AF80034DB002022BA0020A6F000200CEE0020E3
:101B08009CF0002022F00020DFF8F4A29AF80050A0
:101B1800BDB1142B98BFC3F1140205F1FF3598BF6E
:101B280062438AF800508EBF22460F25B2FBF5F2B9
:101B3800A84D98BF12190A6052012B800260032336
:101B4800A6E7B9F1000F00F06581DFF8B8C2DFF849
:101B5800B8929CF800C0BCF1000F38D093421FD255
:101B68009D4A1378CBB1013BDBB213706D42036819
:101B780005F019059D4234BF5B1B5B0803600268D2
:101B88009648038852095D1DAA420A605DD9B3F5DB
:101B9800FA7F3CD20133038039E00A230125E4E7C8
:101BA800EDD98D4A1378132B9ABF0133DBB20A2380
:101BB80013700368B9F8002088BF0125B3EB421FF2
:101BC8003FBF6D4205F01905ED180560D7E7BBF179
:101BD800000F41D0934220D27F4A1378CBB1013B0A
:101BE800DBB21370CCF1000C03680CF0190C9C45A7
:101BF80034BFA3EB0C035B080360026878480388D2
:101C080052095D1DAA420A601FD9F92BC2D9754B2A
:101C1800CBE10A234FF0010CE3E7EED96E4A1378C3
:101C2800132B9ABF0133DBB20A2313700268B9F889
:101C3800003088BF4FF0010CB2EB431FDDD2CCF16E
:101C4800000C0CF019031344D6E75D1FAA42DED23C
:101C5800462BDCD9013B9EE7634DDFF878C1B5F828
:101C680000A052452FD9056805FB0AFABAFBF2F520
:101C7800056001253D705D4D95F800A05C4DB5F8F7
:101C880000B09B4561D1A3F16405C82D0DD8BAF108
:101C9800000F0AD1934244D9DFF85CA1BAF800508A
:101CA800C72D31D80135AAF800503D780135EDB27D
:101CB800022D3D7050D862010C600260ACF8003013
:101CC8004C4B1C60A3E7BCF800A00AF10A05AB4224
:101CD8000DDD02F10A05AB4209DD0568B5EB441FCD
:101CE8004FEA441AC7D255446D080560C3E703F1AB
:101CF8000A05AA45BFDD9542BDDA0568B5EB441F64
:101D08004FEA441AB7D9EEE79625AAF80050DFF84B
:101D1800FCA09AF800506D2DC7D801358AF80050FC
:101D2800C3E7C2D2DFF8D0A0BAF80050322D01D9EB
:101D3800013DB8E79625AAF80050DFF8D0A09AF838
:101D48000050462DB1D9013DE8E72B802A4D4FF0D0
:101D5800960AA5F800A0A8E7032593423D700768F6
:101D6800264D12D2632BA2EB030202D8052A28BF04
:101D780005224FF0190909FB02F2BA4234BFBA1A18
:101D88007A08026052092A6098E720D9DFF880A013
:101D98009AF800B09A1ABBF1000F04D1632B02D84D
:101DA8000A2A28BF0A224FF0190A0AFB02FA5744E6
:101DB800BBF1000F00D05744B9F800904FEA491919
:101DC8004F4528BF4F46076002EB5712DBE77F09F4
:101DD8002F6073E784F9002070F9002044EF002099
:101DE80042EF0020B0DE0020B2DE0020BEE6002078
:101DF8008AFA00208CF900208CFA002098FA00203A
:101E08009CFA00204AEF002090FA00208EFA002069
:101E18003FE00020A54DB5F8009009F11405AA424D
:101E280033DD056805FB09F5B5FBF2F50560012012
:101E380038703D789E480135EDB2032D3D70D0F8DD
:101E480000909C4D40F29F804FF0030A934287F820
:101E580000A079D2984F97F800B0984FBBF1000FC7
:101E680041D03B78002B6AD003F1FF3B5FFA8BFB34
:101E78000C23002253434B4587F800B034BFA9EB2D
:101E880003034FEA590303607DE08A4DB5F80090DB
:101E98004B45CED0019DD5B1D0F800A0884D2D88F6
:101EA800012D03D10568AA4538BFAA464B4511D96B
:101EB80009F109059D4211DA02254B453D70056877
:101EC8000ED905EB45055544AD080560B1E74FEA65
:101ED800441AE3E703F109054D45ECE70320A7E7BA
:101EE800142BA6D9EDE70A2B0CD8764A12886FF086
:101EF800090B0BFB0322052A28BF05224FF00A0B0A
:101F08005346B7E70E2BA2EB030206D8082A28BFD0
:101F180008224FF00A0B0C23ACE7B5F800A00F33EA
:101F28009A4508DDBAF1320F82BF674BAAF10A0A57
:101F3800A3F800A000224FF00A0B19239AE74FF0EC
:101F48000A0B0C23012295E75F1EBA426DDA009F47
:101F5800002F47D19A1A584F97F800A0574FBAF157
:101F6800000F41D03B78132B56D80133DBB24FF02A
:101F78000C0A00223B70554B1B88B9EB431F02D259
:101F880002FB0A920260BCF8002003682A80322A09
:101F98004FEA53138CBF04EB5402620093420B6068
:101FA80002D90A6052010260494B1B880A689342B1
:101FB80003D23F4A0B605B011360464D2A88A24258
:101FC800BFF45DAB0B684448A41A02EB5404A34267
:101FD8004AD2B8F1130F037840D8632B32D80133B3
:101FE800037035E00122B6E70B2B0CD8354A12886E
:101FF8006FF0090A0AFB0322052A28BF05220A23D3
:102008004FF0030AB6E7132B0BD80A2A28BF0A2277
:102018000A234FF00C0AADE70A234FF00C0A0122FD
:10202800A8E70A234FF0190AA4E7264A0A271288C4
:102038007B439A4202DD09F1FF3324E7A3DA09F171
:10204800010320E70023642A037001D9013A2A809A
:10205800174B0C6064011C60FFF711BB052B8CBF8C
:1020680003F1FF330023BBE700230370FFF707BB2F
:102078001A6812F0010F1A6822F008021A601A682A
:1020880022F001021A6009BFDA6A586252085A62DD
:10209800FFF7F5BA114B1B7843B3114B1B7813B1FB
:1020A800104BFFF7F2BA104BFFF7EFBABADE002079
:1020B800A0FA002084F900204AEF002070F90020DF
:1020C80082FA002082DC002086F9002090FA0020A5
:1020D800AEDE0020C6F90020C2F90020B8E60020D4
:1020E800D8E60020B6E60020BCE6002019480378B0
:1020F800002B3FF4CFAA184A184D12880A60013BFA
:1021080052012A600370FFF7C5BA002A3FF4DBAA20
:10211800013AAEF80020FFF7D6BA1CB140F6B83342
:10212800FFF70DBB0E49097819B140F6C413FFF744
:1021380006BB0849097819B14FF4FA63FFF7FFBAEB
:102148000849097800297FF4FAAAC3F57A63FFF7EA
:10215800F6BA00BF89FA002086FA0020A0FA00200B
:10216800B8E600208FFA002010B5144A144B1178F5
:1021780001F0FF00D9B100211170124A107848B15E
:102188001148124C00882080114C24881C80114C66
:10219800E06211701A880F4B5A6300229A630D4A45
:1021A800136923F4807323F00103136110BD012127
:1021B8001170084A1B8850639363F0E7A6FA002061
:1021C800D2FA0020CCFA0020D0FA0020D4FA00205D
:1021D800CEFA0020002C014010B51149114B0878A7
:1021E800114AB8B1114804783CB1114C2468DC623A
:1021F800104B1B681360002303700A4B1268002001
:102208000870DA631864074B0B4A196911600022D9
:102218001A6110BD01240C70D86312681A64F2E7C1
:1022280006F300200034014010F900201FF30020BD
:1022380018F9002014F900200CF900202DE9F74FB7
:102248006E4A13780133DBB2042B28BF00231370C6
:102258006B4A138801339BB213806A4A13681903C7
:102268000BD54FF40021516067498A6842F0040297
:102278008A6066490A8801320A8013F4003300F044
:10228800AA81604BDFF8B4C1614F624D4FF4403210
:102298005A60614BDA88188819899C8810449A8991
:1022A80010445A8A10445A880A44D9890A44998A97
:1022B8000A4459890C44198ADB8A0C4452491C4443
:1022C8008B6843F004038B6000238CF80030534B79
:1022D8001988534B1E88534B8010921048434A4329
:1022E80093F85430000B120BA41070433A6033B9C2
:1022F800DFF84CE1BEF800E0BEF1FA0F48D12B78C8
:10230800012B1FD1484B1B88934262D8D31A474AE6
:1023180012889A424FF0960C2DD90CFB03F3B3FBAD
:10232800F2F3434ADFF81CC11278002E60D0002A6D
:102338005ED1404E3678002E4DD0FA208CF8000041
:102348001E46A1E0022B0FD1374B1B88934240D386
:102358009B1A4FF496725343374A1288B3FBF2F331
:1023680001228CF80020DCE7032B32D02E4B1B888F
:102378009342EDD8CAE79B1A0CFB03F3DFF8C8C0F9
:10238800BCF800C0ACEB0202B3FBF2F39633C8E72B
:10239800DFF894C0BCF800C09445C2D8234B1B8812
:1023A800A2EB0C0293424FF0960C04D90CFB02F2FC
:1023B800B2FBF3F3B5E7D21A0CFB02F2DFF888C0E0
:1023C800BCF800C0ACEB0303B2FBF3F202F19603D6
:1023D800A7E70023A5E73C2B9CF8006008D9DFF8A5
:1023E8006CE0704534D8F92EAAD801368CF8006014
:1023F8009CF80060C82E32D9A2E700BF93FB0020EA
:1024080038FB0020000002400006005078DE002063
:102418002CDC002022BA0020ACDC0020ACDD00203F
:10242800FEDB002078C300205CFB00205AFB002064
:102438008AF90020FDDB002056FB00201CDC002070
:1024480074FB002000DC002058FB0020CF010100B5
:10245800DFF8D8E27045CBD9002E40F0A880DFF82D
:10246800D0C29CF800C040F6E446B0FBF6F6BCF1DA
:10247800000F09D142B1DFF8BCC2604504D8287802
:10248800012801D13E603346DFF8ACC2DFF8AC92D8
:10249800BCF80270BCF80400BCF80080ACF804700A
:1024A800384440441FFA83FE184477454FEA9000A9
:1024B80038BF7746A9F800007D48ACF800E04745EA
:1024C800078038BFA0F800800788ACF802807745FD
:1024D800784F38BFA0F800E0B7F802E0B888B7F83E
:1024E80000C0DFF85C82A7F804E070446044304420
:1024F8008008A8F8000061436F48A7F802C0090BDC
:102508003E80018072B16D4A12888A4251D8891A78
:1025180040F26C7041436A480088821AB1FBF2F1BC
:1025280001F164026748684F4688818804884480BE
:10253800314421441144654C02808908398089B2AC
:10254800868005310A20B1FBF0F12180604C2978A2
:10255800668825885F4F65800329A188A680314455
:1025680008BF002229441144228089085A4C398026
:1025780089B20531B1FBF0F121805849098805324B
:10258800B2FBF0F291422CD3554D288800283ED05A
:1025980054498C6820448860002129805248017879
:1025A80000295BD0012945D00139017056E0013E70
:1025B8001CE74E480088B0F5167F0AD84C480088BA
:1025C800884206D2091A64246143121AB1FBF2F256
:1025D800A8E70022A6E747490A8801320A801A4676
:1025E800D2E74048444C8168A1EB91012160434CFB
:1025F800816000202080424C2080394C2080414C52
:102608002068A0EBD00020603F480160BCE73C4C4C
:10261800218829B1334DAE683144A9602080BDE7D7
:10262800364C20880028B9D02E4DAE683044A860BA
:102638002180B3E70021017034480088824229D9FB
:102648003348344C01702078092802D801302070B2
:1026580004E03148217001781429A5D82F4C21783D
:1026680001296FD12E49098831292E4984BF500884
:102678003C3009888CBF80B23C2041436420B1FBC8
:10268800F0F189B28B425FD20221217026490120E4
:10269800087059E0E2D21F481D4C017020780928C3
:1026A800D4D91D48217001789529D7D801317CE704
:1026B800E8DB0020E2DB00207EDC002060FB00205D
:1026C8005EFB0020D6DB00203EDC002042DC002040
:1026D800D0DB00203CDC002040DC0020B2DE002003
:1026E800D0E7002000080050ECE70020EADB0020DB
:1026F80062FB00207ADE002098FA0020D4E7002050
:10270800D2E70020A0FA002094FA0020EAE700208F
:10271800E9E70020E8E70020EDE70020D6E7002001
:1027280088F900209AEB0020BEE60020531203002F
:1027380030FA0020DF0A0600DCDB002044DC002041
:102748001ADC00200229A1D053EA020100F06A82B3
:10275800B04CB14E2178012940F0A180DFF8CCB20D
:10276800DFF808C3BBF80070DFF8CCE2DFF8CCA2D2
:102778000F2F35D8A94800210137ABF80070CCF8E5
:102788000010CEF80010AAF800100170A4490988BA
:10279800632900F2F880A3490888C0F1820080B25A
:1027A800A14DD5E902170F4469680F4429680F4401
:1027B8009E49098827294FEA970700F2E68078376B
:1027C800BFB201209A49BB42086068D9012840F08D
:1027D800FB809848016801310160022121705EE0A8
:1027E800DCF80010DEF80050009142F21070272F3C
:1027F80003FB00F0BAF80010DFF87492DFF8748277
:102808000195B0FBF2F016D8162949F8210048F8CE
:1028180021309ABF013189B20021AAF8001000992D
:102828000844CCF800000198834901371844ABF8F4
:1028380000700860AAE759F82170009D49F8210046
:10284800EF1B07EB0009019D58F82170CCF80090A8
:10285800EF1B48F82130DFF8C4C1DFF81CA203EBF6
:102868000708CEF800804FF0180EB8FBFEF8434575
:102878009CF800703ED3132F35D9DAF800E086456E
:102888003CD3162998BF0131CAF800006B4894BFA1
:1028980089B200210180217801293FF477AF62488D
:1028A8008168C160416881600168C0E90031B16830
:1028B800F1607168B16031686148C6E9002121782A
:1028C800022940F0E5805F490A805F49097811B91B
:1028D8005E4D510829805E490978002940F08180C1
:1028E8000A222270F7E00137FFB20A2F8CF8007035
:1028F800C3D8C6E7002FC4D0013FF5E74FF0180C46
:10290800B9FBFCFCE645BCD9524F3F784FF47A78C6
:102918000CFB07F7B7FBF8F7DFF86081B8F8009011
:10292800DFF85C81B8F80080C145A0EB0C0B0BD92F
:1029380007EB47075F45A4D2AEEB0C0EBEEB970F33
:1029480084BF022727709CE7DFF83881B8F8008039
:10295800B8F1000FECD1DFF8F08098F80080B8F1FA
:10296800000F02D008FB0777E4E7DFF81C81DFF8E7
:102978001C91B8F80080B9F80090A8F11308C84570
:10298800D8BF7F00D6E71E200AE73349097881B906
:1029980057083C37BFB20220D6E90251294475686E
:1029A800294435682944C90850318F4288BF8FB2FD
:1029B80008E7384483429FBF57085037BFB2042006
:1029C80084BF03205027E7E7022801D1234801E705
:1029D800032801D12248FDE604287FF4FEAE2148F1
:1029E800F8E62149097800293FF47AAF03212170DC
:1029F8000E4900250D800121B2F5167F01700B49A3
:102A080040F2B4800A88312A3FF66AAF01320A8060
:102A180061E000BFECE60020F0E60020D2E60020EE
:102A28009AEB0020CAE6002000E70020EAE6002032
:102A380054F2002078F20020E0E60020DCE60020D6
:102A4800B8E60020CEE60020D8E60020DAE600202E
:102A580023E800203AE8002046E8002074F200202D
:102A680070F200206CF2002035E80020E4E6002037
:102A780070E7002010E70020D4E600203CE80020A2
:102A880040E80020C4DA00203EE8002086DC002070
:102A98000A291DD8002900F0A5800139092900F26A
:102AA800A18001A555F821F0072900100729001079
:102AB80027280010C3290010152A0010152A001015
:102AC800152A0010152A0010152A001007290010D1
:102AD800142940F0878063490A7862B1013A0A7084
:102AE800614A1188614A9160614900220A806149FE
:102AF8000A8061490A800278002A24D05F4909784F
:102B0800002973D05E495F4D09882960574D584E9A
:102B1800A96000213180574E3180574E31805A4983
:102B28000978002964D02178033901290BD957493C
:102B3800097841B95649098849083C318B4257D927
:102B48004F4A1288AA60534E3278012A6AD1524FEE
:102B5800524D3978524C2868228809294BD80131BE
:102B6800397018440132286022805BE04D4A802584
:102B780095624D4A022616704C4A40269661956227
:102B88000422227000220A8049490A80494A138097
:102B9800A1E7012202703D4A4549127832B9454AF7
:102BA8001588AB428ABF642213800A80424D0A8886
:102BB8002D7895423FF62AAF0A2222702F4A1278C2
:102BC80072B13E4A324912880A80364A80219161A0
:102BD800354A01251570354A9161402191627AE79D
:102BE800374AEFE700223749227010E736498AE76B
:102BF800013A0270A7E7B0FBF2F1C1EB0111B1F5A0
:102C0800967F32BF1E210A27B1FBF7F18B4205D907
:102C1800022131702D490E8814498E6044F61F61D7
:102C28008A429ED92A4D2B482B4C2B780268218842
:102C380001330A44DBB202602B701BB9274D0360D5
:102C4800120A2A80264B1A888A4238BF1980254BD7
:102C58005A6A22801A6922F001021A6103B0BDE89B
:102C6800F08F00BFBEE60020C2E60020000800503A
:102C7800D4E70020D2E70020D0E70020D8E60020E3
:102C8800B6E6002098FA002023E800201CDC00208B
:102C980088F900200DEF00200CEF002008EF00203D
:102CA80006EF00200004004822BA0020000800486F
:102CB800E8E60020D0E60020CCE6002036E8002038
:102CC80038E80020EAE60020BCE6002004EF0020F7
:102CD80010FB002014FB00201CFB00200EFB002032
:102CE80018FB0020000800402DE9F74F954B964F40
:102CF800964E04229A61964A137801331370954BC5
:102D08001B6913F4005F00F0918193490B78D3B9E4
:102D1800924A934B1288A3F82024924A1288A3F867
:102D28002224914A1288A3F82424904A1288A3F8EE
:102D380026248F4A1288A3F828248E4A1278C2F1D2
:102D4800C802A3F82A24FA230B7002F0F9FA02F059
:102D5800D7FA002002F0E8FA02F0DEFA012002F0C9
:102D6800E3FA02F0D9FA022002F0DEFA02F0D4FA0D
:102D7800814BDA6912F00F0000F083810F2119628C
:102D88007E4B1B7893B17E497E480B880088984219
:102D98000CD050060AD57C4AD05C774A01339BB2E6
:102DA800B3F5806F28BF002390620B80774BDA69F8
:102DB800110700F076811A6A42F00F021A6202F0D7
:102DC800B7FA02F0A5FA724B1B78E3B1714B1B7886
:102DD800002B00F07181704B1A880A2A13D96F4BA7
:102DE8001B780C20B3FBF0F100FB1131A2F10A00B3
:102DF80050FA81F1398003F007030521B2FBF1F2A3
:102E0800643213443380664DDFF81CE22A789EF85A
:102E1800003064496448654C9A4200F051812B782F
:102E2800DBB28EF8003000230B6003602360604B38
:102E38001A88604B1A80604A604BB2F800C0604A3A
:102E48001B88338016885F4AA7F800C016805E4A40
:102E5800B2F800905D4AA2F800905D4A16885D4A73
:102E680016805D4A1268B2F57A7F80F032815B4A3B
:102E780000231370484A1380594B1B78002B38D015
:102E8800584B1B78002B34D057490B78002B01F096
:102E9800E380334A554C5648A2F8D033237801785A
:102EA800002B01F0B580012B41F08D80514C002999
:102EB80041F07E80504A514D5162514E42F2D0014C
:102EC800D16229804FF4526535804E4E258031807D
:102ED800116821F0080111600370136823F00103E1
:102EE8001360136843F001031360474B4FF47A7281
:102EF8009A60FDF76DF9454A454C13884548464D9B
:102F080001339BB2138023780268298801330A446D
:102F1800DBB2026023701BB9404C0360120A2280A6
:102F28003F4B1A888A4238BF19803E4B5A6A2A801A
:102F38001A6922F001021A61024B04229A6203B054
:102F4800BDE8F08F0010004886DC0020EADB002096
:102F580092FB002000080048B3F00020B0F00020E9
:102F680062C50020AEF00020ACF00020AAF00020DE
:102F7800A8F00020B2F00020003801409FB50020E2
:102F880098AD002096AD00209AAD0020004C00407E
:102F9800CFF00020CCF0002088F9002083FB00202F
:102FA80086F0002080F000207CF0002078F00020DF
:102FB8001ADC002018DC002042DC002044DC002061
:102FC8003EDC002082DC00203CDC002080DC00208D
:102FD80040DC002084DC00202CFB00208AF9002043
:102FE800FCDB002046DC0020B4FA002032FA002086
:102FF800DCFA0020D2FA0020002C0140D0FA002090
:10300800CEFA0020D4FA00200008005090FB0020DF
:1030180000FB002004FB00200CFB0020FEFA00202F
:1030280008FB00200014004085F0002091483B88F0
:1030380002889A42904A0DD20380904B31881980B9
:103048008F4B19888F4B19808F4B19688F4B1980BC
:10305800C82313708E498F4B0C881B889C423EBF37
:103068000B80C8231370137813B1013B13706CE6FF
:10307800824A03801380834A0B801380834A13801B
:1030880063E694067FF57CAE83495D6A834C0B88C2
:10309800E55401339BB2B3F5806F34BF0B800880D1
:1030A8006EE692067FF58BAE7D4A586A7D491378A5
:1030B800C8540133137082E67B4A33801360A2E65A
:1030C8000B6801330B600368013303602368013325
:1030D800ACE6764A1278002A6AD0754C754B25887A
:1030E80075491B88754AB2FBF3F2B5EB520F4FEAEC
:1030F80062030988724A02D1108888420DD071484B
:1031080011800380543B4FF47A724B43B3FBF2F3C4
:103118006D4A13806D4B01221A706D4B6D481B78F8
:1031280001786D4AEBB10123137071B915B94FF4E9
:103138007A732380694B00225A622288DA621A68FD
:1031480042F001021A6001230370654B4E4A1B8846
:10315800B3F57A6F28BF4FF47A631360614A9360BE
:103168008AE61370464A13805C4A49B14FF452719B
:10317800D16253639363116841F008011160E3E77A
:10318800136813F0010309D1116821F008011160D7
:10319800116821F0010111605362D6E7136823F02A
:1031A80008031360136823F0010313605162CCE72E
:1031B8004D4A1278002A3FF45FAE4C4A1288002A22
:1031C8007FF455AE4A4A1278012A3FF450AE494E70
:1031D800494A36781278002E3FF44EAE474E36787C
:1031E8003243474E367832437FF446AE454A12782A
:1031F800002A3FF441AE444A1678444A925D002AB8
:103208003FF43AAE424F3F78012F0AD1414B80221A
:103218009A61414B01211970404B9A6140229A6290
:103228002AE6022F08D13B4B80229A623A4B1F7044
:103238003A4B40219961F2E7032F07D1364B1F70B3
:10324800364B40229A6180229A6115E6013A032A98
:103258003FF612AEDFE812F00400110117019406E0
:103268002F4A304E1288002A5ED002F065F80123FA
:10327800337001E6B0F00020B2F00020AEF000207C
:1032880088F90020ACF0002098FA0020AAF000206D
:10329800A8F0002080DD00209CB100209EB1002015
:1032A80041F1002042F100208CDC0020CAFA002005
:1032B800D4FA0020C6FA0020C8FA002020480100ED
:1032C800D6FA0020D0FA0020CEFA0020CCFA00204E
:1032D800C0FA0020DCFA00208AF90020002C014006
:1032E800C4FA00200008005084FB002050C50020CC
:1032F80095FB002040BA00203CBA00203ABA0020D2
:10330800F7B90020FAB90020A6F000209CF00020B0
:1033180021BA00200004004822BA00200008004812
:10332800A6F9002084F00020894A1278002A9CD14E
:1033380096F800E0BEF1010F5FFA8EF718D1DFF8BA
:1033480040E24FF08008CEF81880DFF838E28EF8B7
:103358000070DFF834E2CEF818804FF04008CEF85D
:103368002880DFF8A0E29EF800E0BEF1C80F02D185
:1033780002232B707BE795F800E00EF0FF08BEF102
:10338800000F12D1734A1278002A6ED01D2B09D86B
:103398000B68C82B00D92F706F4A002313806F4A1F
:1033A800137064E7C1F80080F6E72F78012F56D133
:1033B8006B4F3B2B3F8814D8026844F620639A422F
:1033C80004D9684B1B780BB102232B70664B1B8802
:1033D8001F4400232360604B1F80604B01221A703A
:1033E80045E7D0F800E0BEF10A0F84BF02680A3A48
:1033F800B3F5167F026005D8B3F5E17F13D9BCF1A8
:10340800310F10D8594B22681B681420434393424C
:103418003CBF00232B70226841F270739A42DAD9BC
:1034280000230B60D7E722680A2A8ABF2268002295
:103438000A3A22604E4A11888B4208D24A4A1288B8
:10344800CB1A53433C3993FBF1F31F44C3E7494A72
:103458001288934224BF7A43B2FBF3F7BBE728787C
:1034680002287FF404AF1D2B01D80A6094E70B688B
:10347800B3F57A6F90D92A708EE73F4B02221A7003
:1034880001F03AFFF8E4354A1278002A40F0BC808F
:103498003A4B1B78012B4FD1394E8022B261394EFD
:1034A8003370394B9A6140229A62384A002313706C
:1034B800294A2B701380364A1370364A1370364ADD
:1034C8001370364A1370364A1360364A1370364AF8
:1034D80042F210751580354A1370354A1380354A03
:1034E8001380354A02251570344A1370344A137014
:1034F800344A1370344A1380344A1370344A1370B0
:10350800344A1360344A1360344A1380344A1370BF
:10351800344A1360344A1360344A1360344A1360DF
:10352800344A1360344A1380344A1370344A13609F
:103538000B60036023609FE4022BB6D1104E8022FB
:10354800B262104E3370104B40269E61ACE700BF4C
:1035580030FA002064F0002088F900208AF9002061
:1035680034F000205AF0002032F0002038F000201B
:1035780024F0002026F0002084F00020E3EC002056
:103588000004004822BA002000080048A4B6002021
:1035980046EF00200DEF0020ECE60020D6E70020E3
:1035A800F0E70020DEE70020C4E6002010DB002062
:1035B8000EDB0020F8E7002022E800203FE0002092
:1035C80035E0002034E000200EE0002032E000204A
:1035D80012DF002020DF002018DF002024DF002079
:1035E80029DF002050DF002048DF002040DF0020D6
:1035F80038DF002034DF002054DF002011DF0020F6
:103608007CE00020E7EB00209C4FDFF88C8297F8E5
:1036180000A098F80020BAF1000F00F02D82984A17
:10362800DFF8B0E24FF08008C2F8188001228EF867
:103638000020DFF8A4E20AF1FF3ACEF818804FF034
:103648004008CEF82880BAF10E0F37D8DFE81AF014
:103658000F005000360036003600360036003600BF
:1036680036007F00E000480136003600F401854D41
:1036780000221D2B2A8014D802600B680A2B1DD942
:10368800DFF858C20A6001238CF800304FF0020CB2
:1036980087F800C005272F807B4D2B7002602260C1
:1036A8000CE07A4B0A601A8842B90268C82A05D920
:1036B800774A01211170774A12781A806F4B764A3F
:1036C8001B78127813437FF4D7AB744B1B78032B0A
:1036D8003FF4D2AB724B1B78092B00F22784694B5D
:1036E8001A88092A3FF6C8AB0A221A80FFF7C4BB1A
:1036F8003C2B07D93A70634A00230B6013800360A0
:103708002360DBE70B68142B11D90A233B70654B48
:103718001A68654B1A605E4B02221A70634B1A785E
:103728005A4B1A8000230B6003602360C6E70368C6
:103738000A2BC3D9534A5E4C138824789C42BDD9BE
:103748000133138000230B6005230360B6E7504D57
:10375800DFF858C102222A704C4A9CF800C0A2F82F
:1037680000C0DFF84CC19CF800E0DFF818C13C2B22
:10377800ACF800E04FF000030ED90B600360D4F8FA
:1037880000C0BCF1640F08D94FF0010C87F800C0E5
:1037980085F800C0138003602360424B1A68424BCF
:1037A8001D68AA4288BF1A600B68B3F5167F85D3D7
:1037B8000B23404A3B7000230B60012111703E4AE5
:1037C800036013703D4A236013603D4A3D481380EF
:1037D8003D4B1B88B3F5757F36BF14223022B3FBEF
:1037E800F2F230F81210013230F81220142091420F
:1037F80028BF01F10A02B3FBF0F400FB1433521A9C
:103808009BB25343B3FBF0F31944304B198055E78F
:10381800DFF8A0E01B4D9EF80020022A1BD02C4A9E
:103828001288502A17D8224A92F800804FF00A09C5
:10383800C8EBC802B2FBF9F294450CDBA5F800808E
:10384800B3F5167F40F296800368642B7FF636AF97
:103858000F233B7032E7DFF830C000228CF80020DD
:10386800DFF864C00A60BCF800C0A5F800C00C25E9
:1038780002608EF800203D702260E1E7FEEC002037
:103888000004004888F9002046EF002064B80020B2
:1038980009B80020C0EB0020CEE00020CFE00020D7
:1038A800E7EB002040B80020F8EC0020B3EB002044
:1038B800BAEB00200DEF00200CEF002008EF0020ED
:1038C80006EF0020C6F90020B8EB002004EF002026
:1038D800E8DB002022BA002000080048A4B6002037
:1038E8008D4AD4F800E0B2F800C00A2202FB0CF2BC
:1038F8004FF01408724508FB0CFC3DD9874A4FF07D
:10390800020E82F800E0864A92F800E0854AA2F8A2
:1039180000E02268DFF83882944562D9824A12882A
:10392800A8F80020002E6ED1804ADFF828C212883D
:10393800DCF800C06244DFF8FCC1DCF800C0624576
:103948000CD87B4A12889A4208D900224FF0010C01
:1039580085F800C03A700A60026022603B2B59D893
:103968000B68142B06D9002301222A703B700B60C8
:10397800036023600023E8E6D4F800E072450FD125
:103988006C4ADFF8D0E1D2F80080DEF80020DFF8DA
:103998009C91CEF80080A2EB0802A9F80020B8E7B5
:1039A8005E4A4FF0010E82F800E0DFF8C0E12268BD
:1039B8009EF800800CF5FA6E9645DFF868E102D9AA
:1039C800AEF80080A5E75C4A12884245F8D2DFF8D5
:1039D800748198F80080424538BF4246AEF800200E
:1039E80097E7564AB8F800E01288964598D9AEEBA2
:1039F80002024FF01409B2FBF9F20132AEEB020EEB
:103A08001FFA8EF28CE7012E9BD122680CF57A7C86
:103A1800944595E70A6812B10A68013A0A60B3F555
:103A2800167FA7D90368642B7FF648AE444A002363
:103A380013800F223A7076E6384C2270414C257874
:103A4800384C2580404C2270404A1478404A1D2B3F
:103A580014804FF000030DD8BCF10A0F0AD9036097
:103A68000A68282A7FF62AAE0A223A70314A106874
:103A7800384A10600B6021E6002A00F0CB80012A4A
:103A880008D10222C1F800A088F80020C0F800A0E0
:103A9800C4F800A0304A1278012A2BD1DFF8D0E010
:103AA8008027CEF81870DFF8CCE08EF800202B4A7B
:103AB8009761402797622A4FDFF894903F884FEA32
:103AC8009C0E0EF13C027A436427B2FBF7F292B2E5
:103AD800934284BF0022226022680A2A8CBF214AAE
:103AE800214AB3F5167F1288A9F8002044D900238B
:103AF8000B602AE6022ADED1DFF874E08027CEF8D0
:103B08002870DFF870E08EF80020144A4FF0400E5D
:103B1800C2F818E0CEE700BFB6EB002009B80020D5
:103B2800B3EB002064B80020B8EB0020FCEC0020C8
:103B3800B0EB002040B800209CE00020B4EB00204F
:103B4800E4EB0020C0EB002046EF0020BAEB002099
:103B580088F90020F8EC0020E3EC00200008004879
:103B68009AEB0020D8E00020DAE00020B2EB002039
:103B78000004004822BA0020B74A1788BCEB171F78
:103B8800B5D3B64A4FF0010C82F800C0DFF860C325
:103B98000A68BCF800C09445BFF490AD0EF18702E6
:103BA800B2F5AF7FA8BF4FF4AF7293427FF6E2AE93
:103BB8000368052B7FF682ADA94A00231370A94A32
:103BC8002B701370A84A0B601380A84A0360137007
:103BD800A74A88F800301370A64A23601360A64AE3
:103BE8001370A64A42F210711180A54A1370A54AB3
:103BF8001380A54A1380A54A02211170A44A1370A4
:103C0800A44A1370A44A7F081380A44AA9F8007034
:103C1800137053E5A24F97F800C0BCF1030F40F0B2
:103C28008480DFF848C28CF80020DFF844C28CF8A2
:103C380000209C4A1278012A4FD1DFF8B8824FF051
:103C4800800CC8F818C0DFF8B08288F80020964ABF
:103C5800C2F818C04FF0400CC2F828C07F4ADFF8FD
:103C68009C82DFF89C924FF0010C82F800C07A4ADF
:103C7800B2F800C08D4AA2F800C08D4A1288052A01
:103C880038BF0522A8F8002002F1C8081FFA88F8F2
:103C9800A9F8008095F80090B9F1C70F0FD84FF038
:103CA800C80985F800902D781D2BEDB28EF80050CC
:103CB80094BF0025551C0D600025056025600D6822
:103CC800AA427C4D1BD34FEA9C023B329342A5F893
:103CD80000C03FF6F3AC0023CCE6022ABED1DFF8E1
:103CE80014824FF0800CC8F828C0DFF80C8288F8DE
:103CF80000206D4A4FF04008C2F81880ACE7002257
:103D08002A800D68A8453FF6C9AC1D2B0BD803685F
:103D1800042B00D90A60226841F26F739A427FF639
:103D2800CDAC002395E50260F5E7DFF8D8C1624F16
:103D3800DCF80010614DDFF8D0E128689EF80080BB
:103D480009EB01043988CCF800400131184489B2E4
:103D580028603980B8F1000F13D08EF80020DFF802
:103D6800ACE1B0FBF1F0CEF800005548B4FBF1F13E
:103D7800016054492A60CCF800203A800A78013260
:103D88000A70514A1288002A3FF498AC4F4ADFF86B
:103D980080811588DFF87CE1D8F80020DFF878C149
:103DA8004B494C4F0C883968DFF870A1DFF870B1C7
:103DB8001544DEF80020C8F800501344DCF8002051
:103DC800CEF800304A440C44DFF858914249CCF808
:103DD80000200888D9F800103C6041180191C9F802
:103DE8000010BAF800109BF80000013189B2AAF857
:103DF800001000283FF462ACB5FBF1F5B3FBF1F31A
:103E080000208BF80000DFF820B1B2FBF1F2CBF80C
:103E18000050324DB4FBF1F42B60314BC8F8000070
:103E28000A250532B2FBF5F21A602E4B2E4A1C60A9
:103E3800019BB3FBF1F30533B3FBF5F313602B4A96
:103E4800CEF800001378CCF800003860C9F80000FC
:103E5800AAF800000133DBE6DAE00020A4B600206F
:103E68003FE000203EE000203AE00020ECE60020A1
:103E7800D6E70020F0E70020DEE70020C4E60020B7
:103E880010DB00200EDB0020F8E7002022E80020ED
:103E980035E0002034E000200EE0002032E0002071
:103EA800CFE00020E3EC00200008004870DF00208D
:103EB800D4E0002088F9002024DF002020DF002043
:103EC80014DF002026DF0020C6EB0020C6E000201B
:103ED80064B8002038DF002062B8002044DF0020EA
:103EE8003CDF002030DF00202CDF002011DF002025
:103EF800D6E000200004004822BA002074DF002029
:103F080072DF002018DF002012DF00201CDF0020F5
:103F180050DF002048DF002040DF002054DF002071
:103F280029DF002034DF00204CDF0020974B9B5D09
:103F3800DA1F012A12D8964B21221A7001F0E4F9EF
:103F4800944B1B78002B3EF497AF934B1B78012BB7
:103F58007EF492AF01F0F8F9FEF78EBF5A1E012ADF
:103F680006D88B4B1F221A7001F0DAF9FEF784BFCE
:103F7800033B032B3EF680AF854B20221A70E9E7FE
:103F8800864B874980229A61864B01201870864BA0
:103F98009A6140229A62854B854A1B7823B1087042
:103FA80002231370FEF768BF0B7082490B80F8E795
:103FB800814B1B7823B14FF452632380FEF795BFE2
:103FC8004FF4D263F9E77D4B79B14FF45272DA625C
:103FD80000225A639A63196841F008011960027057
:103FE800774B00229A60FEF784BF1A6812F0010F1F
:103FF8001A6822F008021A601A6822F001021A6090
:1040080009BFDA6A596252085A6200232370E7E747
:104018006C4A13606A4A9360684A59B14FF4527106
:10402800D16253639363116841F008011160037012
:10403800FEF75FBF136813F0010F136823F008033E
:104048001360136823F00103136009BFD36A516238
:104058005B085362FEF74DBF5B4C2378002B7EF460
:1040680048AF5A4B1B78002B3EF443AF58480378AF
:10407800002B40F00283574B1B78002B3EF439AFDE
:10408800554B1B78002B3EF434AF544C544A2478DB
:104098001378032C52D1534C2588534C9BB1FA2DDD
:1040A800248840F2262508BF4FF4A575AC4245D2B6
:1040B8004E4B1C804E4B3C220A70A3F8D023A3F829
:1040C800D243FEF716BFFA2D248840F24E2308BFCC
:1040D8004FF4AF739C42FEF40CAF394B4FF4966427
:1040E8009C60444C00232370434C2380434C238022
:1040F800434C2380434B444C1D88444B272D1D8043
:10410800238835D8013323802388642B0CD9272DA5
:104118008CBF022301231A460B70354BA3F8D0231A
:10412800A3F8D2533A4B1D800B78027813433EF420
:10413800E0AE234B00229A60FEF7DBBE092BF3D8D2
:1041480001A454F823F000BF0B3F001045400010B5
:104158007F400010FD420010174300106B43001011
:1041680089430010AF430010C94300109544001064
:10417800FA2DC7D8264E3388632B95BF0133012308
:104188003380358088BF1370BEE700BF0CEE002077
:1041980084F0002007E8002020E800200004004800
:1041A8008AF9002022BA002000080048F3DE002027
:1041B800A4B6002088F90020A6FA0020002C0140AF
:1041C8000008005098FA002011B8002042C50020CD
:1041D800BFFA00203DF900203CF9002072FB0020C6
:1041E800BEFA002074FB002080DD0020B6FA002013
:1041F80062C50020BDFA0020A8FA0020ACFA002011
:10420800AAFA0020EADB0020BAFA0020B2FA00205D
:10421800B8FA0020964BDC6AA4F552745C624AF244
:104228001044DC62934CFC2525801C6924F48074BE
:104238001C611C6824F008041C601C6844F001041C
:104248001C60022313708C4B00221A806CE78A4D85
:104258002B8801339BB2082B2B800FD8874B1B88E8
:10426800272B05D8864A01241470864A13805BE7F9
:10427800FA2B7FF659AF824A0224F5E7092B3FF45F
:1042880053AF0E2B1AD8804B804A814C5B8812881A
:1042980024885A43B4EB123F4FEA123334BF1B1B36
:1042A80000234FF4967253437A4A1288B3FBF2F311
:1042B800794A1488A3427FF637AFD7E70F2B41D14D
:1042C800754B764A1B881380754A12889A4203D325
:1042D8006B4B0A221A7027E7724A1288B2F5967F4A
:1042E80019D1714A1278012A0BD1632B02D8644A7A
:1042F8000B24B9E7B3F5AF7F7FF616AF604A0C24FD
:10430800B2E7032A04D1772BF1D9B3F5C87FF3E7D5
:104318005B4B6422DEE7B2F5C87F03D040F22D1470
:10432800A24257D1604A1278012A04D1952BDED9CE
:10433800B3F52F7FE0E7032AEAD1952BD7D9B3F558
:10434800487FD9E7102B01D14A4B7DE7122B7FF626
:10435800EBAE132B10D1494B1B88272B06D8484AA4
:1043680015241470474A13804B4A7FE7B3F5AF7F93
:10437800FAD9434A1624F4E7182B84D9192B33D1D8
:10438800454B4A4A1B881380454A12889A429FD255
:10439800444A1288B2F5967F0DD1434A1278012A11
:1043A80001D1632BB0E7032A7FF4BEAE772B9ED9E9
:1043B800B3F5617FA0E7B2F5C87F03D040F22D14B2
:1043C800A24207D1384A1278012AB6D0032A7FF4CC
:1043D800ABAEB2E7B2F5FA7F7FF4A6AEC72B86D9AB
:1043E80040F22622934287E71A2B05D1204A136808
:1043F80043F00803136097E6312B7FF695AE322B16
:1044080007D11E4B1B88FA2B7FF68EAE1C4A192447
:104418002AE7174B1B68DE073FF586AE184B1C785A
:1044280014B3184B0C701A881B4B1A80204BA3F836
:10443800D223204AA3F8D0431288A3F8D4231E4AD3
:104448001288A3F8D6231D4A1288A3F8D8231C4A39
:104458001288A3F8DA231B4A1288A3F8DC231A4A25
:104468001288A3F8DE235FE6032313702C805BE633
:10447800002C0140D2FA0020BAFA0020EADB002022
:10448800BCFA0020B6FA0020ACDC0020ACDD00202D
:104498005CFB002058FB0020B8FA0020B0FA00208E
:1044A800B2FA002074FB00206DF90020AEFA00205B
:1044B80062C5002088DB002030DB00202ADB0020DA
:1044C80054DB00205ADB002046DB0020944C238874
:1044D80001339BB2142B23807FF626AE042313707E
:1044E8000023238020E68F4B8F4DDC6AA4F552749D
:1044F8005C624EF2B0542C80DC628C4C2478012C27
:104508008B4C14BFFC254FF4FC752580894D012484
:104518002C70894D2C701C6924F480741C611C68F3
:1045280024F008041C601C6844F001041C607C4BE7
:1045380000241C8005231370F6E57F4B1C78002CA3
:104548007FF4F2AD784D42F2D0062E80784D2C8063
:1045580001241C700623EEE7724B1C69E40507D59D
:104568001C6924F480741C61744C23780133237013
:10457800714B1B78002B7FF4D7AD0723DBE7694B22
:104588004FF45274DC6200245C639C631C6844F042
:1045980008041C600823CEE7624B1C6814F0010471
:1045A8007FF4C2AD1D68654F654E25F008051D6096
:1045B8003D78644B022D3AD11470012202709B6839
:1045C800614A9DB2158032882B46B2B9358032884F
:1045D8005E4C13445B082380963B9BB240F28A24CE
:1045E800A3427FF6A1AD5A4B34240C70A3F8D043F4
:1045F800A3F8D223A3F8D45396E5A2F11904A5424F
:10460800E5D0A2F13204A542E1D0A5F11904A242F5
:10461800DDD0A5F13204A242D9D04D4C33270F701A
:10462800A4F8D073A4F8D223A4F8D453CFE755B193
:104638009D6835803C709C68962C06D99C68193C0E
:104648009C60092377E73580F5E7414B35220A70EE
:10465800A3F8D0233288A3F8D2233B4A1288A3F8C0
:10466800D42361E52E4C238801339BB2B3F5FA7F3E
:1046780023807FF659AD04235DE7364B1B78002B6A
:104688007EF437AC344B1B78002B3EF432AC334D00
:104698002B78002B40F08C84314B1888FA2812D1E3
:1046A800304B1A6A92075EBF1A6A42F002021A6217
:1046B8002D4A1378132B85BF2C4A012301332B7005
:1046C8001370FEF716BC2A4B1B78012B09D0294B17
:1046D8001B78002B3EF40DAC274B1B88002B7EF477
:1046E80008AC264B64221A80254B1F4A1E78117885
:1046F8008E42244E13BF197033880133002308BF3C
:104708009BB233800426072900F2F483DFE811F016
:104718003C00B300A401F2013F020A03B103EE0317
:10472800BAFA0020002C0140D0FA00206DF90020D0
:10473800CEFA0020A6FA0020CCFA0020BDFA00200C
:10474800ACFA002000080050AAFA0020A8FA0020BD
:1047580062C50020CAFA0020A8F200201CB8002078
:1047680074FB0020004001401BB8002013B8002053
:1047780072FB00200AF3002094F2002092F200203D
:104788001AB8002018B80020B3F5C87F8748884CAD
:1047980025D2884B08229A6204229A62864B00220C
:1047A8005A639A63854B1B7853B9854B20229A62CA
:1047B8001022C3F82824002303802380FEF799BB26
:1047C800012B03D17E4B20229A61F1E7022BF2D113
:1047D8007B4B20229A621022C3F81824EBE7794D0C
:1047E80001882D8811BB05807749258809888D4265
:1047F80038BF2180B3F5167F7EF67BAB0188734BFB
:10480800734D1980C82923882B8017D9714B012033
:104818001870714BA3F8F2136849A3F8F0030978EC
:10482800A3F8F4130A231370FEF763BBA94202D25C
:1048380001310180D8E7D7D90139FAE7B3F5487FC4
:104848000BD96449022008706349A1F8F2330A239E
:10485800A1F8F0031370FEF74CBB002303802380FC
:10486800564B1B781BB901231370FEF742BB02237A
:104878001370FEF73EBB272B04D84E4B08229A61D3
:10488800FEF737BB4F2B21D84A4B082199624D4B75
:104898001988464B1888884238BF198044484A4BC3
:1048A80004881B889C4238BF0380C82981BF4B48B5
:1048B8000A2101701170B3F5487F7EF61AAB474B99
:1048C8000B2119700A231370FEF713BB772B4FF0D7
:1048D800040103D8374B9961FEF70BBB9F2B21D8F6
:1048E800344B9962374B1988304B1888884238BF47
:1048F80019802F48344B04881B889C4238BF03809A
:10490800C82904D936490C2008700A211170B3F55A
:10491800487F7EF6EEAA324B0D2119700A231370D8
:10492800FEF7E7BAC72B04D8234BC8225A63FEF711
:10493800E0BAEF2B31D820480021C82B41637EF420
:10494800D8AA204B1D4C1888204B24781B88254D4D
:1049580098428CBFC31A0B46234988BF9BB221F8E3
:104968001430194B19881A4B1B88994286BFCB1AE9
:104978009BB20023B0F5FA7F25F814303EBF174BE1
:104988000E201870B1F5487F7EF6B3AA134B0F219D
:1049980019700A231370FEF7ACBAB3F58C7F25D2D1
:1049A800054BC8229A63FEF7A4BA00BFAEB7002031
:1049B800ACB70020000C00480040014017B80020A8
:1049C800001400488CDD0020F4B70020AAB70020AE
:1049D800A8B7002012B8002062C5002010B8002037
:1049E8000FB800209CB70020A2B70020B3F5A07F25
:1049F800BFF43DAF9F490020B3F58C7F88637EF4F8
:104A080078AA9D4B9D4918889D4B0C781B889D4919
:104A18009D4D984286BFC31A9BB2002321F81430DB
:104A28009A4B19889A4B1B88994286BFCB1A9BB21E
:104A38000023B0F5FA7F25F814303EBF954B1020BF
:104A48001870B1F5487F7EF654AA924B112119705F
:104A58000A231370FEF74DBA272B04D88E4B082271
:104A68009A61FEF746BA4F2B04D8824BC8225A6384
:104A7800FEF73FBA772B33D87E490022502B4A6382
:104A88007EF437AA7E497C4B08881B887B49834281
:104A980084BF1B1A9AB20978804B7D4823F81120ED
:104AA8007A4B00881B88834288BF1B1A7C488CBFBE
:104AB8009BB20023952A20F811300BD8794A14218B
:104AC8001170B3F5487F7EF614AA764B16221A7039
:104AD800FEF70FBAB2F5487FF3D9724A1521EFE70E
:104AE8009F2B9BBF6C4B082203239A6288BF1370CD
:104AF800FEF7FFB9272B03D8674B9E61FEF7F9B97C
:104B08004F2B04D85B4BC8229A63FEF7F2B9772B78
:104B180033D858490022502B8A637EF4EAA95849B1
:104B2800554B08881B885549834284BF1B1A9AB283
:104B380009785D4B564823F81120544B00881B8890
:104B4800834288BF1B1A59488CBF9BB20023952A01
:104B580020F811300BD84F4A1E211170B3F5487F49
:104B68007EF6C7A94B4B20221A70FEF7C2B9B2F5E0
:104B7800487FF3D9474A1F21EFE79F2B98BF464A42
:104B88004FF0040394BF93621370FEF7B2B9272B5A
:104B98000DD8414B464908229A61384B1B780022B0
:104BA80021F81320434921F81320FEF7A2B99F2BBF
:104BB80027D8304B4FF461725A632F4B304A1B8809
:104BC8001088834209D92D4A1178394A32F81140A0
:104BD8001B1A9C42B8BF22F811302C4B2C4A1B8858
:104BE800108883427EF685A9244A1178314A32F822
:104BF80011401B1A9C42BEF67CA922F81130FEF720
:104C080078B9C72B26D81B4B00225A631A4B1C4A6B
:104C18001B881088834209D9184A1178244A32F827
:104C280011401B1A9C42B8BF22F81130174B184A82
:104C38001B88108883427EF65CA9104A11781D4AA9
:104C480032F811401B1A9C42BEF653A922F81130C3
:104C5800FEF74FB9C82B56D1084B1A78144B33F8C6
:104C68001230B3F57A7F27D20E4B28221A70FEF73E
:104C780040B900BF004001408CDD002017B800207B
:104C8800AAB7002096B7002090B70020F4B70020FC
:104C9800A8B700200FB80020000C00488AB70020F1
:104CA80084B7002010B800207EB7002078B7002015
:104CB80072B700206CB7002040F6B8318B4204D997
:104CC800A54B29221A70FEF714B9A44B33F81230F9
:104CD800B3F57F6F04D9A04B2A221A70FEF709B9E1
:104CE800022A07D11D2B3EF604A99B4B2B221A70D2
:104CF800FEF7FFB8012A01D1C72BF4E7B3F57A7F95
:104D0800F3D3FEF7F6B8EF2B04D8954B08229A6236
:104D1800FEF7EFB8B3F58C7FFEF4EBA8052313700C
:104D2800FEF7E7B8272B0CD88D4B8E499E618E4B2A
:104D38001B78002221F813208C4921F81320FEF754
:104D4800D8B89F2B27D88A4B4FF461729A63894B46
:104D5800894A1B881088834209D9834A1178814A75
:104D680032F811401B1A9C42B8BF22F81130834B0D
:104D7800834A1B88108883427EF6BBA87A4A11783A
:104D88007A4A32F811401B1A9C42BEF6B2A822F8A1
:104D98001130FEF7AEB8C72B26D8754B00229A63A0
:104DA800744B754A1B881088834209D96E4A11785A
:104DB8006C4A32F811401B1A9C42B8BF22F81130D5
:104DC8006E4B6F4A1B88108883427EF692A8664A0B
:104DD8001178664A32F811401B1A9C42BEF689A81F
:104DE80022F81130FEF785B8C82B33D15E4B1A78FC
:104DF8005C4B33F81230B3F57A7F04D2614B322220
:104E08001A70FEF776B840F6B8318B4204D95D4B7C
:104E180033221A70FEF76DB8544B33F81230B3F5DD
:104E28007F6F04D9574B34221A70FEF762B8022AF2
:104E380007D11D2B3EF65DA8524B35221A70FEF79E
:104E480058B8012A01D1C72BF4E7B3F57A7FF3D319
:104E5800FEF74FB8EF2B04D8414B04229A62FEF7B5
:104E680048B8B3F58C7FFEF444A806231370FEF708
:104E780040B839493C4D08782C782B2817D1414E39
:104E88003378352B14D14048002303550B70337009
:104E980054BB01232B70324B147008229A620422EF
:104EA8009A62334B00225A639A63FEF722B850B1D4
:104EB80004EB840303EB830300EB830333480370A1
:104EC80000230B70E4E72F4E33784BB104EB8401D9
:104ED80001EB810103EB81032C4930700B70D7E79C
:104EE800294B01211955D3E70724D4E70823137068
:104EF800FDF7FFBF254B1B78237043B9A0F59673C8
:104F0800012B18D8204B1B780BB96423237001237D
:104F18002B701F4B20229A621022C3F82824A3F575
:104F2800006308229A6204229A62114B00225A6393
:104F38009A63FDF7DEBFB0F5C87FE3D0B0F5FA7F1E
:104F4800E5D11449104B91F838001A7820B30AB10A
:104F5800652222705B78D7E710B800206CB7002074
:104F6800000C004866B7002017B8002060B7002082
:104F7800004001408CDD0020AAB70020F4B70020D3
:104F8800A8B700200FB8002013B8002012B80020DE
:104F98000014004878C3002091F88C100029D6D15D
:104FA8000AB1662222705B78002BB0D06723ADE788
:104FB800924D2B78002B7DF49CAF914E31780029CF
:104FC8006DD10C460A224FF090431869C7054CBFB3
:104FD8000131013402F1FF324CBFC9B2E4B212F020
:104FE800FF02F2D18748038833B9874B80229A623F
:104FF8000F230380FDF77DBF132B7DF67AAF0133B6
:105008009BB2B3F5C87F038007D28C423DF671AFDF
:1050180001232B700280FDF76CBFB3F5167F33D2E6
:105028002826B3FBF6F206FB123292B2BAB9764AD8
:105038008026966114268C42B3FBF6F206FB1233E7
:105048009BB212D8092B9BBF704A137802230133F5
:1050580085BF2B70002313700380FDF74ABF142A05
:1050680002BF694A80269662E4E70A2B7DF441AFC5
:10507800664A13781BB100231370FDF73ABF032269
:105088002A700380FDF735BFB3F5C86FFDF431AF63
:105098005F490280012333700B70FDF72ABF5C481B
:1050A8000378002B74D05B4A1688711C89B2013BC7
:1050B8001180032B6AD8DFE803F0021F2E61524BE0
:1050C80080249C61544B01251D70544B9C614024E5
:1050D8009C62534B1B881D2B08D800231380514B0F
:1050E80001221A70FCF720F8FDF703BFB1F5FA6F3B
:1050F800F5D902230370F0E7434B80229A62464BAE
:1051080002241C70454B402414299C619A62E6D9FC
:1051180003230370E3E73C4B80249C623E4B02254B
:105128001D703E4B40259D613F4D9C6201233F4CC5
:105138002B70322323803A4B1B88FA2B13D93C4B14
:105148001B7883B1142905D91423138013882BB134
:10515800013BC3E70029F9D01680F7E72B702380BD
:1051680013800423D5E744F620639942B7D9314A1E
:10517800002301212B7023801170CAE72A4A0023DB
:1051880013702A4A14291380A9D9C2E70023C0E75B
:10519800294D2B78002B7DF4ACAE284E31780029B0
:1051A80040F090800C460A224FF090431869C005E1
:1051B8004CBF0131013402F1FF324CBFC9B2E4B235
:1051C80012F0FF02F2D11E48038833B90E4B802239
:1051D8009A620F230380FDF78CBE132B7DF689AEF0
:1051E80001339BB2B3F5C87F03802BD28C423DF6C6
:1051F80080AE01232B700280FDF77BBE3CBA0020F5
:1052080040BA00203EBA0020000400483BBA002003
:105218003ABA002038BA002022BA00200008004814
:10522800EADB00209CFA00208AF9002088F9002097
:105238001CDC002037BA0020F7B90020FAB900209A
:10524800F8B90020B3F5167F33D22826B3FBF6F25F
:1052580006FB123292B2BAB9214A80269661142608
:105268008C42B3FBF6F206FB12339BB212D8092B21
:105278009BBF1C4A13780223013385BF2B70002380
:1052880013700380FDF735BE142A02BF144A802626
:105298009662E4E70A2B7DF42CAE124A13781BB110
:1052A80000231370FDF725BE03222A700380FDF743
:1052B80020BEB3F5C86FFDF41CAE01233370028025
:1052C800FDF717BE084B1B781BB100F011F8FDF76E
:1052D80010BE064B01221A70FBF726FFFDF709BE28
:1052E80000040048F6B900200FDF002084FB0020EE
:1052F8005FF800F095B000085FF800F069720020D0
:105308005FF800F0152700205FF800F0E534002072
:105318005FF800F0B53100205FF800F0A1900020A0
:105328005FF800F0DD4500205FF800F0718C002088
:105338005FF800F08D2F00205FF800F011B500082D
:105348005FF800F0F12400205FF800F0D15F002042
:1053580010B5054C237833B9044B13B10448AFF3A7
:1053680000800123237010BD44920020000000003B
:10537800C456030808B5034B1BB103490348AFF3F0
:10538800008008BD0000000048920020C4560308B1
:1053980053B94AB9002908BF00281CBF4FF0FF3194
:1053A8004FF0FF3000F088B9ADF1080C6DE904CE7C
:1053B80000F006F8DDF804E0DDE9022304B07047E8
:1053C8002DE9F047089D8E4604468846002B4AD1B1
:1053D8008A42174662D9B2FA82F64EB1C6F1200364
:1053E80001FA06F820FA03F3B74043EA0808B44084
:1053F8004FEA174E1FFA87FCB8FBFEF1230C0EFB91
:10540800118843EA084301FB0CF29A4209D9FB18B8
:1054180001F1FF3080F0EA809A4240F2E7800239D9
:105428003B449A1AA3B2B2FBFEF00EFB102243EAE9
:10543800024300FB0CFC9C4509D9FB1800F1FF3224
:1054480080F0D6809C4540F2D3803B44023840EA45
:105458000140A3EB0C0300211DB1F3400022C5E974
:105468000032BDE8F0878B4205D90DB1C5E90001CE
:1054780000210846F5E7B3FA83F1002946D17345C0
:1054880002D3824200F20581841A6EEB03020120E6
:105498009046002DE5D0C5E90048E2E7002A00F073
:1054A8009080B2FA82F6002E40F0A4808A1A030C8B
:1054B8004FEA174E80B2BCB20121B2FBFEFC0EFBD4
:1054C8001C2243EA024304FB0CF29A4207D9FB1858
:1054D8000CF1FF3802D29A4200F2E080C4469B1ACF
:1054E800B3FBFEF20EFB123340EA034302FB04F463
:1054F8009C4207D9FB1802F1FF3002D29C4200F20D
:10550800CA8002461B1B42EA0C40A5E7C1F12006EF
:105518008B4022FA06F71F430EFA01F420FA06F32D
:105528002EFA06FE4FEA1749234300FA01F81FFA3C
:1055380087FCBEFBF9F01C0C09FB10EE44EA0E4494
:1055480000FB0CFEA64502FA01F209D93C1900F14C
:10555800FF3A80F09C80A64540F2998002383C448E
:10556800A4EB0E041FFA83FEB4FBF9F309FB134402
:105578004EEA044403FB0CFCA44508D93C1903F18A
:10558800FF3E80F08280A4457FD9023B3C4443EA39
:105598000040A4EB0C04A0FB02EC64457346E14612
:1055A80062D35FD05DB1B8EB030264EB090404FA7F
:1055B80006F622FA01F31E43CC40C5E90064002137
:1055C8004FE7B1FBF2FC010C41EA0E4180B240EA20
:1055D80001423B4638463C46B846BE462026B1FB0B
:1055E800F7F1A2EB080241EA0C4166E7014618E729
:1055F80010462CE7C6F120022EFA02F3B740B1405C
:1056080020FA02F24FEA174E0A43B3FBFEF8BCB287
:105618000EFB1833110C41EA034108FB04F9B040B2
:1056280089454FEA104380B23ED9791808F1FF3C0A
:1056380001D289451FD8A1EB0901B1FBFEF909FB8D
:1056480004F80EFB191192B242EA0142424529D2EE
:10565800BA1809F1FF31C4D24245C2D2A9F10201F8
:105668003A44BEE7F0459DD2BEEB02036CEB070C53
:105678000138E14696E7A7EB09094944A8F1020C6D
:10568800B1FBFEF909FB04F8DBE773467FE75046F8
:1056980066E70846FDE63B44023A33E7ACF1020C04
:1056A8003B441CE749469CE7A1EB0901C446B1FB12
:1056B800FEF909FB04F8C4E7704700BF2DE9F74F6E
:1056C8008A480378002B00F0CC80DFF88082884D70
:1056D80098F80010874CA1F11803012B4FF08002B5
:1056E800854B2AD8AA620225257040249C619A62BB
:1056F80000231E2900F2B580DFE811F02500B30071
:10570800B300B30065006F00B300B3008300C800A6
:10571800B300B300C301360060008300890098001D
:105728009E00B3003603550383005F0183009A018E
:10573800B300B300B300B3005503AA610125257077
:105748009A614022D3E76D4B6D4A1B781278134358
:1057580003D16C4B1B881D2B02D80023037080E0FB
:105768000D2388F800307CE0674A68481380684A4F
:10577800012111700178674A91B167490C787CB1B1
:105788000B7003706549664B09881B8814884FF4B1
:105798007A7043434143B1FBF4F1B3FBF1F3138057
:1057A8001388B3F5966F03D94FF49663138058E0C6
:1057B800B3F5617F55D24FF46173F7E7524A13800E
:1057C800534B012207E0504A13804E4B1B883C2B59
:1057D800F6D94F4B00221A7043E04B4B0A221A802D
:1057E800484B1B88503B9BB2642BF2D84D4B1B880F
:1057F800072BEED94C4A13804C4B1A884C4B1A8015
:10580800DEE7414A13803F4B1B88322BE0E73E4BD3
:10581800C8221A803B4B1B88D23B9BB2282BD8D876
:10582800404B1B88BE3B9BB2142BD1E7364A1380F2
:10583800344B1B881E2BCBE7334A1380314A12881E
:10584800322AC6D83B4A1288642A0AD130483A4AD2
:105858003A49057814880A8875B9944209D90132F9
:105868000A80374A00231370364A137003B0BDE824
:10587800F08FA5D2013AF3E7551CAC4201DD0D804B
:105888006CE7013A9442ECDA0A8067E71E49088817
:1058980020B932230B801E4B1870E2E72A4B1B8875
:1058A800642BDED1174B1B889B2B0FD91D4A1288FE
:1058B80096246243B2FBF3F303444F2B4FEA63028F
:1058C80001D90A8085E728230B8082E7902B3FD8EF
:1058D800144A128896246243B2FBF3F310FA83F356
:1058E8008D2B4FEA6302ECD94623EDE730FA00200E
:1058F8000004004822BA00200008004891F0002067
:1059080090F00020F4DB0020BCF90020B5DD002079
:105918002EFA002028F90020B4DD00205ADB0020F0
:1059280046DB002074DC0020B8F9002098DC002059
:10593800B6F90020C6DB0020C4DB00205CFB002099
:1059480013EF002074F00020F6DB00202FFA00206F
:10595800704A12783AB1704B1A88704B1A80704BA3
:105968001A88704B4BE7704A128803F10A018A4281
:1059780005DD6E4A1388BE2B08D90A3B16E7934209
:1059880006D26A4A1388C82B7FF66BAF013B0DE736
:10599800A3F10A018A4206DA644A1388B3F5C37F81
:1059A80009D20A3302E79342D5D9604A1388B3F57E
:1059B800C87FBFF456AF0133F8E65D49088818B9C7
:1059C8005B4BFA221A8004E75A4B1B88642B7FF43E
:1059D80048AF594B1A88504BB2F5997F1B880DD3A5
:1059E8004FF496746343B3FBF2F303445B10E52B67
:1059F8000B803FF7EEAE4E4BE622E3E7B2F5937F1E
:105A080010D84FF496746343B3FBF2F310FA83F3A0
:105A18005B10B3F5A07F0B807FF7DBAE444B4FF4F0
:105A2800A072CFE7454A13803D4B1A88444BE6E6FF
:105A38003F490B88002BC3D03E4A1288642A7FF462
:105A480010AF3D4A1288B2F5997F0CD3A2F5967231
:105A5800B3EB420F4FEA4200CDDD1B1A9BB2E52B98
:105A68000B80C8D9B5E6B2F5937F3FF6A9AEC2F56B
:105A7800967203EB42039BB2B3F5A07F0B80CDD89F
:105A8800A7E6304D2A4A29881380A1B12E4E3388C3
:105A98008BB1224F3A8872B1DFF8A090B9F80000B4
:105AA80048B1DFF880A0BAF8000020B1DFF890B064
:105AB800BBF800400CB91E2353E6009000200AF002
:105AC80075FF224CBAF800302080009333883A885A
